{
  "_format": "hh-sol-artifact-1",
  "contractName": "PredictionMarketP2P",
  "sourceName": "contracts/PredictionMarketP2P.sol",
  "abi": [
    {
      "inputs": [
        {
          "internalType": "address payable",
          "name": "_initialFeeWallet",
          "type": "address"
        },
        {
          "internalType": "uint16",
          "name": "_initialFeeBasisPoints",
          "type": "uint16"
        }
      ],
      "stateMutability": "nonpayable",
      "type": "constructor"
    },
    {
      "inputs": [
        {
          "internalType": "address",
          "name": "owner",
          "type": "address"
        }
      ],
      "name": "OwnableInvalidOwner",
      "type": "error"
    },
    {
      "inputs": [
        {
          "internalType": "address",
          "name": "account",
          "type": "address"
        }
      ],
      "name": "OwnableUnauthorizedAccount",
      "type": "error"
    },
    {
      "inputs": [],
      "name": "ReentrancyGuardReentrantCall",
      "type": "error"
    },
    {
      "anonymous": false,
      "inputs": [
        {
          "indexed": true,
          "internalType": "uint256",
          "name": "marketId",
          "type": "uint256"
        },
        {
          "indexed": true,
          "internalType": "address",
          "name": "bettor",
          "type": "address"
        },
        {
          "indexed": false,
          "internalType": "bool",
          "name": "predictedYes",
          "type": "bool"
        },
        {
          "indexed": false,
          "internalType": "uint256",
          "name": "grossAmount",
          "type": "uint256"
        },
        {
          "indexed": false,
          "internalType": "uint256",
          "name": "netAmountPooled",
          "type": "uint256"
        },
        {
          "indexed": false,
          "internalType": "uint256",
          "name": "feeAmount",
          "type": "uint256"
        }
      ],
      "name": "BetPlaced",
      "type": "event"
    },
    {
      "anonymous": false,
      "inputs": [
        {
          "indexed": true,
          "internalType": "uint256",
          "name": "id",
          "type": "uint256"
        },
        {
          "indexed": false,
          "internalType": "string",
          "name": "assetSymbol",
          "type": "string"
        },
        {
          "indexed": false,
          "internalType": "address",
          "name": "priceFeedAddress",
          "type": "address"
        },
        {
          "indexed": false,
          "internalType": "uint256",
          "name": "targetPrice",
          "type": "uint256"
        },
        {
          "indexed": false,
          "internalType": "uint256",
          "name": "expiryTimestamp",
          "type": "uint256"
        },
        {
          "indexed": false,
          "internalType": "bool",
          "name": "isEventMarket",
          "type": "bool"
        }
      ],
      "name": "MarketCreated",
      "type": "event"
    },
    {
      "anonymous": false,
      "inputs": [
        {
          "indexed": true,
          "internalType": "uint256",
          "name": "marketId",
          "type": "uint256"
        },
        {
          "indexed": false,
          "internalType": "enum PredictionMarketP2P.MarketState",
          "name": "outcomeState",
          "type": "uint8"
        },
        {
          "indexed": false,
          "internalType": "int256",
          "name": "actualValue",
          "type": "int256"
        }
      ],
      "name": "MarketResolved",
      "type": "event"
    },
    {
      "anonymous": false,
      "inputs": [
        {
          "indexed": true,
          "internalType": "address",
          "name": "previousOwner",
          "type": "address"
        },
        {
          "indexed": true,
          "internalType": "address",
          "name": "newOwner",
          "type": "address"
        }
      ],
      "name": "OwnershipTransferred",
      "type": "event"
    },
    {
      "anonymous": false,
      "inputs": [
        {
          "indexed": false,
          "internalType": "uint16",
          "name": "newFeeBasisPoints",
          "type": "uint16"
        }
      ],
      "name": "PlatformFeeSet",
      "type": "event"
    },
    {
      "anonymous": false,
      "inputs": [
        {
          "indexed": true,
          "internalType": "address",
          "name": "newWallet",
          "type": "address"
        }
      ],
      "name": "PlatformFeeWalletSet",
      "type": "event"
    },
    {
      "anonymous": false,
      "inputs": [
        {
          "indexed": true,
          "internalType": "uint256",
          "name": "marketId",
          "type": "uint256"
        },
        {
          "indexed": true,
          "internalType": "address",
          "name": "bettor",
          "type": "address"
        },
        {
          "indexed": false,
          "internalType": "uint256",
          "name": "payoutAmount",
          "type": "uint256"
        }
      ],
      "name": "WinningsClaimed",
      "type": "event"
    },
    {
      "inputs": [
        {
          "internalType": "uint256",
          "name": "_marketId",
          "type": "uint256"
        }
      ],
      "name": "claimWinnings",
      "outputs": [],
      "stateMutability": "nonpayable",
      "type": "function"
    },
    {
      "inputs": [
        {
          "internalType": "string",
          "name": "_assetSymbol",
          "type": "string"
        },
        {
          "internalType": "address",
          "name": "_priceFeedAddress",
          "type": "address"
        },
        {
          "internalType": "uint256",
          "name": "_targetPrice",
          "type": "uint256"
        },
        {
          "internalType": "uint256",
          "name": "_expiryTimestamp",
          "type": "uint256"
        },
        {
          "internalType": "bool",
          "name": "_isEventMarket",
          "type": "bool"
        }
      ],
      "name": "createMarket",
      "outputs": [],
      "stateMutability": "nonpayable",
      "type": "function"
    },
    {
      "inputs": [
        {
          "internalType": "uint256",
          "name": "_marketId",
          "type": "uint256"
        },
        {
          "internalType": "address",
          "name": "_user",
          "type": "address"
        }
      ],
      "name": "didUserClaim",
      "outputs": [
        {
          "internalType": "bool",
          "name": "",
          "type": "bool"
        }
      ],
      "stateMutability": "view",
      "type": "function"
    },
    {
      "inputs": [
        {
          "internalType": "uint256",
          "name": "_marketId",
          "type": "uint256"
        },
        {
          "internalType": "address",
          "name": "_user",
          "type": "address"
        }
      ],
      "name": "getClaimableAmount",
      "outputs": [
        {
          "internalType": "uint256",
          "name": "",
          "type": "uint256"
        }
      ],
      "stateMutability": "view",
      "type": "function"
    },
    {
      "inputs": [
        {
          "internalType": "uint256",
          "name": "_marketId",
          "type": "uint256"
        }
      ],
      "name": "getMarketStaticDetails",
      "outputs": [
        {
          "internalType": "uint256",
          "name": "id",
          "type": "uint256"
        },
        {
          "internalType": "string",
          "name": "assetSymbol",
          "type": "string"
        },
        {
          "internalType": "address",
          "name": "priceFeedAddress",
          "type": "address"
        },
        {
          "internalType": "uint256",
          "name": "targetPrice",
          "type": "uint256"
        },
        {
          "internalType": "uint256",
          "name": "expiryTimestamp",
          "type": "uint256"
        },
        {
          "internalType": "uint256",
          "name": "resolutionTimestamp",
          "type": "uint256"
        },
        {
          "internalType": "uint256",
          "name": "totalStakedYes",
          "type": "uint256"
        },
        {
          "internalType": "uint256",
          "name": "totalStakedNo",
          "type": "uint256"
        },
        {
          "internalType": "enum PredictionMarketP2P.MarketState",
          "name": "state",
          "type": "uint8"
        },
        {
          "internalType": "int256",
          "name": "actualOutcomeValue",
          "type": "int256"
        },
        {
          "internalType": "bool",
          "name": "exists",
          "type": "bool"
        },
        {
          "internalType": "bool",
          "name": "isEventMarket",
          "type": "bool"
        }
      ],
      "stateMutability": "view",
      "type": "function"
    },
    {
      "inputs": [
        {
          "internalType": "uint256",
          "name": "_marketId",
          "type": "uint256"
        },
        {
          "internalType": "address",
          "name": "_user",
          "type": "address"
        }
      ],
      "name": "getUserStakeInMarket",
      "outputs": [
        {
          "internalType": "uint256",
          "name": "stakeYes",
          "type": "uint256"
        },
        {
          "internalType": "uint256",
          "name": "stakeNo",
          "type": "uint256"
        }
      ],
      "stateMutability": "view",
      "type": "function"
    },
    {
      "inputs": [
        {
          "internalType": "uint256",
          "name": "",
          "type": "uint256"
        }
      ],
      "name": "markets",
      "outputs": [
        {
          "internalType": "uint256",
          "name": "id",
          "type": "uint256"
        },
        {
          "internalType": "string",
          "name": "assetSymbol",
          "type": "string"
        },
        {
          "internalType": "contract AggregatorV3Interface",
          "name": "priceFeed",
          "type": "address"
        },
        {
          "internalType": "uint256",
          "name": "targetPrice",
          "type": "uint256"
        },
        {
          "internalType": "uint256",
          "name": "expiryTimestamp",
          "type": "uint256"
        },
        {
          "internalType": "uint256",
          "name": "resolutionTimestamp",
          "type": "uint256"
        },
        {
          "internalType": "bool",
          "name": "isEventMarket",
          "type": "bool"
        },
        {
          "internalType": "uint256",
          "name": "totalStakedYes",
          "type": "uint256"
        },
        {
          "internalType": "uint256",
          "name": "totalStakedNo",
          "type": "uint256"
        },
        {
          "internalType": "enum PredictionMarketP2P.MarketState",
          "name": "state",
          "type": "uint8"
        },
        {
          "internalType": "int256",
          "name": "actualOutcomeValue",
          "type": "int256"
        },
        {
          "internalType": "bool",
          "name": "exists",
          "type": "bool"
        }
      ],
      "stateMutability": "view",
      "type": "function"
    },
    {
      "inputs": [],
      "name": "nextMarketId",
      "outputs": [
        {
          "internalType": "uint256",
          "name": "",
          "type": "uint256"
        }
      ],
      "stateMutability": "view",
      "type": "function"
    },
    {
      "inputs": [],
      "name": "owner",
      "outputs": [
        {
          "internalType": "address",
          "name": "",
          "type": "address"
        }
      ],
      "stateMutability": "view",
      "type": "function"
    },
    {
      "inputs": [
        {
          "internalType": "uint256",
          "name": "_marketId",
          "type": "uint256"
        },
        {
          "internalType": "enum PredictionMarketP2P.MarketState",
          "name": "_outcomeState",
          "type": "uint8"
        }
      ],
      "name": "ownerResolveEventMarket",
      "outputs": [],
      "stateMutability": "nonpayable",
      "type": "function"
    },
    {
      "inputs": [
        {
          "internalType": "uint256",
          "name": "_marketId",
          "type": "uint256"
        },
        {
          "internalType": "bool",
          "name": "_predictYes",
          "type": "bool"
        }
      ],
      "name": "placeBet",
      "outputs": [],
      "stateMutability": "payable",
      "type": "function"
    },
    {
      "inputs": [],
      "name": "platformFeeBasisPoints",
      "outputs": [
        {
          "internalType": "uint16",
          "name": "",
          "type": "uint16"
        }
      ],
      "stateMutability": "view",
      "type": "function"
    },
    {
      "inputs": [],
      "name": "platformFeeWallet",
      "outputs": [
        {
          "internalType": "address payable",
          "name": "",
          "type": "address"
        }
      ],
      "stateMutability": "view",
      "type": "function"
    },
    {
      "inputs": [],
      "name": "renounceOwnership",
      "outputs": [],
      "stateMutability": "nonpayable",
      "type": "function"
    },
    {
      "inputs": [
        {
          "internalType": "uint256",
          "name": "_marketId",
          "type": "uint256"
        }
      ],
      "name": "resolvePriceFeedMarket",
      "outputs": [],
      "stateMutability": "nonpayable",
      "type": "function"
    },
    {
      "inputs": [
        {
          "internalType": "uint16",
          "name": "_newFeeBasisPoints",
          "type": "uint16"
        }
      ],
      "name": "setPlatformFee",
      "outputs": [],
      "stateMutability": "nonpayable",
      "type": "function"
    },
    {
      "inputs": [
        {
          "internalType": "address payable",
          "name": "_newWallet",
          "type": "address"
        }
      ],
      "name": "setPlatformFeeWallet",
      "outputs": [],
      "stateMutability": "nonpayable",
      "type": "function"
    },
    {
      "inputs": [
        {
          "internalType": "address",
          "name": "newOwner",
          "type": "address"
        }
      ],
      "name": "transferOwnership",
      "outputs": [],
      "stateMutability": "nonpayable",
      "type": "function"
    },
    {
      "inputs": [
        {
          "internalType": "address payable",
          "name": "_to",
          "type": "address"
        }
      ],
      "name": "withdrawStuckEther",
      "outputs": [],
      "stateMutability": "nonpayable",
      "type": "function"
    },
    {
      "stateMutability": "payable",
      "type": "receive"
    }
  ],
  "bytecode": "0x60806040523480156200001157600080fd5b50604051620046ae380380620046ae833981810160405281019062000037919062000357565b33600073ffffffffffffffffffffffffffffffffffffffff168173ffffffffffffffffffffffffffffffffffffffff1603620000ad5760006040517f1e4fbdf7000000000000000000000000000000000000000000000000000000008152600401620000a49190620003c3565b60405180910390fd5b620000be81620001ea60201b60201c565b5060018081905550600073ffffffffffffffffffffffffffffffffffffffff168273ffffffffffffffffffffffffffffffffffffffff160362000138576040517f08c379a00000000000000000000000000000000000000000000000000000000081526004016200012f9062000441565b60405180910390fd5b6103e88161ffff16111562000184576040517f08c379a00000000000000000000000000000000000000000000000000000000081526004016200017b90620004b3565b60405180910390fd5b81600460006101000a81548173ffffffffffffffffffffffffffffffffffffffff021916908373ffffffffffffffffffffffffffffffffffffffff16021790555080600460146101000a81548161ffff021916908361ffff1602179055505050620004d5565b60008060009054906101000a900473ffffffffffffffffffffffffffffffffffffffff169050816000806101000a81548173ffffffffffffffffffffffffffffffffffffffff021916908373ffffffffffffffffffffffffffffffffffffffff1602179055508173ffffffffffffffffffffffffffffffffffffffff168173ffffffffffffffffffffffffffffffffffffffff167f8be0079c531659141344cd1fd0a4f28419497f9722a3daafe3b4186f6b6457e060405160405180910390a35050565b600080fd5b600073ffffffffffffffffffffffffffffffffffffffff82169050919050565b6000620002e082620002b3565b9050919050565b620002f281620002d3565b8114620002fe57600080fd5b50565b6000815190506200031281620002e7565b92915050565b600061ffff82169050919050565b620003318162000318565b81146200033d57600080fd5b50565b600081519050620003518162000326565b92915050565b60008060408385031215620003715762000370620002ae565b5b6000620003818582860162000301565b9250506020620003948582860162000340565b9150509250929050565b6000620003ab82620002b3565b9050919050565b620003bd816200039e565b82525050565b6000602082019050620003da6000830184620003b2565b92915050565b600082825260208201905092915050565b7f50464d573a20496e76616c6964206665652077616c6c65740000000000000000600082015250565b600062000429601883620003e0565b91506200043682620003f1565b602082019050919050565b600060208201905081810360008301526200045c816200041a565b9050919050565b7f50463a2046656520746f6f206869676820286d61782031302529000000000000600082015250565b60006200049b601a83620003e0565b9150620004a88262000463565b602082019050919050565b60006020820190508181036000830152620004ce816200048c565b9050919050565b6141c980620004e56000396000f3fe6080604052600436106101185760003560e01c806374169279116100a0578063b1283e7711610064578063b1283e77146103a3578063c58bfb66146103eb578063d96d98ca14610416578063e20fc1181461043f578063f2fde38b1461046a5761011f565b806374169279146102b957806378c5195e146102f65780638da5cb5b146103335780639a3a40d61461035e5780639ed9c74d146103875761011f565b806326ccd77a116100e757806326ccd77a146101fc578063406ef2ef146102255780635cbc742c14610250578063677bd9ff14610279578063715018a6146102a25761011f565b80630e665355146101245780631c1695ba146101625780631f08db6f1461018b57806326a15bb3146101b45761011f565b3661011f57005b600080fd5b34801561013057600080fd5b5061014b60048036038101906101469190612599565b610493565b6040516101599291906125e8565b60405180910390f35b34801561016e57600080fd5b5061018960048036038101906101849190612636565b61053d565b005b34801561019757600080fd5b506101b260048036038101906101ad9190612713565b6108fb565b005b3480156101c057600080fd5b506101db60048036038101906101d691906127ad565b610b27565b6040516101f39c9b9a99989796959493929190612918565b60405180910390f35b34801561020857600080fd5b50610223600480360381019061021e9190612a17565b610cd8565b005b34801561023157600080fd5b5061023a610da9565b6040516102479190612a44565b60405180910390f35b34801561025c57600080fd5b5061027760048036038101906102729190612a99565b610daf565b005b34801561028557600080fd5b506102a0600480360381019061029b91906127ad565b610e57565b005b3480156102ae57600080fd5b506102b76112aa565b005b3480156102c557600080fd5b506102e060048036038101906102db9190612599565b6112be565b6040516102ed9190612ac6565b60405180910390f35b34801561030257600080fd5b5061031d60048036038101906103189190612599565b61132e565b60405161032a9190612a44565b60405180910390f35b34801561033f57600080fd5b506103486115d8565b6040516103559190612ae1565b60405180910390f35b34801561036a57600080fd5b50610385600480360381019061038091906127ad565b611601565b005b6103a1600480360381019061039c9190612afc565b611ca4565b005b3480156103af57600080fd5b506103ca60048036038101906103c591906127ad565b612062565b6040516103e29c9b9a99989796959493929190612b9b565b60405180910390f35b3480156103f757600080fd5b50610400612191565b60405161040d9190612c6b565b60405180910390f35b34801561042257600080fd5b5061043d60048036038101906104389190612a17565b6121a5565b005b34801561044b57600080fd5b506104546122a3565b6040516104619190612c95565b60405180910390f35b34801561047657600080fd5b50610491600480360381019061048c9190612cb0565b6122c9565b005b60008060006002600086815260200190815260200160002090508060090160008573ffffffffffffffffffffffffffffffffffffffff1673ffffffffffffffffffffffffffffffffffffffff1681526020019081526020016000205481600a0160008673ffffffffffffffffffffffffffffffffffffffff1673ffffffffffffffffffffffffffffffffffffffff1681526020019081526020016000205492509250509250929050565b61054561234f565b61054d6123d6565b600060026000848152602001908152602001600020905080600e0160009054906101000a900460ff166105b5576040517f08c379a00000000000000000000000000000000000000000000000000000000081526004016105ac90612d29565b60405180910390fd5b8060060160009054906101000a900460ff16610606576040517f08c379a00000000000000000000000000000000000000000000000000000000081526004016105fd90612d95565b60405180910390fd5b6000600481111561061a57610619612879565b5b81600c0160009054906101000a900460ff16600481111561063e5761063d612879565b5b148061067f57506001600481111561065957610658612879565b5b81600c0160009054906101000a900460ff16600481111561067d5761067c612879565b5b145b6106be576040517f08c379a00000000000000000000000000000000000000000000000000000000081526004016106b590612e01565b60405180910390fd5b8060040154421015610705576040517f08c379a00000000000000000000000000000000000000000000000000000000081526004016106fc90612e6d565b60405180910390fd5b6002600481111561071957610718612879565b5b82600481111561072c5761072b612879565b5b148061075c57506003600481111561074757610746612879565b5b82600481111561075a57610759612879565b5b145b8061078a575060048081111561077557610774612879565b5b82600481111561078857610787612879565b5b145b6107c9576040517f08c379a00000000000000000000000000000000000000000000000000000000081526004016107c090612ed9565b60405180910390fd5b8181600c0160006101000a81548160ff021916908360048111156107f0576107ef612879565b5b02179055504281600501819055506002600481111561081257610811612879565b5b82600481111561082557610824612879565b5b0361083957600181600d018190555061089f565b6003600481111561084d5761084c612879565b5b8260048111156108605761085f612879565b5b0361087457600081600d018190555061089e565b7fffffffffffffffffffffffffffffffffffffffffffffffffffffffffffffffff81600d01819055505b5b827f075615139ef09288348a86c4ccfdd482a2a472b9eabc311f28548d520e51aaf582600c0160009054906101000a900460ff1683600d01546040516108e6929190612ef9565b60405180910390a2506108f761241c565b5050565b61090361234f565b8061097857600073ffffffffffffffffffffffffffffffffffffffff168473ffffffffffffffffffffffffffffffffffffffff1603610977576040517f08c379a000000000000000000000000000000000000000000000000000000000815260040161096e90612f94565b60405180910390fd5b5b610708426109869190612fe3565b82116109c7576040517f08c379a00000000000000000000000000000000000000000000000000000000081526004016109be90613063565b60405180910390fd5b60006003549050600360008154809291906109e190613083565b919050555060006002600083815260200190815260200160002090508181600001819055508787826001019182610a19929190613307565b5082610a6357858160020160006101000a81548173ffffffffffffffffffffffffffffffffffffffff021916908373ffffffffffffffffffffffffffffffffffffffff1602179055505b848160030181905550838160040181905550828160060160006101000a81548160ff021916908315150217905550600081600c0160006101000a81548160ff02191690836004811115610ab957610ab8612879565b5b0217905550600181600e0160006101000a81548160ff021916908315150217905550817f64324daa6a39e15e16a579c403db8f3edfa448d9b8b0dc2558d9ac0b4f55181e898989898989604051610b1596959493929190613413565b60405180910390a25050505050505050565b600060606000806000806000806000806000806000600260008f8152602001908152602001600020905080600e0160009054906101000a900460ff16610ba2576040517f08c379a0000000000000000000000000000000000000000000000000000000008152600401610b99906134bb565b60405180910390fd5b8060000154816001018260020160009054906101000a900473ffffffffffffffffffffffffffffffffffffffff168360030154846004015485600501548660070154876008015488600c0160009054906101000a900460ff1689600d01548a600e0160009054906101000a900460ff168b60060160009054906101000a900460ff168a8054610c3090613134565b80601f0160208091040260200160405190810160405280929190818152602001828054610c5c90613134565b8015610ca95780601f10610c7e57610100808354040283529160200191610ca9565b820191906000526020600020905b815481529060010190602001808311610c8c57829003601f168201915b50505050509a509c509c509c509c509c509c509c509c509c509c509c509c505091939597999b5091939597999b565b610ce061234f565b600073ffffffffffffffffffffffffffffffffffffffff168173ffffffffffffffffffffffffffffffffffffffff1603610d4f576040517f08c379a0000000000000000000000000000000000000000000000000000000008152600401610d4690613527565b60405180910390fd5b60004790506000811115610da5578173ffffffffffffffffffffffffffffffffffffffff166108fc829081150290604051600060405180830381858888f19350505050158015610da3573d6000803e3d6000fd5b505b5050565b60035481565b610db761234f565b6103e88161ffff161115610e00576040517f08c379a0000000000000000000000000000000000000000000000000000000008152600401610df790613593565b60405180910390fd5b80600460146101000a81548161ffff021916908361ffff1602179055507f1426859b6b96e2e9ae302b23a42f763f4b0ae916a71a093e61c77120458b2e9581604051610e4c9190612c6b565b60405180910390a150565b610e5f6123d6565b600060026000838152602001908152602001600020905080600e0160009054906101000a900460ff16610ec7576040517f08c379a0000000000000000000000000000000000000000000000000000000008152600401610ebe906135ff565b60405180910390fd5b80600b0160003373ffffffffffffffffffffffffffffffffffffffff1673ffffffffffffffffffffffffffffffffffffffff16815260200190815260200160002060009054906101000a900460ff1615610f56576040517f08c379a0000000000000000000000000000000000000000000000000000000008152600401610f4d9061366b565b60405180910390fd5b6000808260090160003373ffffffffffffffffffffffffffffffffffffffff1673ffffffffffffffffffffffffffffffffffffffff168152602001908152602001600020549050600083600a0160003373ffffffffffffffffffffffffffffffffffffffff1673ffffffffffffffffffffffffffffffffffffffff168152602001908152602001600020549050600480811115610ff657610ff5612879565b5b84600c0160009054906101000a900460ff16600481111561101a57611019612879565b5b0361103257808261102b9190612fe3565b9250611162565b6002600481111561104657611045612879565b5b84600c0160009054906101000a900460ff16600481111561106a57611069612879565b5b036110cb57600082118015611083575060008460070154115b156110c6578192506000846008015411156110c55783600701548460080154836110ad919061368b565b6110b791906136fc565b836110c29190612fe3565b92505b5b611161565b600360048111156110df576110de612879565b5b84600c0160009054906101000a900460ff16600481111561110357611102612879565b5b036111605760008111801561111c575060008460080154115b1561115f5780925060008460070154111561115e578360080154846007015482611146919061368b565b61115091906136fc565b8361115b9190612fe3565b92505b5b5b5b5b600083116111a5576040517f08c379a000000000000000000000000000000000000000000000000000000000815260040161119c90613779565b60405180910390fd5b600184600b0160003373ffffffffffffffffffffffffffffffffffffffff1673ffffffffffffffffffffffffffffffffffffffff16815260200190815260200160002060006101000a81548160ff02191690831515021790555060003390508073ffffffffffffffffffffffffffffffffffffffff166108fc859081150290604051600060405180830381858888f1935050505015801561124a573d6000803e3d6000fd5b503373ffffffffffffffffffffffffffffffffffffffff16867f5380cf6fe903b40c6d5a9e0dfbca2f3a423f0a21520b4d5947ed5169bdba946d866040516112929190612a44565b60405180910390a350505050506112a761241c565b50565b6112b261234f565b6112bc6000612425565b565b60008060026000858152602001908152602001600020905080600b0160008473ffffffffffffffffffffffffffffffffffffffff1673ffffffffffffffffffffffffffffffffffffffff16815260200190815260200160002060009054906101000a900460ff1691505092915050565b60008060026000858152602001908152602001600020905080600e0160009054906101000a900460ff1615806113af575080600b0160008473ffffffffffffffffffffffffffffffffffffffff1673ffffffffffffffffffffffffffffffffffffffff16815260200190815260200160002060009054906101000a900460ff165b156113be5760009150506115d2565b6000808260090160008673ffffffffffffffffffffffffffffffffffffffff1673ffffffffffffffffffffffffffffffffffffffff168152602001908152602001600020549050600083600a0160008773ffffffffffffffffffffffffffffffffffffffff1673ffffffffffffffffffffffffffffffffffffffff16815260200190815260200160002054905060048081111561145e5761145d612879565b5b84600c0160009054906101000a900460ff16600481111561148257611481612879565b5b0361149a5780826114939190612fe3565b92506115ca565b600260048111156114ae576114ad612879565b5b84600c0160009054906101000a900460ff1660048111156114d2576114d1612879565b5b03611533576000821180156114eb575060008460070154115b1561152e5781925060008460080154111561152d578360070154846008015483611515919061368b565b61151f91906136fc565b8361152a9190612fe3565b92505b5b6115c9565b6003600481111561154757611546612879565b5b84600c0160009054906101000a900460ff16600481111561156b5761156a612879565b5b036115c857600081118015611584575060008460080154115b156115c7578092506000846007015411156115c65783600801548460070154826115ae919061368b565b6115b891906136fc565b836115c39190612fe3565b92505b5b5b5b5b829450505050505b92915050565b60008060009054906101000a900473ffffffffffffffffffffffffffffffffffffffff16905090565b6116096123d6565b600060026000838152602001908152602001600020905080600e0160009054906101000a900460ff16611671576040517f08c379a0000000000000000000000000000000000000000000000000000000008152600401611668906137e5565b60405180910390fd5b8060060160009054906101000a900460ff16156116c3576040517f08c379a00000000000000000000000000000000000000000000000000000000081526004016116ba90613851565b60405180910390fd5b600060048111156116d7576116d6612879565b5b81600c0160009054906101000a900460ff1660048111156116fb576116fa612879565b5b148061173c57506001600481111561171657611715612879565b5b81600c0160009054906101000a900460ff16600481111561173a57611739612879565b5b145b61177b576040517f08c379a0000000000000000000000000000000000000000000000000000000008152600401611772906138bd565b60405180910390fd5b80600401544210156117c2576040517f08c379a00000000000000000000000000000000000000000000000000000000081526004016117b990613929565b60405180910390fd5b600060048111156117d6576117d5612879565b5b81600c0160009054906101000a900460ff1660048111156117fa576117f9612879565b5b0361182d57600181600c0160006101000a81548160ff0219169083600481111561182757611826612879565b5b02179055505b4281600501819055508060020160009054906101000a900473ffffffffffffffffffffffffffffffffffffffff1673ffffffffffffffffffffffffffffffffffffffff1663feaf968c6040518163ffffffff1660e01b815260040160a060405180830381865afa9250505080156118c257506040513d601f19601f820116820180604052508101906118bf91906139cc565b60015b611a78576118ce613a54565b806308c379a00361199857506118e2613aa7565b806118ed575061199a565b600482600c0160006101000a81548160ff0219169083600481111561191557611914612879565b5b02179055507fffffffffffffffffffffffffffffffffffffffffffffffffffffffffffffffff82600d0181905550827f075615139ef09288348a86c4ccfdd482a2a472b9eabc311f28548d520e51aaf583600c0160009054906101000a900460ff1684600d015460405161198a929190612ef9565b60405180910390a250611a73565b505b3d80600081146119c6576040519150601f19603f3d011682016040523d82523d6000602084013e6119cb565b606091505b50600482600c0160006101000a81548160ff021916908360048111156119f4576119f3612879565b5b02179055507fffffffffffffffffffffffffffffffffffffffffffffffffffffffffffffffff82600d0181905550827f075615139ef09288348a86c4ccfdd482a2a472b9eabc311f28548d520e51aaf583600c0160009054906101000a900460ff1684600d0154604051611a69929190612ef9565b60405180910390a2505b611c98565b8386600d018190555060008660020160009054906101000a900473ffffffffffffffffffffffffffffffffffffffff1673ffffffffffffffffffffffffffffffffffffffff1663313ce5676040518163ffffffff1660e01b8152600401602060405180830381865afa158015611af2573d6000803e3d6000fd5b505050506040513d601f19601f82011682018060405250810190611b169190613b70565b905060028160ff161015611b5f576040517f08c379a0000000000000000000000000000000000000000000000000000000008152600401611b5690613be9565b60405180910390fd5b6000600282611b6e9190613c09565b600a611b7a9190613d71565b905060008111611bbf576040517f08c379a0000000000000000000000000000000000000000000000000000000008152600401611bb690613e08565b60405180910390fd5b600081905060008188611bd29190613e28565b905089600301548112611c115760028a600c0160006101000a81548160ff02191690836004811115611c0757611c06612879565b5b0217905550611c3f565b60038a600c0160006101000a81548160ff02191690836004811115611c3957611c38612879565b5b02179055505b8a7f075615139ef09288348a86c4ccfdd482a2a472b9eabc311f28548d520e51aaf58b600c0160009054906101000a900460ff168c600d0154604051611c86929190612ef9565b60405180910390a25050505050505050505b50611ca161241c565b50565b611cac6123d6565b600060026000848152602001908152602001600020905080600e0160009054906101000a900460ff16611d14576040517f08c379a0000000000000000000000000000000000000000000000000000000008152600401611d0b90613ede565b60405180910390fd5b60006004811115611d2857611d27612879565b5b81600c0160009054906101000a900460ff166004811115611d4c57611d4b612879565b5b14611d8c576040517f08c379a0000000000000000000000000000000000000000000000000000000008152600401611d8390613f4a565b60405180910390fd5b80600401544210611dd2576040517f08c379a0000000000000000000000000000000000000000000000000000000008152600401611dc990613fb6565b60405180910390fd5b60003411611e15576040517f08c379a0000000000000000000000000000000000000000000000000000000008152600401611e0c90614022565b60405180910390fd5b6000612710600460149054906101000a900461ffff1661ffff1634611e3a919061368b565b611e4491906136fc565b905060008134611e549190614042565b905060008111611e99576040517f08c379a0000000000000000000000000000000000000000000000000000000008152600401611e90906140c2565b60405180910390fd5b8315611f1757808360090160003373ffffffffffffffffffffffffffffffffffffffff1673ffffffffffffffffffffffffffffffffffffffff1681526020019081526020016000206000828254611ef09190612fe3565b9250508190555080836007016000828254611f0b9190612fe3565b92505081905550611f8b565b8083600a0160003373ffffffffffffffffffffffffffffffffffffffff1673ffffffffffffffffffffffffffffffffffffffff1681526020019081526020016000206000828254611f689190612fe3565b9250508190555080836008016000828254611f839190612fe3565b925050819055505b6000821115611ffe57600460009054906101000a900473ffffffffffffffffffffffffffffffffffffffff1673ffffffffffffffffffffffffffffffffffffffff166108fc839081150290604051600060405180830381858888f19350505050158015611ffc573d6000803e3d6000fd5b505b3373ffffffffffffffffffffffffffffffffffffffff16857f1faf624c13819091a75aa5abee6c43a2226da9b9475e62bdfc87bef2889b50968634858760405161204b94939291906140e2565b60405180910390a350505061205e61241c565b5050565b600260205280600052604060002060009150905080600001549080600101805461208b90613134565b80601f01602080910402602001604051908101604052809291908181526020018280546120b790613134565b80156121045780601f106120d957610100808354040283529160200191612104565b820191906000526020600020905b8154815290600101906020018083116120e757829003601f168201915b5050505050908060020160009054906101000a900473ffffffffffffffffffffffffffffffffffffffff16908060030154908060040154908060050154908060060160009054906101000a900460ff169080600701549080600801549080600c0160009054906101000a900460ff169080600d01549080600e0160009054906101000a900460ff1690508c565b600460149054906101000a900461ffff1681565b6121ad61234f565b600073ffffffffffffffffffffffffffffffffffffffff168173ffffffffffffffffffffffffffffffffffffffff160361221c576040517f08c379a000000000000000000000000000000000000000000000000000000000815260040161221390614173565b60405180910390fd5b80600460006101000a81548173ffffffffffffffffffffffffffffffffffffffff021916908373ffffffffffffffffffffffffffffffffffffffff1602179055508073ffffffffffffffffffffffffffffffffffffffff167ff978a64dbc8c08aca906161a3ab8416c1a9f02f2ed02bbe7156333a4cb8c083060405160405180910390a250565b600460009054906101000a900473ffffffffffffffffffffffffffffffffffffffff1681565b6122d161234f565b600073ffffffffffffffffffffffffffffffffffffffff168173ffffffffffffffffffffffffffffffffffffffff16036123435760006040517f1e4fbdf700000000000000000000000000000000000000000000000000000000815260040161233a9190612ae1565b60405180910390fd5b61234c81612425565b50565b6123576124e9565b73ffffffffffffffffffffffffffffffffffffffff166123756115d8565b73ffffffffffffffffffffffffffffffffffffffff16146123d4576123986124e9565b6040517f118cdaa70000000000000000000000000000000000000000000000000000000081526004016123cb9190612ae1565b60405180910390fd5b565b600260015403612412576040517f3ee5aeb500000000000000000000000000000000000000000000000000000000815260040160405180910390fd5b6002600181905550565b60018081905550565b60008060009054906101000a900473ffffffffffffffffffffffffffffffffffffffff169050816000806101000a81548173ffffffffffffffffffffffffffffffffffffffff021916908373ffffffffffffffffffffffffffffffffffffffff1602179055508173ffffffffffffffffffffffffffffffffffffffff168173ffffffffffffffffffffffffffffffffffffffff167f8be0079c531659141344cd1fd0a4f28419497f9722a3daafe3b4186f6b6457e060405160405180910390a35050565b600033905090565b6000604051905090565b600080fd5b600080fd5b6000819050919050565b61251881612505565b811461252357600080fd5b50565b6000813590506125358161250f565b92915050565b600073ffffffffffffffffffffffffffffffffffffffff82169050919050565b60006125668261253b565b9050919050565b6125768161255b565b811461258157600080fd5b50565b6000813590506125938161256d565b92915050565b600080604083850312156125b0576125af6124fb565b5b60006125be85828601612526565b92505060206125cf85828601612584565b9150509250929050565b6125e281612505565b82525050565b60006040820190506125fd60008301856125d9565b61260a60208301846125d9565b9392505050565b6005811061261e57600080fd5b50565b60008135905061263081612611565b92915050565b6000806040838503121561264d5761264c6124fb565b5b600061265b85828601612526565b925050602061266c85828601612621565b9150509250929050565b600080fd5b600080fd5b600080fd5b60008083601f84011261269b5761269a612676565b5b8235905067ffffffffffffffff8111156126b8576126b761267b565b5b6020830191508360018202830111156126d4576126d3612680565b5b9250929050565b60008115159050919050565b6126f0816126db565b81146126fb57600080fd5b50565b60008135905061270d816126e7565b92915050565b60008060008060008060a087890312156127305761272f6124fb565b5b600087013567ffffffffffffffff81111561274e5761274d612500565b5b61275a89828a01612685565b9650965050602061276d89828a01612584565b945050604061277e89828a01612526565b935050606061278f89828a01612526565b92505060806127a089828a016126fe565b9150509295509295509295565b6000602082840312156127c3576127c26124fb565b5b60006127d184828501612526565b91505092915050565b600081519050919050565b600082825260208201905092915050565b60005b838110156128145780820151818401526020810190506127f9565b60008484015250505050565b6000601f19601f8301169050919050565b600061283c826127da565b61284681856127e5565b93506128568185602086016127f6565b61285f81612820565b840191505092915050565b6128738161255b565b82525050565b7f4e487b7100000000000000000000000000000000000000000000000000000000600052602160045260246000fd5b600581106128b9576128b8612879565b5b50565b60008190506128ca826128a8565b919050565b60006128da826128bc565b9050919050565b6128ea816128cf565b82525050565b6000819050919050565b612903816128f0565b82525050565b612912816126db565b82525050565b60006101808201905061292e600083018f6125d9565b8181036020830152612940818e612831565b905061294f604083018d61286a565b61295c606083018c6125d9565b612969608083018b6125d9565b61297660a083018a6125d9565b61298360c08301896125d9565b61299060e08301886125d9565b61299e6101008301876128e1565b6129ac6101208301866128fa565b6129ba610140830185612909565b6129c8610160830184612909565b9d9c50505050505050505050505050565b60006129e48261253b565b9050919050565b6129f4816129d9565b81146129ff57600080fd5b50565b600081359050612a11816129eb565b92915050565b600060208284031215612a2d57612a2c6124fb565b5b6000612a3b84828501612a02565b91505092915050565b6000602082019050612a5960008301846125d9565b92915050565b600061ffff82169050919050565b612a7681612a5f565b8114612a8157600080fd5b50565b600081359050612a9381612a6d565b92915050565b600060208284031215612aaf57612aae6124fb565b5b6000612abd84828501612a84565b91505092915050565b6000602082019050612adb6000830184612909565b92915050565b6000602082019050612af6600083018461286a565b92915050565b60008060408385031215612b1357612b126124fb565b5b6000612b2185828601612526565b9250506020612b32858286016126fe565b9150509250929050565b6000819050919050565b6000612b61612b5c612b578461253b565b612b3c565b61253b565b9050919050565b6000612b7382612b46565b9050919050565b6000612b8582612b68565b9050919050565b612b9581612b7a565b82525050565b600061018082019050612bb1600083018f6125d9565b8181036020830152612bc3818e612831565b9050612bd2604083018d612b8c565b612bdf606083018c6125d9565b612bec608083018b6125d9565b612bf960a083018a6125d9565b612c0660c0830189612909565b612c1360e08301886125d9565b612c216101008301876125d9565b612c2f6101208301866128e1565b612c3d6101408301856128fa565b612c4b610160830184612909565b9d9c50505050505050505050505050565b612c6581612a5f565b82525050565b6000602082019050612c806000830184612c5c565b92915050565b612c8f816129d9565b82525050565b6000602082019050612caa6000830184612c86565b92915050565b600060208284031215612cc657612cc56124fb565b5b6000612cd484828501612584565b91505092915050565b7f4f52454d3a204d61726b657420646f6573206e6f742065786973740000000000600082015250565b6000612d13601b836127e5565b9150612d1e82612cdd565b602082019050919050565b60006020820190508181036000830152612d4281612d06565b9050919050565b7f4f52454d3a204e6f7420616e206576656e74206d61726b657400000000000000600082015250565b6000612d7f6019836127e5565b9150612d8a82612d49565b602082019050919050565b60006020820190508181036000830152612dae81612d72565b9050919050565b7f4f52454d3a204d61726b6574206e6f74207265736f6c7661626c650000000000600082015250565b6000612deb601b836127e5565b9150612df682612db5565b602082019050919050565b60006020820190508181036000830152612e1a81612dde565b9050919050565b7f4f52454d3a204d61726b6574206e6f7420657870697265640000000000000000600082015250565b6000612e576018836127e5565b9150612e6282612e21565b602082019050919050565b60006020820190508181036000830152612e8681612e4a565b9050919050565b7f4f52454d3a20496e76616c6964206f7574636f6d652073746174650000000000600082015250565b6000612ec3601b836127e5565b9150612ece82612e8d565b602082019050919050565b60006020820190508181036000830152612ef281612eb6565b9050919050565b6000604082019050612f0e60008301856128e1565b612f1b60208301846128fa565b9392505050565b7f434d3a205072696365206665656420726571756972656420666f72206e6f6e2d60008201527f6576656e74206d61726b65740000000000000000000000000000000000000000602082015250565b6000612f7e602c836127e5565b9150612f8982612f22565b604082019050919050565b60006020820190508181036000830152612fad81612f71565b9050919050565b7f4e487b7100000000000000000000000000000000000000000000000000000000600052601160045260246000fd5b6000612fee82612505565b9150612ff983612505565b925082820190508082111561301157613010612fb4565b5b92915050565b7f434d3a2045787069727920746f6f20736f6f6e00000000000000000000000000600082015250565b600061304d6013836127e5565b915061305882613017565b602082019050919050565b6000602082019050818103600083015261307c81613040565b9050919050565b600061308e82612505565b91507fffffffffffffffffffffffffffffffffffffffffffffffffffffffffffffffff82036130c0576130bf612fb4565b5b600182019050919050565b600082905092915050565b7f4e487b7100000000000000000000000000000000000000000000000000000000600052604160045260246000fd5b7f4e487b7100000000000000000000000000000000000000000000000000000000600052602260045260246000fd5b6000600282049050600182168061314c57607f821691505b60208210810361315f5761315e613105565b5b50919050565b60008190508160005260206000209050919050565b60006020601f8301049050919050565b600082821b905092915050565b6000600883026131c77fffffffffffffffffffffffffffffffffffffffffffffffffffffffffffffffff8261318a565b6131d1868361318a565b95508019841693508086168417925050509392505050565b60006132046131ff6131fa84612505565b612b3c565b612505565b9050919050565b6000819050919050565b61321e836131e9565b61323261322a8261320b565b848454613197565b825550505050565b600090565b61324761323a565b613252818484613215565b505050565b5b818110156132765761326b60008261323f565b600181019050613258565b5050565b601f8211156132bb5761328c81613165565b6132958461317a565b810160208510156132a4578190505b6132b86132b08561317a565b830182613257565b50505b505050565b600082821c905092915050565b60006132de600019846008026132c0565b1980831691505092915050565b60006132f783836132cd565b9150826002028217905092915050565b61331183836130cb565b67ffffffffffffffff81111561332a576133296130d6565b5b6133348254613134565b61333f82828561327a565b6000601f83116001811461336e576000841561335c578287013590505b61336685826132eb565b8655506133ce565b601f19841661337c86613165565b60005b828110156133a45784890135825560018201915060208501945060208101905061337f565b868310156133c157848901356133bd601f8916826132cd565b8355505b6001600288020188555050505b50505050505050565b82818337600083830152505050565b60006133f283856127e5565b93506133ff8385846133d7565b61340883612820565b840190509392505050565b600060a082019050818103600083015261342e81888a6133e6565b905061343d602083018761286a565b61344a60408301866125d9565b61345760608301856125d9565b6134646080830184612909565b979650505050505050565b7f474d53443a204d61726b657420646f6573206e6f742065786973740000000000600082015250565b60006134a5601b836127e5565b91506134b08261346f565b602082019050919050565b600060208201905081810360008301526134d481613498565b9050919050565b7f5753453a20496e76616c69642061646472657373000000000000000000000000600082015250565b60006135116014836127e5565b915061351c826134db565b602082019050919050565b6000602082019050818103600083015261354081613504565b9050919050565b7f50463a2046656520746f6f206869676820286d61782031302529000000000000600082015250565b600061357d601a836127e5565b915061358882613547565b602082019050919050565b600060208201905081810360008301526135ac81613570565b9050919050565b7f43573a204d61726b657420646f6573206e6f7420657869737400000000000000600082015250565b60006135e96019836127e5565b91506135f4826135b3565b602082019050919050565b60006020820190508181036000830152613618816135dc565b9050919050565b7f43573a2057696e6e696e677320616c726561647920636c61696d656400000000600082015250565b6000613655601c836127e5565b91506136608261361f565b602082019050919050565b6000602082019050818103600083015261368481613648565b9050919050565b600061369682612505565b91506136a183612505565b92508282026136af81612505565b915082820484148315176136c6576136c5612fb4565b5b5092915050565b7f4e487b7100000000000000000000000000000000000000000000000000000000600052601260045260246000fd5b600061370782612505565b915061371283612505565b925082613722576137216136cd565b5b828204905092915050565b7f43573a204e6f2077696e6e696e677320746f20636c61696d0000000000000000600082015250565b60006137636018836127e5565b915061376e8261372d565b602082019050919050565b6000602082019050818103600083015261379281613756565b9050919050565b7f52504d3a204d61726b657420646f6573206e6f74206578697374000000000000600082015250565b60006137cf601a836127e5565b91506137da82613799565b602082019050919050565b600060208201905081810360008301526137fe816137c2565b9050919050565b7f52504d3a204e6f7420612070726963652066656564206d61726b657400000000600082015250565b600061383b601c836127e5565b915061384682613805565b602082019050919050565b6000602082019050818103600083015261386a8161382e565b9050919050565b7f52504d3a204d61726b6574206e6f74207265736f6c7661626c65000000000000600082015250565b60006138a7601a836127e5565b91506138b282613871565b602082019050919050565b600060208201905081810360008301526138d68161389a565b9050919050565b7f52504d3a204d61726b6574206e6f742065787069726564000000000000000000600082015250565b60006139136017836127e5565b915061391e826138dd565b602082019050919050565b6000602082019050818103600083015261394281613906565b9050919050565b600069ffffffffffffffffffff82169050919050565b61396881613949565b811461397357600080fd5b50565b6000815190506139858161395f565b92915050565b613994816128f0565b811461399f57600080fd5b50565b6000815190506139b18161398b565b92915050565b6000815190506139c68161250f565b92915050565b600080600080600060a086880312156139e8576139e76124fb565b5b60006139f688828901613976565b9550506020613a07888289016139a2565b9450506040613a18888289016139b7565b9350506060613a29888289016139b7565b9250506080613a3a88828901613976565b9150509295509295909350565b60008160e01c9050919050565b600060033d1115613a735760046000803e613a70600051613a47565b90505b90565b613a7f82612820565b810181811067ffffffffffffffff82111715613a9e57613a9d6130d6565b5b80604052505050565b600060443d10613b3457613ab96124f1565b60043d036004823e80513d602482011167ffffffffffffffff82111715613ae1575050613b34565b808201805167ffffffffffffffff811115613aff5750505050613b34565b80602083010160043d038501811115613b1c575050505050613b34565b613b2b82602001850186613a76565b82955050505050505b90565b600060ff82169050919050565b613b4d81613b37565b8114613b5857600080fd5b50565b600081519050613b6a81613b44565b92915050565b600060208284031215613b8657613b856124fb565b5b6000613b9484828501613b5b565b91505092915050565b7f52504d3a204665656420646563696d616c7320746f6f206c6f77000000000000600082015250565b6000613bd3601a836127e5565b9150613bde82613b9d565b602082019050919050565b60006020820190508181036000830152613c0281613bc6565b9050919050565b6000613c1482613b37565b9150613c1f83613b37565b9250828203905060ff811115613c3857613c37612fb4565b5b92915050565b60008160011c9050919050565b6000808291508390505b6001851115613c9557808604811115613c7157613c70612fb4565b5b6001851615613c805780820291505b8081029050613c8e85613c3e565b9450613c55565b94509492505050565b600082613cae5760019050613d6a565b81613cbc5760009050613d6a565b8160018114613cd25760028114613cdc57613d0b565b6001915050613d6a565b60ff841115613cee57613ced612fb4565b5b8360020a915084821115613d0557613d04612fb4565b5b50613d6a565b5060208310610133831016604e8410600b8410161715613d405782820a905083811115613d3b57613d3a612fb4565b5b613d6a565b613d4d8484846001613c4b565b92509050818404811115613d6457613d63612fb4565b5b81810290505b9392505050565b6000613d7c82612505565b9150613d8783613b37565b9250613db47fffffffffffffffffffffffffffffffffffffffffffffffffffffffffffffffff8484613c9e565b905092915050565b7f52504d3a2044697669736f72206973207a65726f000000000000000000000000600082015250565b6000613df26014836127e5565b9150613dfd82613dbc565b602082019050919050565b60006020820190508181036000830152613e2181613de5565b9050919050565b6000613e33826128f0565b9150613e3e836128f0565b925082613e4e57613e4d6136cd565b5b600160000383147f800000000000000000000000000000000000000000000000000000000000000083141615613e8757613e86612fb4565b5b828205905092915050565b7f50423a204d61726b657420646f6573206e6f7420657869737400000000000000600082015250565b6000613ec86019836127e5565b9150613ed382613e92565b602082019050919050565b60006020820190508181036000830152613ef781613ebb565b9050919050565b7f50423a204d61726b6574206e6f74206f70656e00000000000000000000000000600082015250565b6000613f346013836127e5565b9150613f3f82613efe565b602082019050919050565b60006020820190508181036000830152613f6381613f27565b9050919050565b7f50423a204d61726b657420657870697265640000000000000000000000000000600082015250565b6000613fa06012836127e5565b9150613fab82613f6a565b602082019050919050565b60006020820190508181036000830152613fcf81613f93565b9050919050565b7f50423a205374616b65206d75737420626520706f736974697665000000000000600082015250565b600061400c601a836127e5565b915061401782613fd6565b602082019050919050565b6000602082019050818103600083015261403b81613fff565b9050919050565b600061404d82612505565b915061405883612505565b92508282039050818111156140705761406f612fb4565b5b92915050565b7f50423a204e6574207374616b65206973207a65726f2061667465722066656500600082015250565b60006140ac601f836127e5565b91506140b782614076565b602082019050919050565b600060208201905081810360008301526140db8161409f565b9050919050565b60006080820190506140f76000830187612909565b61410460208301866125d9565b61411160408301856125d9565b61411e60608301846125d9565b95945050505050565b7f50464d573a20496e76616c6964206e6577206665652077616c6c657400000000600082015250565b600061415d601c836127e5565b915061416882614127565b602082019050919050565b6000602082019050818103600083015261418c81614150565b905091905056fea2646970667358221220d3f2396be6d19032571a804179ae94af68bbfa3212f1506f97352ce4ca975a5164736f6c63430008140033",
  "linkReferences": {},
  "deployedLinkReferences": {}
}