{
  "_format": "hh-sol-artifact-1",
  "contractName": "PredictionMarketP2P",
  "sourceName": "contracts/PredictionMarketP2P.sol",
  "abi": [
    {
      "inputs": [
        {
          "internalType": "address payable",
          "name": "_initialFeeWallet",
          "type": "address"
        },
        {
          "internalType": "uint16",
          "name": "_initialFeeBasisPoints",
          "type": "uint16"
        }
      ],
      "stateMutability": "nonpayable",
      "type": "constructor"
    },
    {
      "inputs": [
        {
          "internalType": "address",
          "name": "owner",
          "type": "address"
        }
      ],
      "name": "OwnableInvalidOwner",
      "type": "error"
    },
    {
      "inputs": [
        {
          "internalType": "address",
          "name": "account",
          "type": "address"
        }
      ],
      "name": "OwnableUnauthorizedAccount",
      "type": "error"
    },
    {
      "inputs": [],
      "name": "ReentrancyGuardReentrantCall",
      "type": "error"
    },
    {
      "anonymous": false,
      "inputs": [
        {
          "indexed": true,
          "internalType": "uint256",
          "name": "marketId",
          "type": "uint256"
        },
        {
          "indexed": true,
          "internalType": "address",
          "name": "bettor",
          "type": "address"
        },
        {
          "indexed": false,
          "internalType": "bool",
          "name": "predictedYes",
          "type": "bool"
        },
        {
          "indexed": false,
          "internalType": "uint256",
          "name": "grossAmount",
          "type": "uint256"
        },
        {
          "indexed": false,
          "internalType": "uint256",
          "name": "netAmountPooled",
          "type": "uint256"
        },
        {
          "indexed": false,
          "internalType": "uint256",
          "name": "feeAmount",
          "type": "uint256"
        }
      ],
      "name": "BetPlaced",
      "type": "event"
    },
    {
      "anonymous": false,
      "inputs": [
        {
          "indexed": true,
          "internalType": "uint256",
          "name": "marketId",
          "type": "uint256"
        },
        {
          "indexed": false,
          "internalType": "bool",
          "name": "conditionMetAndResolved",
          "type": "bool"
        },
        {
          "indexed": false,
          "internalType": "enum PredictionMarketP2P.MarketState",
          "name": "resultingState",
          "type": "uint8"
        },
        {
          "indexed": false,
          "internalType": "int256",
          "name": "oraclePriceObserved",
          "type": "int256"
        }
      ],
      "name": "EarlyResolutionAttempt",
      "type": "event"
    },
    {
      "anonymous": false,
      "inputs": [
        {
          "indexed": true,
          "internalType": "uint256",
          "name": "id",
          "type": "uint256"
        },
        {
          "indexed": false,
          "internalType": "string",
          "name": "assetSymbol",
          "type": "string"
        },
        {
          "indexed": false,
          "internalType": "address",
          "name": "priceFeedAddress",
          "type": "address"
        },
        {
          "indexed": false,
          "internalType": "uint256",
          "name": "targetPrice",
          "type": "uint256"
        },
        {
          "indexed": false,
          "internalType": "uint256",
          "name": "expiryTimestamp",
          "type": "uint256"
        },
        {
          "indexed": false,
          "internalType": "bool",
          "name": "isEventMarket",
          "type": "bool"
        },
        {
          "indexed": false,
          "internalType": "uint256",
          "name": "creationTimestamp",
          "type": "uint256"
        }
      ],
      "name": "MarketCreated",
      "type": "event"
    },
    {
      "anonymous": false,
      "inputs": [
        {
          "indexed": true,
          "internalType": "uint256",
          "name": "marketId",
          "type": "uint256"
        },
        {
          "indexed": false,
          "internalType": "enum PredictionMarketP2P.MarketState",
          "name": "outcomeState",
          "type": "uint8"
        },
        {
          "indexed": false,
          "internalType": "int256",
          "name": "actualValue",
          "type": "int256"
        }
      ],
      "name": "MarketResolved",
      "type": "event"
    },
    {
      "anonymous": false,
      "inputs": [
        {
          "indexed": true,
          "internalType": "address",
          "name": "previousOwner",
          "type": "address"
        },
        {
          "indexed": true,
          "internalType": "address",
          "name": "newOwner",
          "type": "address"
        }
      ],
      "name": "OwnershipTransferred",
      "type": "event"
    },
    {
      "anonymous": false,
      "inputs": [
        {
          "indexed": false,
          "internalType": "uint16",
          "name": "newFeeBasisPoints",
          "type": "uint16"
        }
      ],
      "name": "PlatformFeeSet",
      "type": "event"
    },
    {
      "anonymous": false,
      "inputs": [
        {
          "indexed": true,
          "internalType": "address",
          "name": "newWallet",
          "type": "address"
        }
      ],
      "name": "PlatformFeeWalletSet",
      "type": "event"
    },
    {
      "anonymous": false,
      "inputs": [
        {
          "indexed": true,
          "internalType": "uint256",
          "name": "marketId",
          "type": "uint256"
        },
        {
          "indexed": true,
          "internalType": "address",
          "name": "bettor",
          "type": "address"
        },
        {
          "indexed": false,
          "internalType": "uint256",
          "name": "payoutAmount",
          "type": "uint256"
        }
      ],
      "name": "WinningsClaimed",
      "type": "event"
    },
    {
      "inputs": [],
      "name": "MAX_ORACLE_STALENESS_FOR_EARLY_RESOLUTION",
      "outputs": [
        {
          "internalType": "uint256",
          "name": "",
          "type": "uint256"
        }
      ],
      "stateMutability": "view",
      "type": "function"
    },
    {
      "inputs": [],
      "name": "MAX_ORACLE_STALENESS_FOR_REGULAR_RESOLUTION",
      "outputs": [
        {
          "internalType": "uint256",
          "name": "",
          "type": "uint256"
        }
      ],
      "stateMutability": "view",
      "type": "function"
    },
    {
      "inputs": [
        {
          "internalType": "uint256",
          "name": "_marketId",
          "type": "uint256"
        }
      ],
      "name": "claimWinnings",
      "outputs": [],
      "stateMutability": "nonpayable",
      "type": "function"
    },
    {
      "inputs": [
        {
          "internalType": "string",
          "name": "_assetSymbol",
          "type": "string"
        },
        {
          "internalType": "address",
          "name": "_priceFeedAddress",
          "type": "address"
        },
        {
          "internalType": "uint256",
          "name": "_targetPrice",
          "type": "uint256"
        },
        {
          "internalType": "uint256",
          "name": "_expiryTimestamp",
          "type": "uint256"
        },
        {
          "internalType": "bool",
          "name": "_isEventMarket",
          "type": "bool"
        }
      ],
      "name": "createMarket",
      "outputs": [],
      "stateMutability": "nonpayable",
      "type": "function"
    },
    {
      "inputs": [
        {
          "internalType": "uint256",
          "name": "_marketId",
          "type": "uint256"
        },
        {
          "internalType": "address",
          "name": "_user",
          "type": "address"
        }
      ],
      "name": "didUserClaim",
      "outputs": [
        {
          "internalType": "bool",
          "name": "",
          "type": "bool"
        }
      ],
      "stateMutability": "view",
      "type": "function"
    },
    {
      "inputs": [
        {
          "internalType": "uint256",
          "name": "_marketId",
          "type": "uint256"
        },
        {
          "internalType": "address",
          "name": "_user",
          "type": "address"
        }
      ],
      "name": "getClaimableAmount",
      "outputs": [
        {
          "internalType": "uint256",
          "name": "",
          "type": "uint256"
        }
      ],
      "stateMutability": "view",
      "type": "function"
    },
    {
      "inputs": [
        {
          "internalType": "uint256",
          "name": "_marketId",
          "type": "uint256"
        }
      ],
      "name": "getMarketStaticDetails",
      "outputs": [
        {
          "internalType": "uint256",
          "name": "id",
          "type": "uint256"
        },
        {
          "internalType": "string",
          "name": "assetSymbol",
          "type": "string"
        },
        {
          "internalType": "address",
          "name": "priceFeedAddress",
          "type": "address"
        },
        {
          "internalType": "uint256",
          "name": "targetPrice",
          "type": "uint256"
        },
        {
          "internalType": "uint256",
          "name": "expiryTimestamp",
          "type": "uint256"
        },
        {
          "internalType": "uint256",
          "name": "resolutionTimestamp",
          "type": "uint256"
        },
        {
          "internalType": "uint256",
          "name": "totalStakedYes",
          "type": "uint256"
        },
        {
          "internalType": "uint256",
          "name": "totalStakedNo",
          "type": "uint256"
        },
        {
          "internalType": "enum PredictionMarketP2P.MarketState",
          "name": "state",
          "type": "uint8"
        },
        {
          "internalType": "int256",
          "name": "actualOutcomeValue",
          "type": "int256"
        },
        {
          "internalType": "bool",
          "name": "exists",
          "type": "bool"
        },
        {
          "internalType": "bool",
          "name": "isEventMarket",
          "type": "bool"
        },
        {
          "internalType": "uint256",
          "name": "creationTimestamp",
          "type": "uint256"
        }
      ],
      "stateMutability": "view",
      "type": "function"
    },
    {
      "inputs": [
        {
          "internalType": "uint256",
          "name": "_marketId",
          "type": "uint256"
        },
        {
          "internalType": "address",
          "name": "_user",
          "type": "address"
        }
      ],
      "name": "getUserStakeInMarket",
      "outputs": [
        {
          "internalType": "uint256",
          "name": "stakeYes",
          "type": "uint256"
        },
        {
          "internalType": "uint256",
          "name": "stakeNo",
          "type": "uint256"
        }
      ],
      "stateMutability": "view",
      "type": "function"
    },
    {
      "inputs": [
        {
          "internalType": "uint256",
          "name": "",
          "type": "uint256"
        }
      ],
      "name": "markets",
      "outputs": [
        {
          "internalType": "uint256",
          "name": "id",
          "type": "uint256"
        },
        {
          "internalType": "string",
          "name": "assetSymbol",
          "type": "string"
        },
        {
          "internalType": "contract AggregatorV3Interface",
          "name": "priceFeed",
          "type": "address"
        },
        {
          "internalType": "uint256",
          "name": "targetPrice",
          "type": "uint256"
        },
        {
          "internalType": "uint256",
          "name": "expiryTimestamp",
          "type": "uint256"
        },
        {
          "internalType": "uint256",
          "name": "resolutionTimestamp",
          "type": "uint256"
        },
        {
          "internalType": "uint256",
          "name": "creationTimestamp",
          "type": "uint256"
        },
        {
          "internalType": "bool",
          "name": "isEventMarket",
          "type": "bool"
        },
        {
          "internalType": "uint256",
          "name": "totalStakedYes",
          "type": "uint256"
        },
        {
          "internalType": "uint256",
          "name": "totalStakedNo",
          "type": "uint256"
        },
        {
          "internalType": "enum PredictionMarketP2P.MarketState",
          "name": "state",
          "type": "uint8"
        },
        {
          "internalType": "int256",
          "name": "actualOutcomeValue",
          "type": "int256"
        },
        {
          "internalType": "bool",
          "name": "exists",
          "type": "bool"
        }
      ],
      "stateMutability": "view",
      "type": "function"
    },
    {
      "inputs": [],
      "name": "nextMarketId",
      "outputs": [
        {
          "internalType": "uint256",
          "name": "",
          "type": "uint256"
        }
      ],
      "stateMutability": "view",
      "type": "function"
    },
    {
      "inputs": [],
      "name": "owner",
      "outputs": [
        {
          "internalType": "address",
          "name": "",
          "type": "address"
        }
      ],
      "stateMutability": "view",
      "type": "function"
    },
    {
      "inputs": [
        {
          "internalType": "uint256",
          "name": "_marketId",
          "type": "uint256"
        },
        {
          "internalType": "enum PredictionMarketP2P.MarketState",
          "name": "_outcomeState",
          "type": "uint8"
        }
      ],
      "name": "ownerResolveEventMarket",
      "outputs": [],
      "stateMutability": "nonpayable",
      "type": "function"
    },
    {
      "inputs": [
        {
          "internalType": "uint256",
          "name": "_marketId",
          "type": "uint256"
        },
        {
          "internalType": "bool",
          "name": "_predictYes",
          "type": "bool"
        }
      ],
      "name": "placeBet",
      "outputs": [],
      "stateMutability": "payable",
      "type": "function"
    },
    {
      "inputs": [],
      "name": "platformFeeBasisPoints",
      "outputs": [
        {
          "internalType": "uint16",
          "name": "",
          "type": "uint16"
        }
      ],
      "stateMutability": "view",
      "type": "function"
    },
    {
      "inputs": [],
      "name": "platformFeeWallet",
      "outputs": [
        {
          "internalType": "address payable",
          "name": "",
          "type": "address"
        }
      ],
      "stateMutability": "view",
      "type": "function"
    },
    {
      "inputs": [],
      "name": "renounceOwnership",
      "outputs": [],
      "stateMutability": "nonpayable",
      "type": "function"
    },
    {
      "inputs": [
        {
          "internalType": "uint256",
          "name": "_marketId",
          "type": "uint256"
        }
      ],
      "name": "resolvePriceFeedMarket",
      "outputs": [],
      "stateMutability": "nonpayable",
      "type": "function"
    },
    {
      "inputs": [
        {
          "internalType": "uint16",
          "name": "_newFeeBasisPoints",
          "type": "uint16"
        }
      ],
      "name": "setPlatformFee",
      "outputs": [],
      "stateMutability": "nonpayable",
      "type": "function"
    },
    {
      "inputs": [
        {
          "internalType": "address payable",
          "name": "_newWallet",
          "type": "address"
        }
      ],
      "name": "setPlatformFeeWallet",
      "outputs": [],
      "stateMutability": "nonpayable",
      "type": "function"
    },
    {
      "inputs": [
        {
          "internalType": "address",
          "name": "newOwner",
          "type": "address"
        }
      ],
      "name": "transferOwnership",
      "outputs": [],
      "stateMutability": "nonpayable",
      "type": "function"
    },
    {
      "inputs": [
        {
          "internalType": "uint256",
          "name": "_marketId",
          "type": "uint256"
        }
      ],
      "name": "triggerEarlyPriceResolution",
      "outputs": [],
      "stateMutability": "nonpayable",
      "type": "function"
    },
    {
      "inputs": [
        {
          "internalType": "address payable",
          "name": "_to",
          "type": "address"
        }
      ],
      "name": "withdrawStuckEther",
      "outputs": [],
      "stateMutability": "nonpayable",
      "type": "function"
    },
    {
      "stateMutability": "payable",
      "type": "receive"
    }
  ],
  "bytecode": "0x60803462000191576200247b90601f38839003908101601f19168201906001600160401b03821183831017620001965780839160409586948552833981010312620001915780516001600160a01b0391828216918290036200019157602001519161ffff8316908184036200019157331562000179576000543360018060a01b03198216176000558551913391167f8be0079c531659141344cd1fd0a4f28419497f9722a3daafe3b4186f6b6457e0600080a36001805582156200013757506103e810620000f3576004549161ffff60a01b9060a01b169160018060b01b0319161717600455516122ce9081620001ad8239f35b825162461bcd60e51b815260206004820152601a60248201527f50463a2046656520746f6f206869676820286d617820313025290000000000006044820152606490fd5b62461bcd60e51b815260206004820152601860248201527f50464d573a20496e76616c6964206665652077616c6c657400000000000000006044820152606490fd5b8451631e4fbdf760e01b815260006004820152602490fd5b600080fd5b634e487b7160e01b600052604160045260246000fdfe608080604052600436101561001d575b50361561001b57600080fd5b005b60003560e01c9081630e66535514611c44575080631c1695ba146119465780631f08db6f1461157e57806326a15bb31461145b57806326ccd77a1461138d578063406ef2ef1461136f578063460c69d1146113515780635cbc742c1461128d5780636312523714611270578063677bd9ff14610f89578063715018a614610f305780637416927914610ee057806378c5195e14610eb25780638da5cb5b14610e895780639a3a40d614610ab05780639ce2e9571461066e5780639ed9c74d1461039c578063b1283e77146102b1578063c58bfb661461028c578063d96d98ca146101da578063e20fc118146101b15763f2fde38b1461011c573861000f565b346101ac5760203660031901126101ac576004356001600160a01b03818116918290036101ac5761014b611e18565b811561019357600054826bffffffffffffffffffffffff60a01b821617600055167f8be0079c531659141344cd1fd0a4f28419497f9722a3daafe3b4186f6b6457e0600080a3005b604051631e4fbdf760e01b815260006004820152602490fd5b600080fd5b346101ac5760003660031901126101ac576004546040516001600160a01b039091168152602090f35b346101ac5760203660031901126101ac576004356001600160a01b038116908190036101ac57610208611e18565b801561024757600480546001600160a01b031916821790557ff978a64dbc8c08aca906161a3ab8416c1a9f02f2ed02bbe7156333a4cb8c0830600080a2005b60405162461bcd60e51b815260206004820152601c60248201527f50464d573a20496e76616c6964206e6577206665652077616c6c6574000000006044820152606490fd5b346101ac5760003660031901126101ac57602061ffff60045460a01c16604051908152f35b346101ac5760203660031901126101ac57600435600052600260205260406000208054600182016102e190611d72565b91600160a01b6001900360028201541690600381015490600481015460058201546006830154600784015460ff16600885015491600986015493600d87015460ff1695600e88015497600f015460ff16986040519c8d9c8d528c6101a06020819201528d0161034f91611cb3565b9a60408d015260608c015260808b015260a08a015260c0890152151560e0880152610100870152610120860152610140850161038a91611cf3565b61016084015215156101808301520390f35b60403660031901126101ac576024803580151591600435918381036101ac576103c3611ef8565b8260005260206002815260406000209260ff600f850154161561063a5760ff600d850154166007811015610625576105ec5760048401544210156105b45734156105795761271061041d61ffff60045460a01c1634611e78565b04936104298534611eab565b938415610540571561050e5760089033600052600a810184526040600020610452868254611e44565b905501610460848254611e44565b90555b836104ab575b506040519485523490850152604084015260608301527f1faf624c13819091a75aa5abee6c43a2226da9b9475e62bdfc87bef2889b509660803393a360018055005b60008080808760018060a01b03600454165af16104c6611eb8565b50610469579060176064926040519262461bcd60e51b845260048401528201527f50423a20466565207472616e73666572206661696c65640000000000000000006044820152fd5b60099033600052600b81018452604060002061052b868254611e44565b905501610539848254611e44565b9055610463565b60405162461bcd60e51b81526004810185905260128185015271050423a204e6574207374616b6520697320360741b6044820152606490fd5b9060156064926040519262461bcd60e51b8452600484015282015274050423a205374616b65206d757374206265203e203605c1b6044820152fd5b9060126064926040519262461bcd60e51b845260048401528201527114108e8813585c9ad95d08195e1c1a5c995960721b6044820152fd5b9060136064926040519262461bcd60e51b845260048401528201527228211d1026b0b935b2ba103737ba1027b832b760691b6044820152fd5b50634e487b7160e01b60009081526021600452fd5b90600e6064926040519262461bcd60e51b845260048401528201526d50423a204d61726b657420444e4560901b6044820152fd5b346101ac576020806003193601126101ac576004359061068c611ef8565b816000526002815260406000209060ff80600f8401541615610a785780600784015416610a3357600d830192818454166007811015610a1d57806109e057600482015442101561098c576000906106f66106e860018501611d72565b6106f0611f1b565b906121c8565b801561093c576002840154604051633fabe5a360e21b815292919060a090849060049082906001600160a01b03165afa80600094600092610904575b5061078757505050505050906107786060927f2929edc53d2ed82cd180164d5054425391e57c6a30f8697c43fc9ba573338edf9454166040519260008452830190611cf3565b60006040820152a25b60018055005b600686999497959896015481106108aa576107a56138409142611eab565b101561086557917f2929edc53d2ed82cd180164d5054425391e57c6a30f8697c43fc9ba573338edf97959391606097959361084e575b936107ff948697829761080a575b5050505416906040519415158552840190611cf3565b6040820152a2610781565b610816600e9285611e51565b42600582015501558860008051602061227983398151915260408484541661084082518092611cf3565b8887820152a2848a806107e9565b600387015485126107db57506001945060056107db565b60405162461bcd60e51b815260048101869052601b60248201527f544550523a204f7261636c65206461746120746f6f207374616c6500000000006044820152606490fd5b60405162461bcd60e51b815260048101879052602c60248201527f544550523a204f7261636c65206461746120746f6f206f6c6420287072652d6460448201526b61746573206d61726b65742960a01b6064820152608490fd5b909450610928915060a03d8111610935575b6109208183611d3a565b810190611f6c565b509592505093908b610732565b503d610916565b60405162461bcd60e51b815260048101879052602260248201527f544550523a204d61726b65742073796d626f6c206e6f7420636f6e6669677572604482015261195960f21b6064820152608490fd5b60405162461bcd60e51b815260048101859052602660248201527f544550523a2050617374206578706972792c2075736520726567756c6172207260448201526565736f6c766560d01b6064820152608490fd5b60405162461bcd60e51b81526004810185905260156024820152742a22a8291d1026b0b935b2ba103737ba1027b832b760591b6044820152606490fd5b634e487b7160e01b600052602160045260246000fd5b60405162461bcd60e51b815260048101839052601c60248201527f544550523a204f6e6c7920666f72207072696365206d61726b657473000000006044820152606490fd5b60405162461bcd60e51b815260048101839052601060248201526f544550523a204d61726b657420444e4560801b6044820152606490fd5b346101ac576020806003193601126101ac5760043590610ace611ef8565b816000526002815260406000209060ff600f8301541615610e535760ff600783015416610e1757600d8201805460ff8116600781101580610a1d57811580928115610e08575b5015610dce5760048601544210610d9657610a1d57610d87575b506002830154604051633fabe5a360e21b81529060a090829060049082906001600160a01b03165afa80600092600092610d5f575b50610c3c575050906001600060033d11610c2a575b6308c379a014610bdd575b610b92575b5050505060018055005b60008051602061227983398151915292604092610bad611eb8565b50600460ff198254161790556000199081600e82015560054291015582519160048352820152a280808080610b88565b610be5611fa1565b15610b8357506000600460ff1984541617835584600080516020612279833981519152604060001980600e8901554260058901558151906004825286820152a2610b83565b5060046000803e60005160e01c610b78565b610c4a620151809142611eab565b1015610d1a57600e840193818555426005820155610c6d6106e860018301611d72565b15610cc95760030154600080516020612279833981519152946040949093909260ff9213610cba57600282198254161781555b5416915490610cb184518094611cf3565b820152a2610781565b60038219825416178155610ca0565b60405162461bcd60e51b8152600481018590526024808201527f52504d3a20416d626967756f75732073796d626f6c20666f72207265736f6c756044820152633a34b7b760e11b6064820152608490fd5b60405162461bcd60e51b815260048101849052601a60248201527f52504d3a204f7261636c65206461746120746f6f207374616c650000000000006044820152606490fd5b909250610d7a915060a03d8111610935576109208183611d3a565b5093925050919087610b63565b60ff1916600117815584610b2e565b60405162461bcd60e51b815260048101869052601060248201526f1494134e88139bdd08195e1c1a5c995960821b6044820152606490fd5b60405162461bcd60e51b815260048101869052601260248201527152504d3a20496e76616c696420737461746560701b6044820152606490fd5b91505060016000911488610b14565b6064906040519062461bcd60e51b8252600482015260156024820152741494134e88139bdd081c1c9a58d9481b585c9ad95d605a1b6044820152fd5b6064906040519062461bcd60e51b82526004820152600f60248201526e52504d3a204d61726b657420444e4560881b6044820152fd5b346101ac5760003660031901126101ac576000546040516001600160a01b039091168152602090f35b346101ac5760403660031901126101ac576020610ed8610ed0611c9d565b600435612010565b604051908152f35b346101ac5760403660031901126101ac57610ef9611c9d565b6004356000526002602052600c6040600020019060018060a01b0316600052602052602060ff604060002054166040519015158152f35b346101ac5760003660031901126101ac57610f49611e18565b600080546001600160a01b0319811682556001600160a01b03167f8be0079c531659141344cd1fd0a4f28419497f9722a3daafe3b4186f6b6457e08280a3005b346101ac576020806003193601126101ac57600435610fa6611ef8565b806000526002825260406000209160ff600f840154161561123b57600c8301923360005283825260ff6040600020541661120057600033600052600a8201835260406000205490600b830184526040600020549260ff600d820154166007811015610a1d5760048103611101575050509061102091611e44565b925b83156110be573360005281526040600020600160ff19825416179055600080808086335af161104f611eb8565b5015611086577f5380cf6fe903b40c6d5a9e0dfbca2f3a423f0a21520b4d5947ed5169bdba946d906040519384523393a360018055005b6064906040519062461bcd60e51b82526004820152601160248201527010d5ce8814185e5bdd5d0819985a5b1959607a1b6044820152fd5b6064826040519062461bcd60e51b825280600483015260248201527f43573a204e6f2077696e6e696e6773206f7220696e76616c69642073746174656044820152fd5b60009794919392976002821480156111f3575b156111825750505080151580611175575b611131575b5050611022565b8091955094600981015480611147575b5061112a565b61116c93965090600861115d6111669385611e78565b91015490611e8b565b90611e44565b92848080611141565b5060088201541515611125565b90919250610a1d57600381149081156111e8575b506111a2575050611022565b801515806111db575b1561112a5780919550946008810154806111c5575061112a565b61116c93965090600961115d6111669385611e78565b50600982015415156111ab565b600691501487611196565b5050600060058214611114565b60405162461bcd60e51b815260048101839052601360248201527210d5ce88105b1c9958591e4818db185a5b5959606a1b6044820152606490fd5b6064906040519062461bcd60e51b82526004820152600e60248201526d43573a204d61726b657420444e4560901b6044820152fd5b346101ac5760003660031901126101ac5760206040516138408152f35b346101ac5760203660031901126101ac5760043561ffff8116908181036101ac576112b6611e18565b6103e8821161130c576004805461ffff60a01b191660a09290921b61ffff60a01b169190911790556040519081527f1426859b6b96e2e9ae302b23a42f763f4b0ae916a71a093e61c77120458b2e9590602090a1005b60405162461bcd60e51b815260206004820152601a60248201527f50463a2046656520746f6f206869676820286d617820313025290000000000006044820152606490fd5b346101ac5760003660031901126101ac576020604051620151808152f35b346101ac5760003660031901126101ac576020600354604051908152f35b346101ac5760203660031901126101ac576004356001600160a01b038116908190036101ac576113bb611e18565b801561141f574790816113ca57005b600080809381935af16113db611eb8565b50156113e357005b60405162461bcd60e51b815260206004820152601460248201527315d4d14e88151c985b9cd9995c8819985a5b195960621b6044820152606490fd5b60405162461bcd60e51b81526020600482015260146024820152735753453a20496e76616c6964206164647265737360601b6044820152606490fd5b346101ac5760203660031901126101ac576004356000526002602052604060002060ff600f820154161561154657805460018060a01b03600283015416600383015492600481015460058201546115266008840154600985015460ff600d8701541691600e8701549460ff600789015416966114de600160068b01549a01611d72565b9b6114fc6040519d8e9d8e528d6101a0908160208201520190611cb3565b9a60408d015260608c015260808b015260a08a015260c089015260e0880152610100870190611cf3565b610120850152600161014085015215156101608401526101808301520390f35b60405162461bcd60e51b815260206004820152601060248201526f474d53443a204d61726b657420444e4560801b6044820152606490fd5b346101ac5760a03660031901126101ac5767ffffffffffffffff80600435116101ac573660236004350112156101ac5760043560040135116101ac57366024600435600401356004350101116101ac576115d6611c9d565b6084359081151582036101ac576115eb611e18565b81156118f3575b61038442018042116118dd5760643511156118a2576003549081600052600260205260406000208281556116296001820154611d00565b601f811161184f575b50600093601f600435600401351160011461179f577fec86006df3e8f32dd47d3fe0c82d1c601f54bf982c1503b5d6e31bc215137aa093946000906004356004013561178f575b506004356004013560011b906000196004356004013560031b1c19161760018301555b801561176d575b60443591826003820155606435600482015560068101904282556001600f600783019260ff19938481541660ff88151516179055600d810184815416905501918254161790556116f4600354611e69565b60035554916040519360c085526004356004013560c08601526004356004013560246004350160e0870137600060e0600435600401358701015260018060a01b03166020850152604084015260643560608401521515608083015260a082015260e081601f19601f6004356004013501168101030190a2005b6002820180546001600160a01b0319166001600160a01b0385161790556116a3565b6024915060043501013586611679565b6001820160005260206000206000955b600480350135601f19168710611832579495507fec86006df3e8f32dd47d3fe0c82d1c601f54bf982c1503b5d6e31bc215137aa094600480350135601f1981161061180d575b5050600160043560040135811b01600183015561169c565b602460001960f86004356004013560031b161c199160043501013516905585806117f5565b9060206001819260248560043501013581550192019601956117af565b600182016000526020600020601f600435600401350160051c81016020600435600401351061189b575b601f830160051c8201811061188f575050611632565b60008155600101611879565b5080611879565b60405162461bcd60e51b815260206004820152601360248201527221a69d1022bc3834b93c903a37b79039b7b7b760691b6044820152606490fd5b634e487b7160e01b600052601160045260246000fd5b6001600160a01b0381166115f25760405162461bcd60e51b815260206004820152601760248201527f434d3a20507269636520666565642072657175697265640000000000000000006044820152606490fd5b346101ac5760403660031901126101ac57600435602480359060078210156101ac57611970611e18565b611978611ef8565b826000526020906002825260406000209260ff600f8501541615611c0d5760ff60078501541615611bd057600d84019160ff8354166007811015610625578015908115611bc5575b5015611b8b5760048501544210611b545760028214906000828015611b47575b818115611b37575b5015611af357611adf5760048314611a6d575b5060ff8383600e93611a20604098966000805160206122798339815191529a98611e51565b42600588015515611a4f57506001838601555b541692015490611a4584518094611cf3565b820152a260018055005b600303611a6157600083860155611a33565b60001985840155611a33565b6008860154158015611ad3575b6119fb578460296084926040519262461bcd60e51b845260048401528201527f4f52454d3a2043616e6e6f74205055534820776974682062657473206f6e20626044820152686f746820736964657360b81b6064820152fd5b50600986015415611a7a565b634e487b7160e01b60009081526021600452fd5b60405162461bcd60e51b815260048101879052601b818401527f4f52454d3a20496e76616c6964206f7574636f6d6520737461746500000000006044820152606490fd5b90506106255760048414816119e8565b50506000600384146119e0565b8360116064926040519262461bcd60e51b845260048401528201527013d491534e88139bdd08195e1c1a5c9959607a1b6044820152fd5b8360146064926040519262461bcd60e51b84526004840152820152734f52454d3a204e6f74207265736f6c7661626c6560601b6044820152fd5b6001915014876119c0565b60405162461bcd60e51b8152600481018490526016818401527513d491534e88139bdd08195d995b9d081b585c9ad95d60521b6044820152606490fd5b60405162461bcd60e51b8152600481018490526010818401526f4f52454d3a204d61726b657420444e4560801b6044820152606490fd5b346101ac5760403660031901126101ac57604090611c60611c9d565b6004356000526002602052826000209060018060a01b0316600052600a8101602052600b8360002054910160205282600020549082526020820152f35b602435906001600160a01b03821682036101ac57565b919082519283825260005b848110611cdf575050826000602080949584010152601f8019910116010190565b602081830181015184830182015201611cbe565b906007821015610a1d5752565b90600182811c92168015611d30575b6020831014611d1a57565b634e487b7160e01b600052602260045260246000fd5b91607f1691611d0f565b90601f8019910116810190811067ffffffffffffffff821117611d5c57604052565b634e487b7160e01b600052604160045260246000fd5b9060405191826000825492611d8684611d00565b908184526001948581169081600014611df55750600114611db2575b5050611db092500383611d3a565b565b9093915060005260209081600020936000915b818310611ddd575050611db093508201013880611da2565b85548884018501529485019487945091830191611dc5565b915050611db094506020925060ff191682840152151560051b8201013880611da2565b6000546001600160a01b03163303611e2c57565b60405163118cdaa760e01b8152336004820152602490fd5b919082018092116118dd57565b906007811015610a1d5760ff80198354169116179055565b60001981146118dd5760010190565b818102929181159184041417156118dd57565b8115611e95570490565b634e487b7160e01b600052601260045260246000fd5b919082039182116118dd57565b3d15611ef3573d9067ffffffffffffffff8211611d5c5760405191611ee7601f8201601f191660200184611d3a565b82523d6000602084013e565b606090565b600260015414611f09576002600155565b604051633ee5aeb560e01b8152600490fd5b604051906040820182811067ffffffffffffffff821117611d5c57604052600d82526c5f50524943455f41424f56455f60981b6020830152565b519069ffffffffffffffffffff821682036101ac57565b908160a09103126101ac57611f8081611f55565b91602082015191604081015191611f9e608060608401519301611f55565b90565b600060443d10611f9e57604051600319913d83016004833e815167ffffffffffffffff918282113d602484011117611fff57818401948551938411612007573d85010160208487010111611fff5750611f9e92910160200190611d3a565b949350505050565b50949350505050565b600090815260026020526040812060ff600f82015416158015612180575b61217a57819260018060a01b03168252600a8101602052604082205490600b810160205260408320549260ff600d8301541690600782101561215a576004820361207f57505050611f9e9250611e44565b8094929460028314801561216e575b156120e95750505050801515806120dc575b6120a957505090565b80919250916009810154806120bf575b50505090565b6120d4935090600861115d6111669385611e78565b3880806120b9565b50600882015415156120a0565b909192935061215a57506003811490811561214f575b5061210a575b505090565b80151580612142575b1561210557809192509160088101548061212d5750505090565b6120d4935090600961115d6111669385611e78565b5060098201541515612113565b6006915014386120ff565b634e487b7160e01b81526021600452602490fd5b5050806005831461208e565b50905090565b506001600160a01b0383168252600c8101602052604082205460ff1661202e565b9081518110156121b2570160200190565b634e487b7160e01b600052603260045260246000fd5b908051801561225757825110612271576000905b6121e98351825190611eab565b82116122695760019260005b825181101561225f576001600160f81b03198061221b6122158488611e44565b856121a1565b51169061222883866121a1565b51160361223d5761223890611e69565b6121f5565b5092509060005b6122575761225190611e69565b906121dc565b505050600190565b5092919091612244565b505050600090565b505060009056fe075615139ef09288348a86c4ccfdd482a2a472b9eabc311f28548d520e51aaf5a2646970667358221220425d326d6c12225c6a4a872056cfeb14929574e74416cba868a74ec92cf25aa664736f6c63430008140033",
  "linkReferences": {},
  "deployedLinkReferences": {}
}