{
  "_format": "hh-sol-artifact-1",
  "contractName": "PredictionMarketP2P",
  "sourceName": "contracts/PredictionMarketP2P.sol",
  "abi": [
    {
      "inputs": [
        {
          "internalType": "address payable",
          "name": "_initialFeeWallet",
          "type": "address"
        },
        {
          "internalType": "uint16",
          "name": "_initialFeeBasisPoints",
          "type": "uint16"
        }
      ],
      "stateMutability": "nonpayable",
      "type": "constructor"
    },
    {
      "inputs": [
        {
          "internalType": "address",
          "name": "owner",
          "type": "address"
        }
      ],
      "name": "OwnableInvalidOwner",
      "type": "error"
    },
    {
      "inputs": [
        {
          "internalType": "address",
          "name": "account",
          "type": "address"
        }
      ],
      "name": "OwnableUnauthorizedAccount",
      "type": "error"
    },
    {
      "inputs": [],
      "name": "ReentrancyGuardReentrantCall",
      "type": "error"
    },
    {
      "anonymous": false,
      "inputs": [
        {
          "indexed": true,
          "internalType": "uint256",
          "name": "marketId",
          "type": "uint256"
        },
        {
          "indexed": true,
          "internalType": "address",
          "name": "bettor",
          "type": "address"
        },
        {
          "indexed": false,
          "internalType": "bool",
          "name": "predictedYes",
          "type": "bool"
        },
        {
          "indexed": false,
          "internalType": "uint256",
          "name": "grossAmount",
          "type": "uint256"
        },
        {
          "indexed": false,
          "internalType": "uint256",
          "name": "netAmountPooled",
          "type": "uint256"
        },
        {
          "indexed": false,
          "internalType": "uint256",
          "name": "feeAmount",
          "type": "uint256"
        }
      ],
      "name": "BetPlaced",
      "type": "event"
    },
    {
      "anonymous": false,
      "inputs": [
        {
          "indexed": true,
          "internalType": "uint256",
          "name": "marketId",
          "type": "uint256"
        },
        {
          "indexed": false,
          "internalType": "bool",
          "name": "conditionMetAndResolved",
          "type": "bool"
        },
        {
          "indexed": false,
          "internalType": "enum PredictionMarketP2P.MarketState",
          "name": "resultingState",
          "type": "uint8"
        },
        {
          "indexed": false,
          "internalType": "int256",
          "name": "oraclePriceObserved",
          "type": "int256"
        }
      ],
      "name": "EarlyResolutionAttempt",
      "type": "event"
    },
    {
      "anonymous": false,
      "inputs": [
        {
          "indexed": true,
          "internalType": "uint256",
          "name": "id",
          "type": "uint256"
        },
        {
          "indexed": false,
          "internalType": "string",
          "name": "assetSymbol",
          "type": "string"
        },
        {
          "indexed": false,
          "internalType": "address",
          "name": "priceFeedAddress",
          "type": "address"
        },
        {
          "indexed": false,
          "internalType": "uint256",
          "name": "targetPrice",
          "type": "uint256"
        },
        {
          "indexed": false,
          "internalType": "uint256",
          "name": "expiryTimestamp",
          "type": "uint256"
        },
        {
          "indexed": false,
          "internalType": "bool",
          "name": "isEventMarket",
          "type": "bool"
        },
        {
          "indexed": false,
          "internalType": "uint256",
          "name": "creationTimestamp",
          "type": "uint256"
        }
      ],
      "name": "MarketCreated",
      "type": "event"
    },
    {
      "anonymous": false,
      "inputs": [
        {
          "indexed": true,
          "internalType": "uint256",
          "name": "marketId",
          "type": "uint256"
        },
        {
          "indexed": false,
          "internalType": "enum PredictionMarketP2P.MarketState",
          "name": "outcomeState",
          "type": "uint8"
        },
        {
          "indexed": false,
          "internalType": "int256",
          "name": "actualValue",
          "type": "int256"
        }
      ],
      "name": "MarketResolved",
      "type": "event"
    },
    {
      "anonymous": false,
      "inputs": [
        {
          "indexed": true,
          "internalType": "address",
          "name": "previousOwner",
          "type": "address"
        },
        {
          "indexed": true,
          "internalType": "address",
          "name": "newOwner",
          "type": "address"
        }
      ],
      "name": "OwnershipTransferred",
      "type": "event"
    },
    {
      "anonymous": false,
      "inputs": [
        {
          "indexed": false,
          "internalType": "uint16",
          "name": "newFeeBasisPoints",
          "type": "uint16"
        }
      ],
      "name": "PlatformFeeSet",
      "type": "event"
    },
    {
      "anonymous": false,
      "inputs": [
        {
          "indexed": true,
          "internalType": "address",
          "name": "newWallet",
          "type": "address"
        }
      ],
      "name": "PlatformFeeWalletSet",
      "type": "event"
    },
    {
      "anonymous": false,
      "inputs": [
        {
          "indexed": true,
          "internalType": "uint256",
          "name": "marketId",
          "type": "uint256"
        },
        {
          "indexed": true,
          "internalType": "address",
          "name": "bettor",
          "type": "address"
        },
        {
          "indexed": false,
          "internalType": "uint256",
          "name": "payoutAmount",
          "type": "uint256"
        }
      ],
      "name": "WinningsClaimed",
      "type": "event"
    },
    {
      "inputs": [],
      "name": "MAX_ORACLE_STALENESS_FOR_EARLY_RESOLUTION",
      "outputs": [
        {
          "internalType": "uint256",
          "name": "",
          "type": "uint256"
        }
      ],
      "stateMutability": "view",
      "type": "function"
    },
    {
      "inputs": [
        {
          "internalType": "uint256",
          "name": "_marketId",
          "type": "uint256"
        }
      ],
      "name": "claimWinnings",
      "outputs": [],
      "stateMutability": "nonpayable",
      "type": "function"
    },
    {
      "inputs": [
        {
          "internalType": "string",
          "name": "_assetSymbol",
          "type": "string"
        },
        {
          "internalType": "address",
          "name": "_priceFeedAddress",
          "type": "address"
        },
        {
          "internalType": "uint256",
          "name": "_targetPrice",
          "type": "uint256"
        },
        {
          "internalType": "uint256",
          "name": "_expiryTimestamp",
          "type": "uint256"
        },
        {
          "internalType": "bool",
          "name": "_isEventMarket",
          "type": "bool"
        }
      ],
      "name": "createMarket",
      "outputs": [],
      "stateMutability": "nonpayable",
      "type": "function"
    },
    {
      "inputs": [
        {
          "internalType": "uint256",
          "name": "_marketId",
          "type": "uint256"
        },
        {
          "internalType": "address",
          "name": "_user",
          "type": "address"
        }
      ],
      "name": "didUserClaim",
      "outputs": [
        {
          "internalType": "bool",
          "name": "",
          "type": "bool"
        }
      ],
      "stateMutability": "view",
      "type": "function"
    },
    {
      "inputs": [
        {
          "internalType": "uint256",
          "name": "_marketId",
          "type": "uint256"
        },
        {
          "internalType": "address",
          "name": "_user",
          "type": "address"
        }
      ],
      "name": "getClaimableAmount",
      "outputs": [
        {
          "internalType": "uint256",
          "name": "",
          "type": "uint256"
        }
      ],
      "stateMutability": "view",
      "type": "function"
    },
    {
      "inputs": [
        {
          "internalType": "uint256",
          "name": "_marketId",
          "type": "uint256"
        }
      ],
      "name": "getMarketStaticDetails",
      "outputs": [
        {
          "internalType": "uint256",
          "name": "id",
          "type": "uint256"
        },
        {
          "internalType": "string",
          "name": "assetSymbol",
          "type": "string"
        },
        {
          "internalType": "address",
          "name": "priceFeedAddress",
          "type": "address"
        },
        {
          "internalType": "uint256",
          "name": "targetPrice",
          "type": "uint256"
        },
        {
          "internalType": "uint256",
          "name": "expiryTimestamp",
          "type": "uint256"
        },
        {
          "internalType": "uint256",
          "name": "resolutionTimestamp",
          "type": "uint256"
        },
        {
          "internalType": "uint256",
          "name": "totalStakedYes",
          "type": "uint256"
        },
        {
          "internalType": "uint256",
          "name": "totalStakedNo",
          "type": "uint256"
        },
        {
          "internalType": "enum PredictionMarketP2P.MarketState",
          "name": "state",
          "type": "uint8"
        },
        {
          "internalType": "int256",
          "name": "actualOutcomeValue",
          "type": "int256"
        },
        {
          "internalType": "bool",
          "name": "exists",
          "type": "bool"
        },
        {
          "internalType": "bool",
          "name": "isEventMarket",
          "type": "bool"
        },
        {
          "internalType": "uint256",
          "name": "creationTimestamp",
          "type": "uint256"
        }
      ],
      "stateMutability": "view",
      "type": "function"
    },
    {
      "inputs": [
        {
          "internalType": "uint256",
          "name": "_marketId",
          "type": "uint256"
        },
        {
          "internalType": "address",
          "name": "_user",
          "type": "address"
        }
      ],
      "name": "getUserStakeInMarket",
      "outputs": [
        {
          "internalType": "uint256",
          "name": "stakeYes",
          "type": "uint256"
        },
        {
          "internalType": "uint256",
          "name": "stakeNo",
          "type": "uint256"
        }
      ],
      "stateMutability": "view",
      "type": "function"
    },
    {
      "inputs": [
        {
          "internalType": "uint256",
          "name": "",
          "type": "uint256"
        }
      ],
      "name": "markets",
      "outputs": [
        {
          "internalType": "uint256",
          "name": "id",
          "type": "uint256"
        },
        {
          "internalType": "string",
          "name": "assetSymbol",
          "type": "string"
        },
        {
          "internalType": "contract AggregatorV3Interface",
          "name": "priceFeed",
          "type": "address"
        },
        {
          "internalType": "uint256",
          "name": "targetPrice",
          "type": "uint256"
        },
        {
          "internalType": "uint256",
          "name": "expiryTimestamp",
          "type": "uint256"
        },
        {
          "internalType": "uint256",
          "name": "resolutionTimestamp",
          "type": "uint256"
        },
        {
          "internalType": "uint256",
          "name": "creationTimestamp",
          "type": "uint256"
        },
        {
          "internalType": "bool",
          "name": "isEventMarket",
          "type": "bool"
        },
        {
          "internalType": "uint256",
          "name": "totalStakedYes",
          "type": "uint256"
        },
        {
          "internalType": "uint256",
          "name": "totalStakedNo",
          "type": "uint256"
        },
        {
          "internalType": "enum PredictionMarketP2P.MarketState",
          "name": "state",
          "type": "uint8"
        },
        {
          "internalType": "int256",
          "name": "actualOutcomeValue",
          "type": "int256"
        },
        {
          "internalType": "bool",
          "name": "exists",
          "type": "bool"
        }
      ],
      "stateMutability": "view",
      "type": "function"
    },
    {
      "inputs": [],
      "name": "nextMarketId",
      "outputs": [
        {
          "internalType": "uint256",
          "name": "",
          "type": "uint256"
        }
      ],
      "stateMutability": "view",
      "type": "function"
    },
    {
      "inputs": [],
      "name": "owner",
      "outputs": [
        {
          "internalType": "address",
          "name": "",
          "type": "address"
        }
      ],
      "stateMutability": "view",
      "type": "function"
    },
    {
      "inputs": [
        {
          "internalType": "uint256",
          "name": "_marketId",
          "type": "uint256"
        },
        {
          "internalType": "enum PredictionMarketP2P.MarketState",
          "name": "_outcomeState",
          "type": "uint8"
        }
      ],
      "name": "ownerResolveEventMarket",
      "outputs": [],
      "stateMutability": "nonpayable",
      "type": "function"
    },
    {
      "inputs": [
        {
          "internalType": "uint256",
          "name": "_marketId",
          "type": "uint256"
        },
        {
          "internalType": "bool",
          "name": "_predictYes",
          "type": "bool"
        }
      ],
      "name": "placeBet",
      "outputs": [],
      "stateMutability": "payable",
      "type": "function"
    },
    {
      "inputs": [],
      "name": "platformFeeBasisPoints",
      "outputs": [
        {
          "internalType": "uint16",
          "name": "",
          "type": "uint16"
        }
      ],
      "stateMutability": "view",
      "type": "function"
    },
    {
      "inputs": [],
      "name": "platformFeeWallet",
      "outputs": [
        {
          "internalType": "address payable",
          "name": "",
          "type": "address"
        }
      ],
      "stateMutability": "view",
      "type": "function"
    },
    {
      "inputs": [],
      "name": "renounceOwnership",
      "outputs": [],
      "stateMutability": "nonpayable",
      "type": "function"
    },
    {
      "inputs": [
        {
          "internalType": "uint256",
          "name": "_marketId",
          "type": "uint256"
        }
      ],
      "name": "resolvePriceFeedMarket",
      "outputs": [],
      "stateMutability": "nonpayable",
      "type": "function"
    },
    {
      "inputs": [
        {
          "internalType": "uint16",
          "name": "_newFeeBasisPoints",
          "type": "uint16"
        }
      ],
      "name": "setPlatformFee",
      "outputs": [],
      "stateMutability": "nonpayable",
      "type": "function"
    },
    {
      "inputs": [
        {
          "internalType": "address payable",
          "name": "_newWallet",
          "type": "address"
        }
      ],
      "name": "setPlatformFeeWallet",
      "outputs": [],
      "stateMutability": "nonpayable",
      "type": "function"
    },
    {
      "inputs": [
        {
          "internalType": "address",
          "name": "newOwner",
          "type": "address"
        }
      ],
      "name": "transferOwnership",
      "outputs": [],
      "stateMutability": "nonpayable",
      "type": "function"
    },
    {
      "inputs": [
        {
          "internalType": "uint256",
          "name": "_marketId",
          "type": "uint256"
        }
      ],
      "name": "triggerEarlyPriceResolution",
      "outputs": [],
      "stateMutability": "nonpayable",
      "type": "function"
    },
    {
      "inputs": [
        {
          "internalType": "address payable",
          "name": "_to",
          "type": "address"
        }
      ],
      "name": "withdrawStuckEther",
      "outputs": [],
      "stateMutability": "nonpayable",
      "type": "function"
    },
    {
      "stateMutability": "payable",
      "type": "receive"
    }
  ],
  "bytecode": "0x60803462000191576200255190601f38839003908101601f19168201906001600160401b03821183831017620001965780839160409586948552833981010312620001915780516001600160a01b0391828216918290036200019157602001519161ffff8316908184036200019157331562000179576000543360018060a01b03198216176000558551913391167f8be0079c531659141344cd1fd0a4f28419497f9722a3daafe3b4186f6b6457e0600080a36001805582156200013757506103e810620000f3576004549161ffff60a01b9060a01b169160018060b01b0319161717600455516123a49081620001ad8239f35b825162461bcd60e51b815260206004820152601a60248201527f50463a2046656520746f6f206869676820286d617820313025290000000000006044820152606490fd5b62461bcd60e51b815260206004820152601860248201527f50464d573a20496e76616c6964206665652077616c6c657400000000000000006044820152606490fd5b8451631e4fbdf760e01b815260006004820152602490fd5b600080fd5b634e487b7160e01b600052604160045260246000fdfe608080604052600436101561001d575b50361561001b57600080fd5b005b60003560e01c9081630e66535514611d1a575080631c1695ba14611a515780631f08db6f1461166a57806326a15bb31461153a57806326ccd77a1461146c578063406ef2ef1461144e5780635cbc742c1461138a578063631252371461136d578063677bd9ff1461104d578063715018a614610ff45780637416927914610fa457806378c5195e14610f765780638da5cb5b14610f4d5780639a3a40d614610b565780639ce2e957146106be5780639ed9c74d14610391578063b1283e77146102a6578063c58bfb6614610281578063d96d98ca146101cf578063e20fc118146101a65763f2fde38b14610111573861000f565b346101a15760203660031901126101a1576004356001600160a01b03818116918290036101a157610140611eee565b811561018857600054826bffffffffffffffffffffffff60a01b821617600055167f8be0079c531659141344cd1fd0a4f28419497f9722a3daafe3b4186f6b6457e0600080a3005b604051631e4fbdf760e01b815260006004820152602490fd5b600080fd5b346101a15760003660031901126101a1576004546040516001600160a01b039091168152602090f35b346101a15760203660031901126101a1576004356001600160a01b038116908190036101a1576101fd611eee565b801561023c57600480546001600160a01b031916821790557ff978a64dbc8c08aca906161a3ab8416c1a9f02f2ed02bbe7156333a4cb8c0830600080a2005b60405162461bcd60e51b815260206004820152601c60248201527f50464d573a20496e76616c6964206e6577206665652077616c6c6574000000006044820152606490fd5b346101a15760003660031901126101a157602061ffff60045460a01c16604051908152f35b346101a15760203660031901126101a157600435600052600260205260406000208054600182016102d690611e48565b91600160a01b6001900360028201541690600381015490600481015460058201546006830154600784015460ff16600885015491600986015493600d87015460ff1695600e88015497600f015460ff16986040519c8d9c8d528c6101a06020819201528d0161034491611d89565b9a60408d015260608c015260808b015260a08a015260c0890152151560e0880152610100870152610120860152610140850161037f91611dc9565b61016084015215156101808301520390f35b60403660031901126101a1576024803580151591600435918381036101a1576103b8611fce565b8260005260206002815260406000209260ff600f850154161561067b5760ff600d850154166007811015610666576106135760048401544210156105bc5734156105795761271061041261ffff60045460a01c1634611f4e565b049361041e8534611f81565b93841561053557156105035760089033600052600a810184526040600020610447868254611f1a565b905501610455848254611f1a565b90555b836104a0575b506040519485523490850152604084015260608301527f1faf624c13819091a75aa5abee6c43a2226da9b9475e62bdfc87bef2889b509660803393a360018055005b60008080808760018060a01b03600454165af16104bb611f8e565b5061045e579060176064926040519262461bcd60e51b845260048401528201527f50423a20466565207472616e73666572206661696c65640000000000000000006044820152fd5b60099033600052600b810184526040600020610520868254611f1a565b90550161052e848254611f1a565b9055610458565b60405162461bcd60e51b815260048101859052601f818501527f50423a204e6574207374616b65206973207a65726f20616674657220666565006044820152606490fd5b90601a6064926040519262461bcd60e51b845260048401528201527f50423a205374616b65206d75737420626520706f7369746976650000000000006044820152fd5b90602b6084926040519262461bcd60e51b845260048401528201527f50423a204d61726b65742070617374206f726967696e616c206578706972792060448201526a666f722062657474696e6760a81b6064820152fd5b9060276084926040519262461bcd60e51b845260048401528201527f50423a204d61726b6574206e6f74206f70656e206f7220616c72656164792072604482015266195cdbdb1d995960ca1b6064820152fd5b50634e487b7160e01b60009081526021600452fd5b9060196064926040519262461bcd60e51b845260048401528201527f50423a204d61726b657420646f6573206e6f74206578697374000000000000006044820152fd5b346101a1576020806003193601126101a157600435906106dc611fce565b816000526002815260406000209060ff80600f8401541615610b115780600784015416610ac257600d830192818454166007811015610aac5780610a67576004820154421015610a035760009061074661073860018501611e48565b610740611ff1565b9061229e565b801561098c576002840154604051633fabe5a360e21b815292919060a090849060049082906001600160a01b03165afa80600094600092610954575b506107d757505050505050906107c86060927f2929edc53d2ed82cd180164d5054425391e57c6a30f8697c43fc9ba573338edf9454166040519260008452830190611dc9565b60006040820152a25b60018055005b600686999497959896015481106108fa576107f56138409142611f81565b10156108b557917f2929edc53d2ed82cd180164d5054425391e57c6a30f8697c43fc9ba573338edf97959391606097959361089e575b9361084f948697829761085a575b5050505416906040519415158552840190611dc9565b6040820152a26107d1565b610866600e9285611f27565b42600582015501558860008051602061234f83398151915260408484541661089082518092611dc9565b8887820152a2848a80610839565b6003870154851261082b575060019450600561082b565b60405162461bcd60e51b815260048101869052601b60248201527f544550523a204f7261636c65206461746120746f6f207374616c6500000000006044820152606490fd5b60405162461bcd60e51b815260048101879052602c60248201527f544550523a204f7261636c652064617461206f6c646572207468616e206d617260448201526b35b2ba1031b932b0ba34b7b760a11b6064820152608490fd5b909450610978915060a03d8111610985575b6109708183611e10565b810190612042565b509592505093908b610782565b503d610966565b60405162461bcd60e51b815260048101879052604360248201527f544550523a204d61726b65742073796d626f6c206e6f7420636f6e666967757260448201527f656420666f72206561726c79207072696365207265736f6c7574696f6e206c6f60648201526267696360e81b608482015260a490fd5b60405162461bcd60e51b815260048101859052603660248201527f544550523a204d61726b65742070617374206f726967696e616c206578706972604482015275792c2075736520726567756c6172207265736f6c766560501b6064820152608490fd5b60405162461bcd60e51b815260048101859052601e60248201527f544550523a204d61726b6574206e6f7420696e204f70656e20737461746500006044820152606490fd5b634e487b7160e01b600052602160045260246000fd5b60405162461bcd60e51b815260048101839052602160248201527f544550523a204f6e6c7920666f722070726963652066656564206d61726b65746044820152607360f81b6064820152608490fd5b60405162461bcd60e51b815260048101839052601b60248201527f544550523a204d61726b657420646f6573206e6f7420657869737400000000006044820152606490fd5b346101a1576020806003193601126101a15760043590610b74611fce565b816000526002815260406000209060ff600f8301541615610f095760ff600783015416610ec557600d8201805460ff8116600781101580610aac57811580928115610eb6575b5015610e535760048601544210610e0e57610aac57610dff575b506002830154604051633fabe5a360e21b81529060a090829060049082906001600160a01b03165afa60009181610dda575b50610cfd5750906001600060033d11610ceb575b6308c379a014610c8e575b610c34575b5050505060018055005b60008051602061234f83398151915292604092610c4f611f8e565b50600460ff1982541617905560056000199182600e82015501805415610c85575b5082519160048352820152a280808080610c2a565b42905585610c70565b610c96612077565b15610c2557506000600460ff198454161783558460008051602061234f833981519152604060001980600e89015560058801805415610ce2575b508151906004825286820152a2610c25565b42905589610cd0565b5060046000803e60005160e01c610c1a565b600e840193818555426005820155610d1a61073860018301611e48565b15610d76576003015460008051602061234f833981519152946040949093909260ff9213610d6757600282198254161781555b5416915490610d5e84518094611dc9565b820152a26107d1565b60038219825416178155610d4d565b60405162461bcd60e51b815260048101859052603660248201527f52504d3a20416d626967756f7573206d61726b65742073796d626f6c20666f7260448201527510383934b1b2903332b2b2103932b9b7b63aba34b7b760511b6064820152608490fd5b610df391925060a03d8111610985576109708183611e10565b50505090509086610c06565b60ff1916600117815584610bd4565b60405162461bcd60e51b815260048101869052601760248201527f52504d3a204d61726b6574206e6f7420657870697265640000000000000000006044820152606490fd5b60405162461bcd60e51b815260048101869052603560248201527f52504d3a204d61726b6574206e6f7420696e2076616c6964207374617465206660448201527437b9103932b3bab630b9103932b9b7b63aba34b7b760591b6064820152608490fd5b91505060016000911488610bba565b6064906040519062461bcd60e51b82526004820152601c60248201527f52504d3a204e6f7420612070726963652066656564206d61726b6574000000006044820152fd5b6064906040519062461bcd60e51b82526004820152601a60248201527f52504d3a204d61726b657420646f6573206e6f742065786973740000000000006044820152fd5b346101a15760003660031901126101a1576000546040516001600160a01b039091168152602090f35b346101a15760403660031901126101a1576020610f9c610f94611d73565b6004356120e6565b604051908152f35b346101a15760403660031901126101a157610fbd611d73565b6004356000526002602052600c6040600020019060018060a01b0316600052602052602060ff604060002054166040519015158152f35b346101a15760003660031901126101a15761100d611eee565b600080546001600160a01b0319811682556001600160a01b03167f8be0079c531659141344cd1fd0a4f28419497f9722a3daafe3b4186f6b6457e08280a3005b346101a1576020806003193601126101a15760043561106a611fce565b806000526002825260406000209160ff600f840154161561132957600c8301923360005283825260ff604060002054166112e457600033600052600a8201835260406000205490600b830184526040600020549260ff600d820154166007811015610aac57600481036111e557505050906110e491611f1a565b925b831561118e573360005281526040600020600160ff19825416179055600080808086335af1611113611f8e565b501561114a577f5380cf6fe903b40c6d5a9e0dfbca2f3a423f0a21520b4d5947ed5169bdba946d906040519384523393a360018055005b6064906040519062461bcd60e51b82526004820152601a60248201527f43573a205061796f7574207472616e73666572206661696c65640000000000006044820152fd5b60405162461bcd60e51b815260048101839052602960248201527f43573a204e6f2077696e6e696e677320746f20636c61696d206f7220696e76616044820152686c696420737461746560b81b6064820152608490fd5b60009794919392976002821480156112d7575b156112665750505080151580611259575b611215575b50506110e6565b809195509460098101548061122b575b5061120e565b61125093965090600861124161124a9385611f4e565b91015490611f61565b90611f1a565b92848080611225565b5060088201541515611209565b90919250610aac57600381149081156112cc575b506112865750506110e6565b801515806112bf575b1561120e5780919550946008810154806112a9575061120e565b61125093965090600961124161124a9385611f4e565b506009820154151561128f565b60069150148761127a565b50506000600582146111f8565b60405162461bcd60e51b815260048101839052601c60248201527f43573a2057696e6e696e677320616c726561647920636c61696d6564000000006044820152606490fd5b6064906040519062461bcd60e51b82526004820152601960248201527f43573a204d61726b657420646f6573206e6f74206578697374000000000000006044820152fd5b346101a15760003660031901126101a15760206040516138408152f35b346101a15760203660031901126101a15760043561ffff8116908181036101a1576113b3611eee565b6103e88211611409576004805461ffff60a01b191660a09290921b61ffff60a01b169190911790556040519081527f1426859b6b96e2e9ae302b23a42f763f4b0ae916a71a093e61c77120458b2e9590602090a1005b60405162461bcd60e51b815260206004820152601a60248201527f50463a2046656520746f6f206869676820286d617820313025290000000000006044820152606490fd5b346101a15760003660031901126101a1576020600354604051908152f35b346101a15760203660031901126101a1576004356001600160a01b038116908190036101a15761149a611eee565b80156114fe574790816114a957005b600080809381935af16114ba611f8e565b50156114c257005b60405162461bcd60e51b815260206004820152601460248201527315d4d14e88151c985b9cd9995c8819985a5b195960621b6044820152606490fd5b60405162461bcd60e51b81526020600482015260146024820152735753453a20496e76616c6964206164647265737360601b6044820152606490fd5b346101a15760203660031901126101a1576004356000526002602052604060002060ff600f820154161561162557805460018060a01b03600283015416600383015492600481015460058201546116056008840154600985015460ff600d8701541691600e8701549460ff600789015416966115bd600160068b01549a01611e48565b9b6115db6040519d8e9d8e528d6101a0908160208201520190611d89565b9a60408d015260608c015260808b015260a08a015260c089015260e0880152610100870190611dc9565b610120850152600161014085015215156101608401526101808301520390f35b60405162461bcd60e51b815260206004820152601b60248201527f474d53443a204d61726b657420646f6573206e6f7420657869737400000000006044820152606490fd5b346101a15760a03660031901126101a15767ffffffffffffffff80600435116101a1573660236004350112156101a15760043560040135116101a157366024600435600401356004350101116101a1576116c2611d73565b6084359081151582036101a1576116d7611eee565b81156119e9575b61038442018042116119d357606435111561198e576003549081600052600260205260406000208281556117156001820154611dd6565b601f811161193b575b50600093601f600435600401351160011461188b577fec86006df3e8f32dd47d3fe0c82d1c601f54bf982c1503b5d6e31bc215137aa093946000906004356004013561187b575b506004356004013560011b906000196004356004013560031b1c19161760018301555b8015611859575b60443591826003820155606435600482015560068101904282556001600f600783019260ff19938481541660ff88151516179055600d810184815416905501918254161790556117e0600354611f3f565b60035554916040519360c085526004356004013560c08601526004356004013560246004350160e0870137600060e0600435600401358701015260018060a01b03166020850152604084015260643560608401521515608083015260a082015260e081601f19601f6004356004013501168101030190a2005b6002820180546001600160a01b0319166001600160a01b03851617905561178f565b6024915060043501013586611765565b6001820160005260206000206000955b600480350135601f1916871061191e579495507fec86006df3e8f32dd47d3fe0c82d1c601f54bf982c1503b5d6e31bc215137aa094600480350135601f198116106118f9575b5050600160043560040135811b016001830155611788565b602460001960f86004356004013560031b161c199160043501013516905585806118e1565b90602060018192602485600435010135815501920196019561189b565b600182016000526020600020601f600435600401350160051c810160206004356004013510611987575b601f830160051c8201811061197b57505061171e565b60008155600101611965565b5080611965565b60405162461bcd60e51b815260206004820152601d60248201527f434d3a2045787069727920746f6f20736f6f6e20286d696e2031356d290000006044820152606490fd5b634e487b7160e01b600052601160045260246000fd5b6001600160a01b0381166116de5760405162461bcd60e51b815260206004820152602c60248201527f434d3a205072696365206665656420726571756972656420666f72206e6f6e2d60448201526b195d995b9d081b585c9ad95d60a21b6064820152608490fd5b346101a15760403660031901126101a157600435602480359060078210156101a157611a7b611eee565b611a83611fce565b826000526020906002825260406000209260ff600f8501541615611cd65760ff60078501541615611c9257600d84019160ff8354166007811015610666578015908115611c87575b5015611c445760048501544210611c015760028214906000828015611bf4575b818115611be4575b5015611b8557611b038486611f27565b426005880155611b71575060ff60008051602061234f833981519152959360409593600e93600014611b5357506001838601555b541692015490611b4984518094611dc9565b820152a260018055005b600303611b6557600083860155611b37565b60001985840155611b37565b634e487b7160e01b60009081526021600452fd5b60405162461bcd60e51b8152600481018790526032818401527f4f52454d3a20496e76616c69642066696e616c206f7574636f6d6520737461746044820152711948199bdc88195d995b9d081b585c9ad95d60721b6064820152608490fd5b9050610666576004841481611af3565b5050600060038414611aeb565b8360186064926040519262461bcd60e51b845260048401528201527f4f52454d3a204d61726b6574206e6f74206578706972656400000000000000006044820152fd5b83601b6064926040519262461bcd60e51b845260048401528201527f4f52454d3a204d61726b6574206e6f74207265736f6c7661626c6500000000006044820152fd5b600191501487611acb565b60405162461bcd60e51b8152600481018490526019818401527f4f52454d3a204e6f7420616e206576656e74206d61726b6574000000000000006044820152606490fd5b60405162461bcd60e51b815260048101849052601b818401527f4f52454d3a204d61726b657420646f6573206e6f7420657869737400000000006044820152606490fd5b346101a15760403660031901126101a157604090611d36611d73565b6004356000526002602052826000209060018060a01b0316600052600a8101602052600b8360002054910160205282600020549082526020820152f35b602435906001600160a01b03821682036101a157565b919082519283825260005b848110611db5575050826000602080949584010152601f8019910116010190565b602081830181015184830182015201611d94565b906007821015610aac5752565b90600182811c92168015611e06575b6020831014611df057565b634e487b7160e01b600052602260045260246000fd5b91607f1691611de5565b90601f8019910116810190811067ffffffffffffffff821117611e3257604052565b634e487b7160e01b600052604160045260246000fd5b9060405191826000825492611e5c84611dd6565b908184526001948581169081600014611ecb5750600114611e88575b5050611e8692500383611e10565b565b9093915060005260209081600020936000915b818310611eb3575050611e8693508201013880611e78565b85548884018501529485019487945091830191611e9b565b915050611e8694506020925060ff191682840152151560051b8201013880611e78565b6000546001600160a01b03163303611f0257565b60405163118cdaa760e01b8152336004820152602490fd5b919082018092116119d357565b906007811015610aac5760ff80198354169116179055565b60001981146119d35760010190565b818102929181159184041417156119d357565b8115611f6b570490565b634e487b7160e01b600052601260045260246000fd5b919082039182116119d357565b3d15611fc9573d9067ffffffffffffffff8211611e325760405191611fbd601f8201601f191660200184611e10565b82523d6000602084013e565b606090565b600260015414611fdf576002600155565b604051633ee5aeb560e01b8152600490fd5b604051906040820182811067ffffffffffffffff821117611e3257604052600d82526c5f50524943455f41424f56455f60981b6020830152565b519069ffffffffffffffffffff821682036101a157565b908160a09103126101a1576120568161202b565b9160208201519160408101519161207460806060840151930161202b565b90565b600060443d1061207457604051600319913d83016004833e815167ffffffffffffffff918282113d6024840111176120d5578184019485519384116120dd573d850101602084870101116120d5575061207492910160200190611e10565b949350505050565b50949350505050565b600090815260026020526040812060ff600f82015416158015612256575b61225057819260018060a01b03168252600a8101602052604082205490600b810160205260408320549260ff600d830154169060078210156122305760048203612155575050506120749250611f1a565b80949294600283148015612244575b156121bf5750505050801515806121b2575b61217f57505090565b8091925091600981015480612195575b50505090565b6121aa935090600861124161124a9385611f4e565b38808061218f565b5060088201541515612176565b9091929350612230575060038114908115612225575b506121e0575b505090565b80151580612218575b156121db5780919250916008810154806122035750505090565b6121aa935090600961124161124a9385611f4e565b50600982015415156121e9565b6006915014386121d5565b634e487b7160e01b81526021600452602490fd5b50508060058314612164565b50905090565b506001600160a01b0383168252600c8101602052604082205460ff16612104565b908151811015612288570160200190565b634e487b7160e01b600052603260045260246000fd5b908051801561232d57825110612347576000905b6122bf8351825190611f81565b821161233f5760019260005b8251811015612335576001600160f81b0319806122f16122eb8488611f1a565b85612277565b5116906122fe8386612277565b5116036123135761230e90611f3f565b6122cb565b5092509060005b61232d5761232790611f3f565b906122b2565b505050600190565b509291909161231a565b505050600090565b505060009056fe075615139ef09288348a86c4ccfdd482a2a472b9eabc311f28548d520e51aaf5a2646970667358221220c337a8abbe31454eec62938038d2cf930332b3f267c4b280de1fc78b27f0203b64736f6c63430008140033",
  "linkReferences": {},
  "deployedLinkReferences": {}
}