{
  "_format": "hh-sol-artifact-1",
  "contractName": "PredictionMarketP2P",
  "sourceName": "contracts/PredictionMarketP2P.sol",
  "abi": [
    {
      "inputs": [
        {
          "internalType": "address payable",
          "name": "_initialPlatformFeeWallet",
          "type": "address"
        },
        {
          "internalType": "uint16",
          "name": "_initialPlatformFeeBP",
          "type": "uint16"
        },
        {
          "internalType": "uint256",
          "name": "_initialMarketCreationListingFee",
          "type": "uint256"
        }
      ],
      "stateMutability": "nonpayable",
      "type": "constructor"
    },
    {
      "inputs": [
        {
          "internalType": "address",
          "name": "owner",
          "type": "address"
        }
      ],
      "name": "OwnableInvalidOwner",
      "type": "error"
    },
    {
      "inputs": [
        {
          "internalType": "address",
          "name": "account",
          "type": "address"
        }
      ],
      "name": "OwnableUnauthorizedAccount",
      "type": "error"
    },
    {
      "inputs": [],
      "name": "ReentrancyGuardReentrantCall",
      "type": "error"
    },
    {
      "anonymous": false,
      "inputs": [
        {
          "indexed": true,
          "internalType": "uint256",
          "name": "marketId",
          "type": "uint256"
        },
        {
          "indexed": true,
          "internalType": "address",
          "name": "bettor",
          "type": "address"
        },
        {
          "indexed": false,
          "internalType": "bool",
          "name": "predictedYes",
          "type": "bool"
        },
        {
          "indexed": false,
          "internalType": "uint256",
          "name": "grossAmount",
          "type": "uint256"
        },
        {
          "indexed": false,
          "internalType": "uint256",
          "name": "netAmountPooled",
          "type": "uint256"
        },
        {
          "indexed": false,
          "internalType": "uint256",
          "name": "feeAmount",
          "type": "uint256"
        }
      ],
      "name": "BetPlaced",
      "type": "event"
    },
    {
      "anonymous": false,
      "inputs": [
        {
          "indexed": true,
          "internalType": "uint256",
          "name": "marketId",
          "type": "uint256"
        },
        {
          "indexed": false,
          "internalType": "bool",
          "name": "conditionMetAndResolved",
          "type": "bool"
        },
        {
          "indexed": false,
          "internalType": "enum PredictionMarketP2P.MarketState",
          "name": "resultingState",
          "type": "uint8"
        },
        {
          "indexed": false,
          "internalType": "int256",
          "name": "oraclePriceObserved",
          "type": "int256"
        }
      ],
      "name": "EarlyResolutionAttempt",
      "type": "event"
    },
    {
      "anonymous": false,
      "inputs": [
        {
          "indexed": true,
          "internalType": "uint256",
          "name": "id",
          "type": "uint256"
        },
        {
          "indexed": false,
          "internalType": "string",
          "name": "assetSymbol",
          "type": "string"
        },
        {
          "indexed": false,
          "internalType": "address",
          "name": "priceFeedAddress",
          "type": "address"
        },
        {
          "indexed": false,
          "internalType": "uint256",
          "name": "targetPrice",
          "type": "uint256"
        },
        {
          "indexed": false,
          "internalType": "uint256",
          "name": "expiryTimestamp",
          "type": "uint256"
        },
        {
          "indexed": false,
          "internalType": "bool",
          "name": "isEventMarket",
          "type": "bool"
        },
        {
          "indexed": false,
          "internalType": "uint256",
          "name": "creationTimestamp",
          "type": "uint256"
        }
      ],
      "name": "MarketCreated",
      "type": "event"
    },
    {
      "anonymous": false,
      "inputs": [
        {
          "indexed": false,
          "internalType": "uint256",
          "name": "newFee",
          "type": "uint256"
        }
      ],
      "name": "MarketCreationListingFeeSet",
      "type": "event"
    },
    {
      "anonymous": false,
      "inputs": [
        {
          "indexed": true,
          "internalType": "uint256",
          "name": "marketId",
          "type": "uint256"
        },
        {
          "indexed": false,
          "internalType": "enum PredictionMarketP2P.MarketState",
          "name": "outcomeState",
          "type": "uint8"
        },
        {
          "indexed": false,
          "internalType": "int256",
          "name": "actualValue",
          "type": "int256"
        }
      ],
      "name": "MarketResolved",
      "type": "event"
    },
    {
      "anonymous": false,
      "inputs": [
        {
          "indexed": true,
          "internalType": "address",
          "name": "previousOwner",
          "type": "address"
        },
        {
          "indexed": true,
          "internalType": "address",
          "name": "newOwner",
          "type": "address"
        }
      ],
      "name": "OwnershipTransferred",
      "type": "event"
    },
    {
      "anonymous": false,
      "inputs": [
        {
          "indexed": false,
          "internalType": "uint16",
          "name": "newFeeBasisPoints",
          "type": "uint16"
        }
      ],
      "name": "PlatformFeeSet",
      "type": "event"
    },
    {
      "anonymous": false,
      "inputs": [
        {
          "indexed": true,
          "internalType": "address",
          "name": "newWallet",
          "type": "address"
        }
      ],
      "name": "PlatformFeeWalletSet",
      "type": "event"
    },
    {
      "anonymous": false,
      "inputs": [
        {
          "indexed": true,
          "internalType": "uint256",
          "name": "id",
          "type": "uint256"
        },
        {
          "indexed": true,
          "internalType": "address",
          "name": "marketCreator",
          "type": "address"
        },
        {
          "indexed": false,
          "internalType": "string",
          "name": "assetSymbol",
          "type": "string"
        },
        {
          "indexed": false,
          "internalType": "address",
          "name": "priceFeedAddress",
          "type": "address"
        },
        {
          "indexed": false,
          "internalType": "uint256",
          "name": "targetPrice",
          "type": "uint256"
        },
        {
          "indexed": false,
          "internalType": "uint256",
          "name": "expiryTimestamp",
          "type": "uint256"
        },
        {
          "indexed": false,
          "internalType": "bool",
          "name": "isEventMarket",
          "type": "bool"
        },
        {
          "indexed": false,
          "internalType": "uint16",
          "name": "creatorFeeBasisPoints",
          "type": "uint16"
        },
        {
          "indexed": false,
          "internalType": "uint256",
          "name": "creationTimestamp",
          "type": "uint256"
        }
      ],
      "name": "UserMarketCreated",
      "type": "event"
    },
    {
      "anonymous": false,
      "inputs": [
        {
          "indexed": true,
          "internalType": "uint256",
          "name": "marketId",
          "type": "uint256"
        },
        {
          "indexed": true,
          "internalType": "address",
          "name": "bettor",
          "type": "address"
        },
        {
          "indexed": false,
          "internalType": "uint256",
          "name": "payoutAmount",
          "type": "uint256"
        }
      ],
      "name": "WinningsClaimed",
      "type": "event"
    },
    {
      "inputs": [],
      "name": "MAX_CREATOR_FEE_BASIS_POINTS",
      "outputs": [
        {
          "internalType": "uint16",
          "name": "",
          "type": "uint16"
        }
      ],
      "stateMutability": "view",
      "type": "function"
    },
    {
      "inputs": [],
      "name": "MAX_ORACLE_STALENESS_FOR_EARLY_RESOLUTION",
      "outputs": [
        {
          "internalType": "uint256",
          "name": "",
          "type": "uint256"
        }
      ],
      "stateMutability": "view",
      "type": "function"
    },
    {
      "inputs": [],
      "name": "MAX_ORACLE_STALENESS_FOR_REGULAR_RESOLUTION",
      "outputs": [
        {
          "internalType": "uint256",
          "name": "",
          "type": "uint256"
        }
      ],
      "stateMutability": "view",
      "type": "function"
    },
    {
      "inputs": [
        {
          "internalType": "string",
          "name": "_assetSymbol",
          "type": "string"
        },
        {
          "internalType": "address",
          "name": "_priceFeedAddress",
          "type": "address"
        },
        {
          "internalType": "uint256",
          "name": "_targetPrice",
          "type": "uint256"
        },
        {
          "internalType": "uint256",
          "name": "_expiryTimestamp",
          "type": "uint256"
        },
        {
          "internalType": "bool",
          "name": "_isEventMarket",
          "type": "bool"
        }
      ],
      "name": "createMarket",
      "outputs": [],
      "stateMutability": "nonpayable",
      "type": "function"
    },
    {
      "inputs": [
        {
          "internalType": "string",
          "name": "_assetSymbol",
          "type": "string"
        },
        {
          "internalType": "address",
          "name": "_priceFeedAddress",
          "type": "address"
        },
        {
          "internalType": "uint256",
          "name": "_targetPrice",
          "type": "uint256"
        },
        {
          "internalType": "uint256",
          "name": "_expiryTimestamp",
          "type": "uint256"
        },
        {
          "internalType": "bool",
          "name": "_isEventMarket",
          "type": "bool"
        },
        {
          "internalType": "uint16",
          "name": "_creatorFeeBP",
          "type": "uint16"
        }
      ],
      "name": "createUserMarket",
      "outputs": [],
      "stateMutability": "payable",
      "type": "function"
    },
    {
      "inputs": [],
      "name": "getExistingMarketIds",
      "outputs": [
        {
          "internalType": "uint256[]",
          "name": "",
          "type": "uint256[]"
        }
      ],
      "stateMutability": "view",
      "type": "function"
    },
    {
      "inputs": [
        {
          "internalType": "uint256",
          "name": "_marketId",
          "type": "uint256"
        }
      ],
      "name": "getMarketInfo",
      "outputs": [
        {
          "internalType": "string",
          "name": "assetSymbol",
          "type": "string"
        },
        {
          "internalType": "enum PredictionMarketP2P.MarketState",
          "name": "state",
          "type": "uint8"
        },
        {
          "internalType": "uint256",
          "name": "expiryTimestamp",
          "type": "uint256"
        },
        {
          "internalType": "uint256",
          "name": "creationTimestamp",
          "type": "uint256"
        }
      ],
      "stateMutability": "view",
      "type": "function"
    },
    {
      "inputs": [
        {
          "internalType": "uint256",
          "name": "_marketId",
          "type": "uint256"
        }
      ],
      "name": "getMarketResolutionDetails",
      "outputs": [
        {
          "internalType": "address",
          "name": "priceFeedAddress",
          "type": "address"
        },
        {
          "internalType": "uint256",
          "name": "targetPrice",
          "type": "uint256"
        },
        {
          "internalType": "uint256",
          "name": "resolutionTimestamp",
          "type": "uint256"
        },
        {
          "internalType": "int256",
          "name": "actualOutcomeValue",
          "type": "int256"
        },
        {
          "internalType": "bool",
          "name": "isEventMarket",
          "type": "bool"
        }
      ],
      "stateMutability": "view",
      "type": "function"
    },
    {
      "inputs": [
        {
          "internalType": "uint256",
          "name": "_marketId",
          "type": "uint256"
        }
      ],
      "name": "getMarketStakes",
      "outputs": [
        {
          "internalType": "uint256",
          "name": "totalStakedYes",
          "type": "uint256"
        },
        {
          "internalType": "uint256",
          "name": "totalStakedNo",
          "type": "uint256"
        }
      ],
      "stateMutability": "view",
      "type": "function"
    },
    {
      "inputs": [],
      "name": "marketCreationListingFee",
      "outputs": [
        {
          "internalType": "uint256",
          "name": "",
          "type": "uint256"
        }
      ],
      "stateMutability": "view",
      "type": "function"
    },
    {
      "inputs": [
        {
          "internalType": "uint256",
          "name": "",
          "type": "uint256"
        }
      ],
      "name": "markets",
      "outputs": [
        {
          "internalType": "uint256",
          "name": "id",
          "type": "uint256"
        },
        {
          "internalType": "string",
          "name": "assetSymbol",
          "type": "string"
        },
        {
          "internalType": "contract AggregatorV3Interface",
          "name": "priceFeed",
          "type": "address"
        },
        {
          "internalType": "uint256",
          "name": "targetPrice",
          "type": "uint256"
        },
        {
          "internalType": "uint256",
          "name": "expiryTimestamp",
          "type": "uint256"
        },
        {
          "internalType": "uint256",
          "name": "resolutionTimestamp",
          "type": "uint256"
        },
        {
          "internalType": "uint256",
          "name": "creationTimestamp",
          "type": "uint256"
        },
        {
          "internalType": "bool",
          "name": "isEventMarket",
          "type": "bool"
        },
        {
          "internalType": "address payable",
          "name": "marketCreator",
          "type": "address"
        },
        {
          "internalType": "uint16",
          "name": "creatorFeeBasisPoints",
          "type": "uint16"
        },
        {
          "internalType": "bool",
          "name": "isUserCreated",
          "type": "bool"
        },
        {
          "internalType": "uint256",
          "name": "totalStakedYes",
          "type": "uint256"
        },
        {
          "internalType": "uint256",
          "name": "totalStakedNo",
          "type": "uint256"
        },
        {
          "internalType": "enum PredictionMarketP2P.MarketState",
          "name": "state",
          "type": "uint8"
        },
        {
          "internalType": "int256",
          "name": "actualOutcomeValue",
          "type": "int256"
        },
        {
          "internalType": "bool",
          "name": "exists",
          "type": "bool"
        }
      ],
      "stateMutability": "view",
      "type": "function"
    },
    {
      "inputs": [],
      "name": "nextMarketId",
      "outputs": [
        {
          "internalType": "uint256",
          "name": "",
          "type": "uint256"
        }
      ],
      "stateMutability": "view",
      "type": "function"
    },
    {
      "inputs": [],
      "name": "owner",
      "outputs": [
        {
          "internalType": "address",
          "name": "",
          "type": "address"
        }
      ],
      "stateMutability": "view",
      "type": "function"
    },
    {
      "inputs": [],
      "name": "platformFeeBasisPoints",
      "outputs": [
        {
          "internalType": "uint16",
          "name": "",
          "type": "uint16"
        }
      ],
      "stateMutability": "view",
      "type": "function"
    },
    {
      "inputs": [],
      "name": "platformFeeWallet",
      "outputs": [
        {
          "internalType": "address payable",
          "name": "",
          "type": "address"
        }
      ],
      "stateMutability": "view",
      "type": "function"
    },
    {
      "inputs": [],
      "name": "renounceOwnership",
      "outputs": [],
      "stateMutability": "nonpayable",
      "type": "function"
    },
    {
      "inputs": [
        {
          "internalType": "uint256",
          "name": "_newListingFee",
          "type": "uint256"
        }
      ],
      "name": "setMarketCreationListingFee",
      "outputs": [],
      "stateMutability": "nonpayable",
      "type": "function"
    },
    {
      "inputs": [
        {
          "internalType": "uint16",
          "name": "_newFeeBasisPoints",
          "type": "uint16"
        }
      ],
      "name": "setPlatformFee",
      "outputs": [],
      "stateMutability": "nonpayable",
      "type": "function"
    },
    {
      "inputs": [
        {
          "internalType": "address",
          "name": "newOwner",
          "type": "address"
        }
      ],
      "name": "transferOwnership",
      "outputs": [],
      "stateMutability": "nonpayable",
      "type": "function"
    }
  ],
  "bytecode": "0x60803461019257601f61143838819003918201601f191683019291906001600160401b038411838510176101975781606092849260409687528339810103126101925780516001600160a01b039190828116908190036101925760208201519161ffff8316908184036101925785015193331561017a576000543360018060a01b03198216176000558651913391167f8be0079c531659141344cd1fd0a4f28419497f9722a3daafe3b4186f6b6457e0600080a360018055821561013857506103e8106100f4576004549161ffff60a01b9060a01b169160018060b01b03191617176004556005555161128a90816101ae8239f35b835162461bcd60e51b815260206004820152601f60248201527f506c6174666f726d2066656520746f6f206869676820286d61782031302529006044820152606490fd5b62461bcd60e51b815260206004820152601b60248201527f496e76616c696420706c6174666f726d206665652077616c6c657400000000006044820152606490fd5b8551631e4fbdf760e01b815260006004820152602490fd5b600080fd5b634e487b7160e01b600052604160045260246000fdfe6080604052600436101561001257600080fd5b60003560e01c80630df0621d14610de75780630fdbfc0d14610d705780631f08db6f14610ab95780633ec7919314610a35578063406ef2ef14610a17578063460c69d1146109f95780635cbc742c1461093c578063631252371461091f578063715018a6146108c65780638664aa18146108a95780638da5cb5b14610880578063b1283e7714610767578063b5a9193a14610749578063c58bfb6614610724578063d6aa7e1a146106dc578063e20fc118146106b3578063f2fde38b14610623578063f8ae28fd1461013e5763ffa36163146100ed57600080fd5b34610139576020366003190112610139577f7ebe81e189d20a78827cc700f87cf9fa63eda3f4b4c011efbbbd87213b235fc6602060043561012c61108b565b80600555604051908152a1005b600080fd5b60c03660031901126101395767ffffffffffffffff6004358181116101395761016b903690600401610ed3565b90610174610f01565b9161017d610f17565b9161ffff60a4351660a43503610139576002600154146106115760026001556005548034106105cc5761012c61ffff60a435161161058757831561056e575b61038442018042116104e8576101d590606435116110f9565b806104fe575b5060055480341161047d575b50600354926101f584611137565b60035583600052600260205260406000209584875583116104675761021d6001870154610f89565b601f8111610420575b50600095601f841160011461039157837faa4587dcebe9af10d599db0c2b5c4f6903c291413e68b36fe910e8540cc7b406959697600091610386575b508460011b906000198660031b1c19161760018201555b8115610364575b610322604435918260038201556064356004820155600681019042825560078101906102b886839060ff801983541691151516179055565b600d8101805460ff19908116909155600f9190910180549091166001179055805460a43560a81b61ffff60a81b16610100600160c01b03199091163360081b610100600160a81b03161717600160b81b1790555460405160e0808252909691959087019190611146565b6001600160a01b039097166020850152604084015260643560608401521515608083015260a43561ffff1660a083015260c0820152339381900390a360018055005b6002810180546001600160a01b0319166001600160a01b038916179055610280565b905083013588610262565b60018101600052602060002060005b601f198616811061040857507faa4587dcebe9af10d599db0c2b5c4f6903c291413e68b36fe910e8540cc7b40695969785601f198116106103ee575b5050600184811b016001820155610279565b840135600019600387901b60f8161c1916905587806103dc565b848901358255602098890198600190920191016103a0565b600187016000526020600020601f850160051c810160208610610460575b601f830160051c82018110610454575050610226565b6000815560010161043e565b508061043e565b634e487b7160e01b600052604160045260246000fd5b34033481116104e857600080808093335af1610497611167565b50156104a357856101e7565b60405162461bcd60e51b815260206004820152601860248201527f4578636573732066656520726566756e64206661696c656400000000000000006044820152606490fd5b634e487b7160e01b600052601160045260246000fd5b6004546000918291829182916001600160a01b03165af161051d611167565b501561052957856101db565b60405162461bcd60e51b815260206004820152601b60248201527f4c697374696e6720666565207472616e73666572206661696c656400000000006044820152606490fd5b6105826001600160a01b03861615156110b7565b6101bc565b60405162461bcd60e51b815260206004820152601c60248201527f43726561746f72206665652065786365656473206d61782028332529000000006044820152606490fd5b60405162461bcd60e51b815260206004820152601860248201527f496e73756666696369656e74206c697374696e672066656500000000000000006044820152606490fd5b604051633ee5aeb560e01b8152600490fd5b34610139576020366003190112610139576004356001600160a01b03818116918290036101395761065261108b565b811561069a57600054826bffffffffffffffffffffffff60a01b821617600055167f8be0079c531659141344cd1fd0a4f28419497f9722a3daafe3b4186f6b6457e0600080a3005b604051631e4fbdf760e01b815260006004820152602490fd5b34610139576000366003190112610139576004546040516001600160a01b039091168152602090f35b3461013957602036600319011261013957600435600052600260205260408060002061070e60ff600f8301541661121b565b6009600882015491015482519182526020820152f35b3461013957600036600319011261013957602061ffff60045460a01c16604051908152f35b34610139576000366003190112610139576020600554604051908152f35b34610139576020366003190112610139576004356000526002602052604060002080546001820161079790610fe5565b90600160a01b600190038060028501541693600381015491600482015490600583015490600684015490600785015490600886015492600987015494600d88015460ff1696600e89015498600f015460ff16996040519d8e9d8e9d8e528d610200908160208201520161080991610f26565b9c6040015260608d015260808c015260a08b015260c08a015260ff8216151560e08a01528160081c166101008901528060a81c61ffff1661012089015260b81c60ff1615156101408801526101608701526101808601526101a0850161086e91610f66565b6101c084015215156101e08301520390f35b34610139576000366003190112610139576000546040516001600160a01b039091168152602090f35b3461013957600036600319011261013957602060405161012c8152f35b34610139576000366003190112610139576108df61108b565b600080546001600160a01b0319811682556001600160a01b03167f8be0079c531659141344cd1fd0a4f28419497f9722a3daafe3b4186f6b6457e08280a3005b346101395760003660031901126101395760206040516138408152f35b346101395760203660031901126101395760043561ffff8116908181036101395761096561108b565b6103e882116109bb576004805461ffff60a01b191660a09290921b61ffff60a01b169190911790556040519081527f1426859b6b96e2e9ae302b23a42f763f4b0ae916a71a093e61c77120458b2e9590602090a1005b60405162461bcd60e51b815260206004820152601660248201527546656520746f6f206869676820286d6178203130252960501b6044820152606490fd5b34610139576000366003190112610139576020604051620151808152f35b34610139576000366003190112610139576020600354604051908152f35b34610139576020366003190112610139576004356000526002602052610aa06040600020610a6960ff600f8301541661121b565b60ff600d82015416600482015491610a88600160068301549201610fe5565b92610aab604051958695608087526080870190610f26565b936020860190610f66565b604084015260608301520390f35b346101395760a03660031901126101395767ffffffffffffffff60043581811161013957610aeb903690600401610ed3565b9190610af5610f01565b92610afe610f17565b93610b0761108b565b8415610d57575b61038442018042116104e857610b2790606435116110f9565b60035493610b3485611137565b600355846000526002602052604060002090858255831161046757610b5c6001820154610f89565b601f8111610d0e575b50600095601f8411600114610c8057837fec86006df3e8f32dd47d3fe0c82d1c601f54bf982c1503b5d6e31bc215137aa09697600091610c75575b508460011b906000198660031b1c19161760018301555b8015610c53575b6044359182600382015560643560048201556006810190428255610bf183600783019060ff801983541691151516179055565b6001600f600d83019260ff199384815416905501918254161790555491610c2560405196879660c0885260c0880191611146565b6001600160a01b039094166020860152604085015260643560608501521515608084015260a08301520390a2005b6002820180546001600160a01b0319166001600160a01b038516179055610bbe565b905085013588610ba0565b60018201600052602060002060005b601f1986168110610cf657507fec86006df3e8f32dd47d3fe0c82d1c601f54bf982c1503b5d6e31bc215137aa0969785601f19811610610cdc575b5050600184811b016001830155610bb7565b860135600019600387901b60f8161c191690558780610cca565b86890135825560209889019860019092019101610c8f565b600182016000526020600020601f850160051c810160208610610d50575b601f90920160051c01905b818110610d445750610b65565b60008155600101610d37565b5080610d2c565b610d6b6001600160a01b03821615156110b7565b610b0e565b3461013957602036600319011261013957600435600052600260205260a06040600020610da360ff600f8301541661121b565b600180831b0360028201541690600381015490600581015460ff6007600e840154930154169260405194855260208501526040840152606083015215156080820152f35b3461013957600036600319011261013957600354610e04816111bf565b9060009060005b818110610e90575050610e1d816111bf565b9160005b828110610e6c5783604051809160208083018184528251809152816040850193019160005b828110610e5557505050500390f35b835185528695509381019392810192600101610e46565b80610e7a610e8b92846111f1565b51610e8582876111f1565b52611137565b610e21565b80600052600260205260ff600f6040600020015416610eb8575b610eb390611137565b610e0b565b91610ecb8184610e85610eb394886111f1565b929050610eaa565b9181601f840112156101395782359167ffffffffffffffff8311610139576020838186019501011161013957565b602435906001600160a01b038216820361013957565b60843590811515820361013957565b919082519283825260005b848110610f52575050826000602080949584010152601f8019910116010190565b602081830181015184830182015201610f31565b906007821015610f735752565b634e487b7160e01b600052602160045260246000fd5b90600182811c92168015610fb9575b6020831014610fa357565b634e487b7160e01b600052602260045260246000fd5b91607f1691610f98565b90601f8019910116810190811067ffffffffffffffff82111761046757604052565b9060405191826000825492610ff984610f89565b9081845260019485811690816000146110685750600114611025575b505061102392500383610fc3565b565b9093915060005260209081600020936000915b81831061105057505061102393508201013880611015565b85548884018501529485019487945091830191611038565b91505061102394506020925060ff191682840152151560051b8201013880611015565b6000546001600160a01b0316330361109f57565b60405163118cdaa760e01b8152336004820152602490fd5b156110be57565b60405162461bcd60e51b8152602060048201526013602482015272141c9a58d94819995959081c995c5d5a5c9959606a1b6044820152606490fd5b1561110057565b60405162461bcd60e51b815260206004820152600f60248201526e22bc3834b93c903a37b79039b7b7b760891b6044820152606490fd5b60001981146104e85760010190565b908060209392818452848401376000828201840152601f01601f1916010190565b3d156111a2573d9067ffffffffffffffff82116104675760405191611196601f8201601f191660200184610fc3565b82523d6000602084013e565b606090565b67ffffffffffffffff81116104675760051b60200190565b906111c9826111a7565b6111d66040519182610fc3565b82815280926111e7601f19916111a7565b0190602036910137565b80518210156112055760209160051b010190565b634e487b7160e01b600052603260045260246000fd5b1561122257565b60405162461bcd60e51b815260206004820152600a6024820152694d61726b657420444e4560b01b6044820152606490fdfea26469706673582212209891c7dab5bca3d3044849bc3e69771594deb2832cffc578fa767bd6ef41d0c764736f6c63430008140033",
  "linkReferences": {},
  "deployedLinkReferences": {}
}