{
  "_format": "hh-sol-artifact-1",
  "contractName": "PredictionMarketP2P",
  "sourceName": "contracts/PredictionMarketP2P.sol",
  "abi": [
    {
      "inputs": [
        {
          "internalType": "address payable",
          "name": "_initialPlatformFeeWallet",
          "type": "address"
        },
        {
          "internalType": "uint16",
          "name": "_initialPlatformFeeBP",
          "type": "uint16"
        },
        {
          "internalType": "uint256",
          "name": "_initialMarketCreationListingFee",
          "type": "uint256"
        }
      ],
      "stateMutability": "nonpayable",
      "type": "constructor"
    },
    {
      "inputs": [
        {
          "internalType": "address",
          "name": "owner",
          "type": "address"
        }
      ],
      "name": "OwnableInvalidOwner",
      "type": "error"
    },
    {
      "inputs": [
        {
          "internalType": "address",
          "name": "account",
          "type": "address"
        }
      ],
      "name": "OwnableUnauthorizedAccount",
      "type": "error"
    },
    {
      "inputs": [],
      "name": "ReentrancyGuardReentrantCall",
      "type": "error"
    },
    {
      "anonymous": false,
      "inputs": [
        {
          "indexed": true,
          "internalType": "uint256",
          "name": "marketId",
          "type": "uint256"
        },
        {
          "indexed": true,
          "internalType": "address",
          "name": "bettor",
          "type": "address"
        },
        {
          "indexed": false,
          "internalType": "bool",
          "name": "predictedYes",
          "type": "bool"
        },
        {
          "indexed": false,
          "internalType": "uint256",
          "name": "grossAmount",
          "type": "uint256"
        },
        {
          "indexed": false,
          "internalType": "uint256",
          "name": "netAmountPooled",
          "type": "uint256"
        },
        {
          "indexed": false,
          "internalType": "uint256",
          "name": "feeAmount",
          "type": "uint256"
        }
      ],
      "name": "BetPlaced",
      "type": "event"
    },
    {
      "anonymous": false,
      "inputs": [
        {
          "indexed": true,
          "internalType": "uint256",
          "name": "marketId",
          "type": "uint256"
        },
        {
          "indexed": false,
          "internalType": "bool",
          "name": "conditionMetAndResolved",
          "type": "bool"
        },
        {
          "indexed": false,
          "internalType": "enum PredictionMarketP2P.MarketState",
          "name": "resultingState",
          "type": "uint8"
        },
        {
          "indexed": false,
          "internalType": "int256",
          "name": "oraclePriceObserved",
          "type": "int256"
        }
      ],
      "name": "EarlyResolutionAttempt",
      "type": "event"
    },
    {
      "anonymous": false,
      "inputs": [
        {
          "indexed": true,
          "internalType": "uint256",
          "name": "id",
          "type": "uint256"
        },
        {
          "indexed": false,
          "internalType": "string",
          "name": "assetSymbol",
          "type": "string"
        },
        {
          "indexed": false,
          "internalType": "address",
          "name": "priceFeedAddress",
          "type": "address"
        },
        {
          "indexed": false,
          "internalType": "uint256",
          "name": "targetPrice",
          "type": "uint256"
        },
        {
          "indexed": false,
          "internalType": "uint256",
          "name": "expiryTimestamp",
          "type": "uint256"
        },
        {
          "indexed": false,
          "internalType": "bool",
          "name": "isEventMarket",
          "type": "bool"
        },
        {
          "indexed": false,
          "internalType": "uint256",
          "name": "creationTimestamp",
          "type": "uint256"
        }
      ],
      "name": "MarketCreated",
      "type": "event"
    },
    {
      "anonymous": false,
      "inputs": [
        {
          "indexed": false,
          "internalType": "uint256",
          "name": "newFee",
          "type": "uint256"
        }
      ],
      "name": "MarketCreationListingFeeSet",
      "type": "event"
    },
    {
      "anonymous": false,
      "inputs": [
        {
          "indexed": true,
          "internalType": "uint256",
          "name": "marketId",
          "type": "uint256"
        },
        {
          "indexed": false,
          "internalType": "enum PredictionMarketP2P.MarketState",
          "name": "outcomeState",
          "type": "uint8"
        },
        {
          "indexed": false,
          "internalType": "int256",
          "name": "actualValue",
          "type": "int256"
        }
      ],
      "name": "MarketResolved",
      "type": "event"
    },
    {
      "anonymous": false,
      "inputs": [
        {
          "indexed": true,
          "internalType": "address",
          "name": "previousOwner",
          "type": "address"
        },
        {
          "indexed": true,
          "internalType": "address",
          "name": "newOwner",
          "type": "address"
        }
      ],
      "name": "OwnershipTransferred",
      "type": "event"
    },
    {
      "anonymous": false,
      "inputs": [
        {
          "indexed": false,
          "internalType": "uint16",
          "name": "newFeeBasisPoints",
          "type": "uint16"
        }
      ],
      "name": "PlatformFeeSet",
      "type": "event"
    },
    {
      "anonymous": false,
      "inputs": [
        {
          "indexed": true,
          "internalType": "address",
          "name": "newWallet",
          "type": "address"
        }
      ],
      "name": "PlatformFeeWalletSet",
      "type": "event"
    },
    {
      "anonymous": false,
      "inputs": [
        {
          "indexed": true,
          "internalType": "uint256",
          "name": "id",
          "type": "uint256"
        },
        {
          "indexed": true,
          "internalType": "address",
          "name": "marketCreator",
          "type": "address"
        },
        {
          "indexed": false,
          "internalType": "string",
          "name": "assetSymbol",
          "type": "string"
        },
        {
          "indexed": false,
          "internalType": "address",
          "name": "priceFeedAddress",
          "type": "address"
        },
        {
          "indexed": false,
          "internalType": "uint256",
          "name": "targetPrice",
          "type": "uint256"
        },
        {
          "indexed": false,
          "internalType": "uint256",
          "name": "expiryTimestamp",
          "type": "uint256"
        },
        {
          "indexed": false,
          "internalType": "bool",
          "name": "isEventMarket",
          "type": "bool"
        },
        {
          "indexed": false,
          "internalType": "uint16",
          "name": "creatorFeeBasisPoints",
          "type": "uint16"
        },
        {
          "indexed": false,
          "internalType": "uint256",
          "name": "creationTimestamp",
          "type": "uint256"
        }
      ],
      "name": "UserMarketCreated",
      "type": "event"
    },
    {
      "anonymous": false,
      "inputs": [
        {
          "indexed": true,
          "internalType": "uint256",
          "name": "marketId",
          "type": "uint256"
        },
        {
          "indexed": true,
          "internalType": "address",
          "name": "bettor",
          "type": "address"
        },
        {
          "indexed": false,
          "internalType": "uint256",
          "name": "payoutAmount",
          "type": "uint256"
        }
      ],
      "name": "WinningsClaimed",
      "type": "event"
    },
    {
      "inputs": [],
      "name": "MAX_CREATOR_FEE_BASIS_POINTS",
      "outputs": [
        {
          "internalType": "uint16",
          "name": "",
          "type": "uint16"
        }
      ],
      "stateMutability": "view",
      "type": "function"
    },
    {
      "inputs": [],
      "name": "MAX_ORACLE_STALENESS_FOR_EARLY_RESOLUTION",
      "outputs": [
        {
          "internalType": "uint256",
          "name": "",
          "type": "uint256"
        }
      ],
      "stateMutability": "view",
      "type": "function"
    },
    {
      "inputs": [],
      "name": "MAX_ORACLE_STALENESS_FOR_REGULAR_RESOLUTION",
      "outputs": [
        {
          "internalType": "uint256",
          "name": "",
          "type": "uint256"
        }
      ],
      "stateMutability": "view",
      "type": "function"
    },
    {
      "inputs": [
        {
          "internalType": "uint256",
          "name": "_marketId",
          "type": "uint256"
        }
      ],
      "name": "claimWinnings",
      "outputs": [],
      "stateMutability": "nonpayable",
      "type": "function"
    },
    {
      "inputs": [
        {
          "internalType": "string",
          "name": "_assetSymbol",
          "type": "string"
        },
        {
          "internalType": "address",
          "name": "_priceFeedAddress",
          "type": "address"
        },
        {
          "internalType": "uint256",
          "name": "_targetPrice",
          "type": "uint256"
        },
        {
          "internalType": "uint256",
          "name": "_expiryTimestamp",
          "type": "uint256"
        },
        {
          "internalType": "bool",
          "name": "_isEventMarket",
          "type": "bool"
        }
      ],
      "name": "createMarket",
      "outputs": [],
      "stateMutability": "nonpayable",
      "type": "function"
    },
    {
      "inputs": [
        {
          "internalType": "string",
          "name": "_assetSymbol",
          "type": "string"
        },
        {
          "internalType": "address",
          "name": "_priceFeedAddress",
          "type": "address"
        },
        {
          "internalType": "uint256",
          "name": "_targetPrice",
          "type": "uint256"
        },
        {
          "internalType": "uint256",
          "name": "_expiryTimestamp",
          "type": "uint256"
        },
        {
          "internalType": "bool",
          "name": "_isEventMarket",
          "type": "bool"
        },
        {
          "internalType": "uint16",
          "name": "_creatorFeeBP",
          "type": "uint16"
        }
      ],
      "name": "createUserMarket",
      "outputs": [],
      "stateMutability": "payable",
      "type": "function"
    },
    {
      "inputs": [
        {
          "internalType": "uint256",
          "name": "_marketId",
          "type": "uint256"
        },
        {
          "internalType": "address",
          "name": "_user",
          "type": "address"
        }
      ],
      "name": "didUserClaim",
      "outputs": [
        {
          "internalType": "bool",
          "name": "",
          "type": "bool"
        }
      ],
      "stateMutability": "view",
      "type": "function"
    },
    {
      "inputs": [
        {
          "internalType": "uint256",
          "name": "_marketId",
          "type": "uint256"
        },
        {
          "internalType": "address",
          "name": "_user",
          "type": "address"
        }
      ],
      "name": "getClaimableAmount",
      "outputs": [
        {
          "internalType": "uint256",
          "name": "",
          "type": "uint256"
        }
      ],
      "stateMutability": "view",
      "type": "function"
    },
    {
      "inputs": [
        {
          "internalType": "uint256",
          "name": "_marketId",
          "type": "uint256"
        }
      ],
      "name": "getMarketStaticDetails",
      "outputs": [
        {
          "internalType": "uint256",
          "name": "id",
          "type": "uint256"
        },
        {
          "internalType": "string",
          "name": "assetSymbol",
          "type": "string"
        },
        {
          "internalType": "address",
          "name": "priceFeedAddress",
          "type": "address"
        },
        {
          "internalType": "uint256",
          "name": "targetPrice",
          "type": "uint256"
        },
        {
          "internalType": "uint256",
          "name": "expiryTimestamp",
          "type": "uint256"
        },
        {
          "internalType": "uint256",
          "name": "resolutionTimestamp",
          "type": "uint256"
        },
        {
          "internalType": "uint256",
          "name": "totalStakedYes",
          "type": "uint256"
        },
        {
          "internalType": "uint256",
          "name": "totalStakedNo",
          "type": "uint256"
        },
        {
          "internalType": "enum PredictionMarketP2P.MarketState",
          "name": "state",
          "type": "uint8"
        },
        {
          "internalType": "int256",
          "name": "actualOutcomeValue",
          "type": "int256"
        },
        {
          "internalType": "bool",
          "name": "exists",
          "type": "bool"
        },
        {
          "internalType": "bool",
          "name": "isEventMarket",
          "type": "bool"
        },
        {
          "internalType": "uint256",
          "name": "creationTimestamp",
          "type": "uint256"
        }
      ],
      "stateMutability": "view",
      "type": "function"
    },
    {
      "inputs": [
        {
          "internalType": "uint256",
          "name": "_marketId",
          "type": "uint256"
        },
        {
          "internalType": "address",
          "name": "_user",
          "type": "address"
        }
      ],
      "name": "getUserStakeInMarket",
      "outputs": [
        {
          "internalType": "uint256",
          "name": "stakeYes",
          "type": "uint256"
        },
        {
          "internalType": "uint256",
          "name": "stakeNo",
          "type": "uint256"
        }
      ],
      "stateMutability": "view",
      "type": "function"
    },
    {
      "inputs": [],
      "name": "marketCreationListingFee",
      "outputs": [
        {
          "internalType": "uint256",
          "name": "",
          "type": "uint256"
        }
      ],
      "stateMutability": "view",
      "type": "function"
    },
    {
      "inputs": [
        {
          "internalType": "uint256",
          "name": "",
          "type": "uint256"
        }
      ],
      "name": "markets",
      "outputs": [
        {
          "internalType": "uint256",
          "name": "id",
          "type": "uint256"
        },
        {
          "internalType": "string",
          "name": "assetSymbol",
          "type": "string"
        },
        {
          "internalType": "contract AggregatorV3Interface",
          "name": "priceFeed",
          "type": "address"
        },
        {
          "internalType": "uint256",
          "name": "targetPrice",
          "type": "uint256"
        },
        {
          "internalType": "uint256",
          "name": "expiryTimestamp",
          "type": "uint256"
        },
        {
          "internalType": "uint256",
          "name": "resolutionTimestamp",
          "type": "uint256"
        },
        {
          "internalType": "uint256",
          "name": "creationTimestamp",
          "type": "uint256"
        },
        {
          "internalType": "bool",
          "name": "isEventMarket",
          "type": "bool"
        },
        {
          "internalType": "address payable",
          "name": "marketCreator",
          "type": "address"
        },
        {
          "internalType": "uint16",
          "name": "creatorFeeBasisPoints",
          "type": "uint16"
        },
        {
          "internalType": "bool",
          "name": "isUserCreated",
          "type": "bool"
        },
        {
          "internalType": "uint256",
          "name": "totalStakedYes",
          "type": "uint256"
        },
        {
          "internalType": "uint256",
          "name": "totalStakedNo",
          "type": "uint256"
        },
        {
          "internalType": "enum PredictionMarketP2P.MarketState",
          "name": "state",
          "type": "uint8"
        },
        {
          "internalType": "int256",
          "name": "actualOutcomeValue",
          "type": "int256"
        },
        {
          "internalType": "bool",
          "name": "exists",
          "type": "bool"
        }
      ],
      "stateMutability": "view",
      "type": "function"
    },
    {
      "inputs": [],
      "name": "nextMarketId",
      "outputs": [
        {
          "internalType": "uint256",
          "name": "",
          "type": "uint256"
        }
      ],
      "stateMutability": "view",
      "type": "function"
    },
    {
      "inputs": [],
      "name": "owner",
      "outputs": [
        {
          "internalType": "address",
          "name": "",
          "type": "address"
        }
      ],
      "stateMutability": "view",
      "type": "function"
    },
    {
      "inputs": [
        {
          "internalType": "uint256",
          "name": "_marketId",
          "type": "uint256"
        },
        {
          "internalType": "enum PredictionMarketP2P.MarketState",
          "name": "_outcomeState",
          "type": "uint8"
        }
      ],
      "name": "ownerResolveEventMarket",
      "outputs": [],
      "stateMutability": "nonpayable",
      "type": "function"
    },
    {
      "inputs": [
        {
          "internalType": "uint256",
          "name": "_marketId",
          "type": "uint256"
        },
        {
          "internalType": "bool",
          "name": "_predictYes",
          "type": "bool"
        }
      ],
      "name": "placeBet",
      "outputs": [],
      "stateMutability": "payable",
      "type": "function"
    },
    {
      "inputs": [],
      "name": "platformFeeBasisPoints",
      "outputs": [
        {
          "internalType": "uint16",
          "name": "",
          "type": "uint16"
        }
      ],
      "stateMutability": "view",
      "type": "function"
    },
    {
      "inputs": [],
      "name": "platformFeeWallet",
      "outputs": [
        {
          "internalType": "address payable",
          "name": "",
          "type": "address"
        }
      ],
      "stateMutability": "view",
      "type": "function"
    },
    {
      "inputs": [],
      "name": "renounceOwnership",
      "outputs": [],
      "stateMutability": "nonpayable",
      "type": "function"
    },
    {
      "inputs": [
        {
          "internalType": "uint256",
          "name": "_marketId",
          "type": "uint256"
        }
      ],
      "name": "resolvePriceFeedMarket",
      "outputs": [],
      "stateMutability": "nonpayable",
      "type": "function"
    },
    {
      "inputs": [
        {
          "internalType": "uint256",
          "name": "_newListingFee",
          "type": "uint256"
        }
      ],
      "name": "setMarketCreationListingFee",
      "outputs": [],
      "stateMutability": "nonpayable",
      "type": "function"
    },
    {
      "inputs": [
        {
          "internalType": "uint16",
          "name": "_newFeeBasisPoints",
          "type": "uint16"
        }
      ],
      "name": "setPlatformFee",
      "outputs": [],
      "stateMutability": "nonpayable",
      "type": "function"
    },
    {
      "inputs": [
        {
          "internalType": "address",
          "name": "newOwner",
          "type": "address"
        }
      ],
      "name": "transferOwnership",
      "outputs": [],
      "stateMutability": "nonpayable",
      "type": "function"
    },
    {
      "inputs": [
        {
          "internalType": "uint256",
          "name": "_marketId",
          "type": "uint256"
        }
      ],
      "name": "triggerEarlyPriceResolution",
      "outputs": [],
      "stateMutability": "nonpayable",
      "type": "function"
    },
    {
      "inputs": [
        {
          "internalType": "address payable",
          "name": "_to",
          "type": "address"
        }
      ],
      "name": "withdrawStuckEther",
      "outputs": [],
      "stateMutability": "nonpayable",
      "type": "function"
    },
    {
      "stateMutability": "payable",
      "type": "receive"
    }
  ],
  "bytecode": "0x608034620001e757601f6200287338819003918201601f191683019291906001600160401b03841183851017620001ec578160609284926040968752833981010312620001e75780516001600160a01b03919082811690819003620001e75760208201519161ffff831690818403620001e757850151933315620001cf576000543360018060a01b03198216176000558651913391167f8be0079c531659141344cd1fd0a4f28419497f9722a3daafe3b4186f6b6457e0600080a36001805582156200018d57506103e8106200014957821562000105576004549161ffff60a01b9060a01b169160018060b01b0319161717600455600555516126709081620002038239f35b835162461bcd60e51b815260206004820152601f60248201527f496e697469616c206c697374696e6720666565206d757374206265203e2030006044820152606490fd5b835162461bcd60e51b815260206004820152601f60248201527f506c6174666f726d2066656520746f6f206869676820286d61782031302529006044820152606490fd5b62461bcd60e51b815260206004820152601b60248201527f496e76616c696420706c6174666f726d206665652077616c6c657400000000006044820152606490fd5b8551631e4fbdf760e01b815260006004820152602490fd5b600080fd5b634e487b7160e01b600052604160045260246000fdfe608080604052600436101561001d575b50361561001b57600080fd5b005b60003560e01c9081630e66535514611e29575080631c1695ba14611bab5780631f08db6f146118f457806326a15bb3146117fe57806326ccd77a1461173a578063406ef2ef1461171c578063460c69d1146116fe5780635cbc742c146116415780636312523714611624578063677bd9ff14611375578063715018a61461131c57806374169279146112cc57806378c5195e1461129e5780638664aa18146112815780638da5cb5b146112585780639a3a40d614610f435780639ce2e95714610bd95780639ed9c74d146108be578063b1283e77146107a2578063b5a9193a14610784578063c58bfb661461075f578063e20fc11814610736578063f2fde38b146106a6578063f8ae28fd146101da5763ffa361631461013d573861000f565b346101d55760203660031901126101d557600435610159612024565b8015610190576020817f7ebe81e189d20a78827cc700f87cf9fa63eda3f4b4c011efbbbd87213b235fc692600555604051908152a1005b60405162461bcd60e51b815260206004820152601b60248201527f4e6577206c697374696e6720666565206d757374206265203e203000000000006044820152606490fd5b600080fd5b60c03660031901126101d55767ffffffffffffffff6004358181116101d557610207903690600401611e98565b90610210611e82565b91610219611ec6565b9161ffff60a4351660a435036101d557610231612172565b6005548034106106615761012c61ffff60a435161161061c578315610603575b61038442018042116105ed5761026a906064351161209f565b8061057d575b50600554803411610512575b506003549283600052600260205260406000209584875583116104fc576102a66001870154611f22565b601f81116104b5575b50600095601f841160011461042657837faa4587dcebe9af10d599db0c2b5c4f6903c291413e68b36fe910e8540cc7b40695969760009161041b575b508460011b906000198660031b1c19161760018201555b81156103f9575b6103b76044359182600382015560643560048201556006810190428255600781019061034186839060ff801983541691151516179055565b600d8101805460ff19908116909155600f9190910180549091166001179055805460a43560a81b61ffff60a81b16610100600160c01b03199091163360081b610100600160a81b03161717600160b81b1790556003546103a0906120f5565b60035554936040519560e0875260e0870191612104565b6001600160a01b039097166020850152604084015260643560608401521515608083015260a43561ffff1660a083015260c0820152339381900390a360018055005b6002810180546001600160a01b0319166001600160a01b038916179055610309565b9050830135886102eb565b60018101600052602060002060005b601f198616811061049d57507faa4587dcebe9af10d599db0c2b5c4f6903c291413e68b36fe910e8540cc7b40695969785601f19811610610483575b5050600184811b016001820155610302565b840135600019600387901b60f8161c191690558780610471565b84890135825560209889019860019092019101610435565b600187016000526020600020601f850160051c8101602086106104f5575b601f830160051c820181106104e95750506102af565b600081556001016104d3565b50806104d3565b634e487b7160e01b600052604160045260246000fd5b60008080610521819434612165565b335af161052c612125565b5015610538578561027c565b60405162461bcd60e51b815260206004820152601860248201527f4578636573732066656520726566756e64206661696c656400000000000000006044820152606490fd5b6004546000918291829182916001600160a01b03165af161059c612125565b50156105a85785610270565b60405162461bcd60e51b815260206004820152601b60248201527f4c697374696e6720666565207472616e73666572206661696c656400000000006044820152606490fd5b634e487b7160e01b600052601160045260246000fd5b6106176001600160a01b0386161515612050565b610251565b60405162461bcd60e51b815260206004820152601c60248201527f43726561746f72206665652065786365656473206d61782028332529000000006044820152606490fd5b60405162461bcd60e51b815260206004820152601860248201527f496e73756666696369656e74206c697374696e672066656500000000000000006044820152606490fd5b346101d55760203660031901126101d5576004356001600160a01b03818116918290036101d5576106d5612024565b811561071d57600054826bffffffffffffffffffffffff60a01b821617600055167f8be0079c531659141344cd1fd0a4f28419497f9722a3daafe3b4186f6b6457e0600080a3005b604051631e4fbdf760e01b815260006004820152602490fd5b346101d55760003660031901126101d5576004546040516001600160a01b039091168152602090f35b346101d55760003660031901126101d557602061ffff60045460a01c16604051908152f35b346101d55760003660031901126101d5576020600554604051908152f35b346101d55760203660031901126101d557600435600052600260205260406000208054600182016107d290611f7e565b91600160a01b60019003600282015416906003810154906004810154600582015460068301546007840154600885015491600986015493600d87015460ff1695600e88015497600f015460ff16986040519c8d9c8d528c6102006020819201528d0161083d91611ed5565b9a60408d015260608c015260808b015260a08a015260c089015260ff8116151560e0890152600160a01b600190038160081c166101008901528060a81c61ffff1661012089015260b81c60ff1615156101408801526101608701526101808601526101a085016108ac91611f15565b6101c084015215156101e08301520390f35b60403660031901126101d5576024803580151591600435918381036101d5576108e5612172565b8260005260206002815260406000209261090560ff600f86015416612195565b60ff600d850154166007811015610bc45761092090156121ce565b6004840154421015610b90573415610b595760078401549360008060b887901c60ff168080610b49575b15610afa5750505061271061096661ffff8760a81c163461220c565b049460081c6001600160a01b0316905b6109808634612165565b948515610ab6578692919015610a845760089033600052600a8101865260406000206109ad888254612092565b9055016109bb868254612092565b90555b81151580610a72575b610a10575b5050506040519485523490850152604084015260608301527f1faf624c13819091a75aa5abee6c43a2226da9b9475e62bdfc87bef2889b509660803393a360018055005b6000918291829182916001600160a01b03165af1610a2c612125565b5015610a395783816109cc565b9060136064926040519262461bcd60e51b8452600484015282015272119959481d1c985b9cd9995c8819985a5b1959606a1b6044820152fd5b506001600160a01b03811615156109c7565b60099033600052600b810186526040600020610aa1888254612092565b905501610aaf868254612092565b90556109be565b60405162461bcd60e51b8152600481018690526018818601527f4e6574207374616b6520697320302061667465722066656500000000000000006044820152606490fd5b90929196501580610b37575b156109765794505060045493612710610b2661ffff8760a01c163461220c565b04946001600160a01b031690610976565b5061ffff60045460a01c161515610b06565b5061ffff8860a81c16151561094a565b9060116064926040519262461bcd60e51b845260048401528201527005374616b65206d757374206265203e203607c1b6044820152fd5b90600e6064926040519262461bcd60e51b845260048401528201526d13585c9ad95d08195e1c1a5c995960921b6044820152fd5b50634e487b7160e01b60009081526021600452fd5b346101d5576020806003193601126101d55760043590610bf7612172565b816000526002815260406000209060ff610c1681600f85015416612195565b80600784015416610f0557600d830192818454166007811015610eef57610c3d81156121ce565b6004820154421015610eac57600090610c69610c5b60018501611f7e565b610c6361223f565b9061256a565b8015610e67576002840154604051633fabe5a360e21b815292919060a090849060049082906001600160a01b03165afa80600094600092610e2f575b50610cfa5750505050505090610ceb6060927f2929edc53d2ed82cd180164d5054425391e57c6a30f8697c43fc9ba573338edf9454166040519260008452830190611f15565b60006040820152a25b60018055005b60068699949795989601548110610ddb5791606097959391610d4c613840610d467f2929edc53d2ed82cd180164d5054425391e57c6a30f8697c43fc9ba573338edf9c9a989642612165565b106122c5565b610dc4575b93610d759486978297610d80575b5050505416906040519415158552840190611f15565b6040820152a2610cf4565b610d8c600e92856120dd565b42600582015501558860008051602061261b833981519152604084845416610db682518092611f15565b8887820152a2848a80610d5f565b60038701548512610d515750600194506005610d51565b60405162461bcd60e51b815260048101879052602660248201527f4f7261636c65206461746120746f6f206f6c6420287072652d6461746573206d60448201526561726b65742960d01b6064820152608490fd5b909450610e53915060a03d8111610e60575b610e4b8183611f5c565b810190612290565b509592505093908b610ca5565b503d610e41565b60405162461bcd60e51b815260048101879052601c60248201527f4d61726b65742073796d626f6c206e6f7420636f6e66696775726564000000006044820152606490fd5b6064846040519062461bcd60e51b825280600483015260248201527f50617374206578706972792c2075736520726567756c6172207265736f6c76656044820152fd5b634e487b7160e01b600052602160045260246000fd5b60405162461bcd60e51b81526004810183905260166024820152754f6e6c7920666f72207072696365206d61726b65747360501b6044820152606490fd5b346101d5576020806003193601126101d55760043590610f61612172565b8160005260028152604060002090610f7f60ff600f84015416612195565b60ff60078301541661122157600d8201805460ff8116600781101580610eef57811580928115611212575b50156111dd57610fc06004870154421015612309565b610eef576111ce575b506002830154604051633fabe5a360e21b81529060a090829060049082906001600160a01b03165afa806000926000926111a6575b506110d7575050906001600060033d116110c5575b6308c379a014611078575b61102d575b5050505060018055005b60008051602061261b83398151915292604092611048612125565b50600460ff198254161790556000199081600e82015560054291015582519160048352820152a280808080611023565b611080612343565b1561101e57506000600460ff198454161783558460008051602061261b833981519152604060001980600e8901554260058901558151906004825286820152a261101e565b5060046000803e60005160e01c611013565b62015180610d466110e89242612165565b600e840193818555426005820155611105610c5b60018301611f7e565b15611161576003015460008051602061261b833981519152946040949093909260ff921361115257600282198254161781555b541691549061114984518094611f15565b820152a2610cf4565b60038219825416178155611138565b60405162461bcd60e51b815260048101859052601f60248201527f416d626967756f75732073796d626f6c20666f72207265736f6c7574696f6e006044820152606490fd5b9092506111c1915060a03d8111610e6057610e4b8183611f5c565b5093925050919087610ffe565b60ff1916600117815584610fc9565b60405162461bcd60e51b815260048101869052600d60248201526c496e76616c696420737461746560981b6044820152606490fd5b91505060016000911488610faa565b6064906040519062461bcd60e51b82526004820152601060248201526f139bdd081c1c9a58d9481b585c9ad95d60821b6044820152fd5b346101d55760003660031901126101d5576000546040516001600160a01b039091168152602090f35b346101d55760003660031901126101d557602060405161012c8152f35b346101d55760403660031901126101d55760206112c46112bc611e82565b6004356123b2565b604051908152f35b346101d55760403660031901126101d5576112e5611e82565b6004356000526002602052600c6040600020019060018060a01b0316600052602052602060ff604060002054166040519015158152f35b346101d55760003660031901126101d557611335612024565b600080546001600160a01b0319811682556001600160a01b03167f8be0079c531659141344cd1fd0a4f28419497f9722a3daafe3b4186f6b6457e08280a3005b346101d5576020806003193601126101d557600435611392612172565b80600052600282526040600020916113b060ff600f85015416612195565b600c8301923360005283825260ff604060002054166115ed57600033600052600a8201835260406000205490600b830184526040600020549260ff600d820154166007811015610eef57600481036114ee575050509061140f91612092565b925b83156114a9573360005281526040600020600160ff19825416179055600080808086335af161143e612125565b5015611475577f5380cf6fe903b40c6d5a9e0dfbca2f3a423f0a21520b4d5947ed5169bdba946d906040519384523393a360018055005b6064906040519062461bcd60e51b82526004820152600d60248201526c14185e5bdd5d0819985a5b1959609a1b6044820152fd5b60405162461bcd60e51b815260048101839052601c60248201527f4e6f2077696e6e696e6773206f7220696e76616c6964207374617465000000006044820152606490fd5b60009794919392976002821480156115e0575b1561156f5750505080151580611562575b61151e575b5050611411565b8091955094600981015480611534575b50611517565b61155993965090600861154a611553938561220c565b9101549061221f565b90612092565b9284808061152e565b5060088201541515611512565b90919250610eef57600381149081156115d5575b5061158f575050611411565b801515806115c8575b156115175780919550946008810154806115b25750611517565b61155993965090600961154a611553938561220c565b5060098201541515611598565b600691501487611583565b5050600060058214611501565b60405162461bcd60e51b815260048101839052600f60248201526e105b1c9958591e4818db185a5b5959608a1b6044820152606490fd5b346101d55760003660031901126101d55760206040516138408152f35b346101d55760203660031901126101d55760043561ffff8116908181036101d55761166a612024565b6103e882116116c0576004805461ffff60a01b191660a09290921b61ffff60a01b169190911790556040519081527f1426859b6b96e2e9ae302b23a42f763f4b0ae916a71a093e61c77120458b2e9590602090a1005b60405162461bcd60e51b815260206004820152601660248201527546656520746f6f206869676820286d6178203130252960501b6044820152606490fd5b346101d55760003660031901126101d5576020604051620151808152f35b346101d55760003660031901126101d5576020600354604051908152f35b346101d55760203660031901126101d5576004356001600160a01b038116908190036101d557611768612024565b80156117c75747908161177757005b600080809381935af1611788612125565b501561179057005b60405162461bcd60e51b815260206004820152600f60248201526e151c985b9cd9995c8819985a5b1959608a1b6044820152606490fd5b60405162461bcd60e51b815260206004820152600f60248201526e496e76616c6964206164647265737360881b6044820152606490fd5b346101d55760203660031901126101d55760043560005260026020526040600020600f81015460ff169061183182612195565b805490600160a01b6001900360028201541690600381015493600482015490600583015460088401546009850154600d86015460ff1691600e87015493600788015460ff169660068901549860010161188990611f7e565b9b6040519c8d9c8d528c6101a06020819201528d016118a791611ed5565b9a60408d015260608c015260808b015260a08a015260c089015260e088015261010087016118d491611f15565b610120860152151561014085015215156101608401526101808301520390f35b346101d55760a03660031901126101d55767ffffffffffffffff6004358181116101d557611926903690600401611e98565b9190611930611e82565b92611939611ec6565b93611942612024565b8415611b92575b61038442018042116105ed57611962906064351161209f565b6003549384600052600260205260406000209085825583116104fc5761198b6001820154611f22565b601f8111611b4b575b50600095601f8411600114611abd57837fec86006df3e8f32dd47d3fe0c82d1c601f54bf982c1503b5d6e31bc215137aa09697600091611ab2575b508460011b906000198660031b1c19161760018301555b8015611a90575b6044359182600382015560643560048201556006810190428255611a2083600783019060ff801983541691151516179055565b6001600f600d83019260ff19938481541690550191825416179055611a466003546120f5565b6003555491611a6260405196879660c0885260c0880191612104565b6001600160a01b039094166020860152604085015260643560608501521515608084015260a08301520390a2005b6002820180546001600160a01b0319166001600160a01b0385161790556119ed565b9050850135886119cf565b60018201600052602060002060005b601f1986168110611b3357507fec86006df3e8f32dd47d3fe0c82d1c601f54bf982c1503b5d6e31bc215137aa0969785601f19811610611b19575b5050600184811b0160018301556119e6565b860135600019600387901b60f8161c191690558780611b07565b86890135825560209889019860019092019101611acc565b600182016000526020600020601f850160051c810160208610611b8b575b601f830160051c82018110611b7f575050611994565b60008155600101611b69565b5080611b69565b611ba66001600160a01b0382161515612050565b611949565b346101d55760403660031901126101d557600435602480359060078210156101d557611bd5612024565b611bdd612172565b8260005260209060028252604060002092611bfe60ff600f86015416612195565b60ff60078501541615611df257600d84019160ff8354166007811015610bc4578015908115611de7575b5015611db357611c3e6004860154421015612309565b60028214906000828015611da6575b818115611d96575b5015611d5a57611d465760048314611cda575b5060ff8383600e93611c8d6040989660008051602061261b8339815191529a986120dd565b42600588015515611cbc57506001838601555b541692015490611cb284518094611f15565b820152a260018055005b600303611cce57600083860155611ca0565b60001985840155611ca0565b6008860154158015611d3a575b611c68578460236084926040519262461bcd60e51b845260048401528201527f43616e6e6f74205055534820776974682062657473206f6e20626f746820736960448201526264657360e81b6064820152fd5b50600986015415611ce7565b634e487b7160e01b60009081526021600452fd5b60405162461bcd60e51b81526004810187905260158184015274496e76616c6964206f7574636f6d6520737461746560581b6044820152606490fd5b9050610bc4576004841481611c55565b5050600060038414611c4d565b83600e6064926040519262461bcd60e51b845260048401528201526d4e6f74207265736f6c7661626c6560901b6044820152fd5b600191501487611c28565b60405162461bcd60e51b8152600481018490526010818401526f139bdd08195d995b9d081b585c9ad95d60821b6044820152606490fd5b346101d55760403660031901126101d557604090611e45611e82565b6004356000526002602052826000209060018060a01b0316600052600a8101602052600b8360002054910160205282600020549082526020820152f35b602435906001600160a01b03821682036101d557565b9181601f840112156101d55782359167ffffffffffffffff83116101d557602083818601950101116101d557565b6084359081151582036101d557565b919082519283825260005b848110611f01575050826000602080949584010152601f8019910116010190565b602081830181015184830182015201611ee0565b906007821015610eef5752565b90600182811c92168015611f52575b6020831014611f3c57565b634e487b7160e01b600052602260045260246000fd5b91607f1691611f31565b90601f8019910116810190811067ffffffffffffffff8211176104fc57604052565b9060405191826000825492611f9284611f22565b9081845260019485811690816000146120015750600114611fbe575b5050611fbc92500383611f5c565b565b9093915060005260209081600020936000915b818310611fe9575050611fbc93508201013880611fae565b85548884018501529485019487945091830191611fd1565b915050611fbc94506020925060ff191682840152151560051b8201013880611fae565b6000546001600160a01b0316330361203857565b60405163118cdaa760e01b8152336004820152602490fd5b1561205757565b60405162461bcd60e51b8152602060048201526013602482015272141c9a58d94819995959081c995c5d5a5c9959606a1b6044820152606490fd5b919082018092116105ed57565b156120a657565b60405162461bcd60e51b815260206004820152600f60248201526e22bc3834b93c903a37b79039b7b7b760891b6044820152606490fd5b906007811015610eef5760ff80198354169116179055565b60001981146105ed5760010190565b908060209392818452848401376000828201840152601f01601f1916010190565b3d15612160573d9067ffffffffffffffff82116104fc5760405191612154601f8201601f191660200184611f5c565b82523d6000602084013e565b606090565b919082039182116105ed57565b600260015414612183576002600155565b604051633ee5aeb560e01b8152600490fd5b1561219c57565b60405162461bcd60e51b815260206004820152600a6024820152694d61726b657420444e4560b01b6044820152606490fd5b156121d557565b60405162461bcd60e51b815260206004820152600f60248201526e26b0b935b2ba103737ba1027b832b760891b6044820152606490fd5b818102929181159184041417156105ed57565b8115612229570490565b634e487b7160e01b600052601260045260246000fd5b604051906040820182811067ffffffffffffffff8211176104fc57604052600d82526c5f50524943455f41424f56455f60981b6020830152565b519069ffffffffffffffffffff821682036101d557565b908160a09103126101d5576122a481612279565b916020820151916040810151916122c2608060608401519301612279565b90565b156122cc57565b60405162461bcd60e51b81526020600482015260156024820152744f7261636c65206461746120746f6f207374616c6560581b6044820152606490fd5b1561231057565b60405162461bcd60e51b815260206004820152600b60248201526a139bdd08195e1c1a5c995960aa1b6044820152606490fd5b600060443d106122c257604051600319913d83016004833e815167ffffffffffffffff918282113d6024840111176123a1578184019485519384116123a9573d850101602084870101116123a157506122c292910160200190611f5c565b949350505050565b50949350505050565b600090815260026020526040812060ff600f82015416158015612522575b61251c57819260018060a01b03168252600a8101602052604082205490600b810160205260408320549260ff600d830154169060078210156124fc5760048203612421575050506122c29250612092565b80949294600283148015612510575b1561248b57505050508015158061247e575b61244b57505090565b8091925091600981015480612461575b50505090565b612476935090600861154a611553938561220c565b38808061245b565b5060088201541515612442565b90919293506124fc5750600381149081156124f1575b506124ac575b505090565b801515806124e4575b156124a75780919250916008810154806124cf5750505090565b612476935090600961154a611553938561220c565b50600982015415156124b5565b6006915014386124a1565b634e487b7160e01b81526021600452602490fd5b50508060058314612430565b50905090565b506001600160a01b0383168252600c8101602052604082205460ff166123d0565b908151811015612554570160200190565b634e487b7160e01b600052603260045260246000fd5b90805180156125f957825110612613576000905b61258b8351825190612165565b821161260b5760019260005b8251811015612601576001600160f81b0319806125bd6125b78488612092565b85612543565b5116906125ca8386612543565b5116036125df576125da906120f5565b612597565b5092509060005b6125f9576125f3906120f5565b9061257e565b505050600190565b50929190916125e6565b505050600090565b505060009056fe075615139ef09288348a86c4ccfdd482a2a472b9eabc311f28548d520e51aaf5a264697066735822122071c69060638f006b84573e38203f94c26b191270a8bdf835859f46da54bfc1b564736f6c63430008140033",
  "linkReferences": {},
  "deployedLinkReferences": {}
}