{
  "_format": "hh-sol-artifact-1",
  "contractName": "PredictionMarketP2P",
  "sourceName": "contracts/PredictionMarketP2P.sol",
  "abi": [
    {
      "inputs": [
        {
          "internalType": "address payable",
          "name": "_initialPlatformFeeWallet",
          "type": "address"
        },
        {
          "internalType": "uint16",
          "name": "_initialPlatformFeeBP",
          "type": "uint16"
        },
        {
          "internalType": "uint256",
          "name": "_initialMarketCreationListingFee",
          "type": "uint256"
        }
      ],
      "stateMutability": "nonpayable",
      "type": "constructor"
    },
    {
      "inputs": [
        {
          "internalType": "address",
          "name": "owner",
          "type": "address"
        }
      ],
      "name": "OwnableInvalidOwner",
      "type": "error"
    },
    {
      "inputs": [
        {
          "internalType": "address",
          "name": "account",
          "type": "address"
        }
      ],
      "name": "OwnableUnauthorizedAccount",
      "type": "error"
    },
    {
      "inputs": [],
      "name": "ReentrancyGuardReentrantCall",
      "type": "error"
    },
    {
      "anonymous": false,
      "inputs": [
        {
          "indexed": true,
          "internalType": "uint256",
          "name": "marketId",
          "type": "uint256"
        },
        {
          "indexed": true,
          "internalType": "address",
          "name": "bettor",
          "type": "address"
        },
        {
          "indexed": false,
          "internalType": "bool",
          "name": "predictedYes",
          "type": "bool"
        },
        {
          "indexed": false,
          "internalType": "uint256",
          "name": "grossAmount",
          "type": "uint256"
        },
        {
          "indexed": false,
          "internalType": "uint256",
          "name": "netAmountPooled",
          "type": "uint256"
        },
        {
          "indexed": false,
          "internalType": "uint256",
          "name": "feeAmount",
          "type": "uint256"
        }
      ],
      "name": "BetPlaced",
      "type": "event"
    },
    {
      "anonymous": false,
      "inputs": [
        {
          "indexed": true,
          "internalType": "uint256",
          "name": "marketId",
          "type": "uint256"
        },
        {
          "indexed": false,
          "internalType": "bool",
          "name": "conditionMetAndResolved",
          "type": "bool"
        },
        {
          "indexed": false,
          "internalType": "enum PredictionMarketP2P.MarketState",
          "name": "resultingState",
          "type": "uint8"
        },
        {
          "indexed": false,
          "internalType": "int256",
          "name": "oraclePriceObserved",
          "type": "int256"
        }
      ],
      "name": "EarlyResolutionAttempt",
      "type": "event"
    },
    {
      "anonymous": false,
      "inputs": [
        {
          "indexed": true,
          "internalType": "uint256",
          "name": "id",
          "type": "uint256"
        },
        {
          "indexed": false,
          "internalType": "string",
          "name": "assetSymbol",
          "type": "string"
        },
        {
          "indexed": false,
          "internalType": "address",
          "name": "priceFeedAddress",
          "type": "address"
        },
        {
          "indexed": false,
          "internalType": "uint256",
          "name": "targetPrice",
          "type": "uint256"
        },
        {
          "indexed": false,
          "internalType": "uint256",
          "name": "expiryTimestamp",
          "type": "uint256"
        },
        {
          "indexed": false,
          "internalType": "bool",
          "name": "isEventMarket",
          "type": "bool"
        },
        {
          "indexed": false,
          "internalType": "uint256",
          "name": "creationTimestamp",
          "type": "uint256"
        }
      ],
      "name": "MarketCreated",
      "type": "event"
    },
    {
      "anonymous": false,
      "inputs": [
        {
          "indexed": false,
          "internalType": "uint256",
          "name": "newFee",
          "type": "uint256"
        }
      ],
      "name": "MarketCreationListingFeeSet",
      "type": "event"
    },
    {
      "anonymous": false,
      "inputs": [
        {
          "indexed": true,
          "internalType": "uint256",
          "name": "marketId",
          "type": "uint256"
        },
        {
          "indexed": false,
          "internalType": "enum PredictionMarketP2P.MarketState",
          "name": "outcomeState",
          "type": "uint8"
        },
        {
          "indexed": false,
          "internalType": "int256",
          "name": "actualValue",
          "type": "int256"
        }
      ],
      "name": "MarketResolved",
      "type": "event"
    },
    {
      "anonymous": false,
      "inputs": [
        {
          "indexed": true,
          "internalType": "address",
          "name": "previousOwner",
          "type": "address"
        },
        {
          "indexed": true,
          "internalType": "address",
          "name": "newOwner",
          "type": "address"
        }
      ],
      "name": "OwnershipTransferred",
      "type": "event"
    },
    {
      "anonymous": false,
      "inputs": [
        {
          "indexed": false,
          "internalType": "uint16",
          "name": "newFeeBasisPoints",
          "type": "uint16"
        }
      ],
      "name": "PlatformFeeSet",
      "type": "event"
    },
    {
      "anonymous": false,
      "inputs": [
        {
          "indexed": true,
          "internalType": "address",
          "name": "newWallet",
          "type": "address"
        }
      ],
      "name": "PlatformFeeWalletSet",
      "type": "event"
    },
    {
      "anonymous": false,
      "inputs": [
        {
          "indexed": true,
          "internalType": "uint256",
          "name": "id",
          "type": "uint256"
        },
        {
          "indexed": true,
          "internalType": "address",
          "name": "marketCreator",
          "type": "address"
        },
        {
          "indexed": false,
          "internalType": "string",
          "name": "assetSymbol",
          "type": "string"
        },
        {
          "indexed": false,
          "internalType": "address",
          "name": "priceFeedAddress",
          "type": "address"
        },
        {
          "indexed": false,
          "internalType": "uint256",
          "name": "targetPrice",
          "type": "uint256"
        },
        {
          "indexed": false,
          "internalType": "uint256",
          "name": "expiryTimestamp",
          "type": "uint256"
        },
        {
          "indexed": false,
          "internalType": "bool",
          "name": "isEventMarket",
          "type": "bool"
        },
        {
          "indexed": false,
          "internalType": "uint16",
          "name": "creatorFeeBasisPoints",
          "type": "uint16"
        },
        {
          "indexed": false,
          "internalType": "uint256",
          "name": "creationTimestamp",
          "type": "uint256"
        }
      ],
      "name": "UserMarketCreated",
      "type": "event"
    },
    {
      "anonymous": false,
      "inputs": [
        {
          "indexed": true,
          "internalType": "uint256",
          "name": "marketId",
          "type": "uint256"
        },
        {
          "indexed": true,
          "internalType": "address",
          "name": "bettor",
          "type": "address"
        },
        {
          "indexed": false,
          "internalType": "uint256",
          "name": "payoutAmount",
          "type": "uint256"
        }
      ],
      "name": "WinningsClaimed",
      "type": "event"
    },
    {
      "inputs": [],
      "name": "MAX_CREATOR_FEE_BASIS_POINTS",
      "outputs": [
        {
          "internalType": "uint16",
          "name": "",
          "type": "uint16"
        }
      ],
      "stateMutability": "view",
      "type": "function"
    },
    {
      "inputs": [],
      "name": "MAX_ORACLE_STALENESS_FOR_EARLY_RESOLUTION",
      "outputs": [
        {
          "internalType": "uint256",
          "name": "",
          "type": "uint256"
        }
      ],
      "stateMutability": "view",
      "type": "function"
    },
    {
      "inputs": [],
      "name": "MAX_ORACLE_STALENESS_FOR_REGULAR_RESOLUTION",
      "outputs": [
        {
          "internalType": "uint256",
          "name": "",
          "type": "uint256"
        }
      ],
      "stateMutability": "view",
      "type": "function"
    },
    {
      "inputs": [
        {
          "internalType": "uint256",
          "name": "_marketId",
          "type": "uint256"
        }
      ],
      "name": "claimWinnings",
      "outputs": [],
      "stateMutability": "nonpayable",
      "type": "function"
    },
    {
      "inputs": [
        {
          "internalType": "string",
          "name": "_assetSymbol",
          "type": "string"
        },
        {
          "internalType": "address",
          "name": "_priceFeedAddress",
          "type": "address"
        },
        {
          "internalType": "uint256",
          "name": "_targetPrice",
          "type": "uint256"
        },
        {
          "internalType": "uint256",
          "name": "_expiryTimestamp",
          "type": "uint256"
        },
        {
          "internalType": "bool",
          "name": "_isEventMarket",
          "type": "bool"
        }
      ],
      "name": "createMarket",
      "outputs": [],
      "stateMutability": "nonpayable",
      "type": "function"
    },
    {
      "inputs": [
        {
          "internalType": "string",
          "name": "_assetSymbol",
          "type": "string"
        },
        {
          "internalType": "address",
          "name": "_priceFeedAddress",
          "type": "address"
        },
        {
          "internalType": "uint256",
          "name": "_targetPrice",
          "type": "uint256"
        },
        {
          "internalType": "uint256",
          "name": "_expiryTimestamp",
          "type": "uint256"
        },
        {
          "internalType": "bool",
          "name": "_isEventMarket",
          "type": "bool"
        },
        {
          "internalType": "uint16",
          "name": "_creatorFeeBP",
          "type": "uint16"
        }
      ],
      "name": "createUserMarket",
      "outputs": [],
      "stateMutability": "payable",
      "type": "function"
    },
    {
      "inputs": [
        {
          "internalType": "uint256",
          "name": "_marketId",
          "type": "uint256"
        },
        {
          "internalType": "address",
          "name": "_user",
          "type": "address"
        }
      ],
      "name": "didUserClaim",
      "outputs": [
        {
          "internalType": "bool",
          "name": "",
          "type": "bool"
        }
      ],
      "stateMutability": "view",
      "type": "function"
    },
    {
      "inputs": [
        {
          "internalType": "uint256",
          "name": "_marketId",
          "type": "uint256"
        },
        {
          "internalType": "address",
          "name": "_user",
          "type": "address"
        }
      ],
      "name": "getClaimableAmount",
      "outputs": [
        {
          "internalType": "uint256",
          "name": "",
          "type": "uint256"
        }
      ],
      "stateMutability": "view",
      "type": "function"
    },
    {
      "inputs": [
        {
          "internalType": "uint256",
          "name": "_marketId",
          "type": "uint256"
        }
      ],
      "name": "getMarketStaticDetails",
      "outputs": [
        {
          "internalType": "uint256",
          "name": "id",
          "type": "uint256"
        },
        {
          "internalType": "string",
          "name": "assetSymbol",
          "type": "string"
        },
        {
          "internalType": "address",
          "name": "priceFeedAddress",
          "type": "address"
        },
        {
          "internalType": "uint256",
          "name": "targetPrice",
          "type": "uint256"
        },
        {
          "internalType": "uint256",
          "name": "expiryTimestamp",
          "type": "uint256"
        },
        {
          "internalType": "uint256",
          "name": "resolutionTimestamp",
          "type": "uint256"
        },
        {
          "internalType": "uint256",
          "name": "totalStakedYes",
          "type": "uint256"
        },
        {
          "internalType": "uint256",
          "name": "totalStakedNo",
          "type": "uint256"
        },
        {
          "internalType": "enum PredictionMarketP2P.MarketState",
          "name": "state",
          "type": "uint8"
        },
        {
          "internalType": "int256",
          "name": "actualOutcomeValue",
          "type": "int256"
        },
        {
          "internalType": "bool",
          "name": "exists",
          "type": "bool"
        },
        {
          "internalType": "bool",
          "name": "isEventMarket",
          "type": "bool"
        },
        {
          "internalType": "uint256",
          "name": "creationTimestamp",
          "type": "uint256"
        }
      ],
      "stateMutability": "view",
      "type": "function"
    },
    {
      "inputs": [
        {
          "internalType": "uint256",
          "name": "_marketId",
          "type": "uint256"
        },
        {
          "internalType": "address",
          "name": "_user",
          "type": "address"
        }
      ],
      "name": "getUserStakeInMarket",
      "outputs": [
        {
          "internalType": "uint256",
          "name": "stakeYes",
          "type": "uint256"
        },
        {
          "internalType": "uint256",
          "name": "stakeNo",
          "type": "uint256"
        }
      ],
      "stateMutability": "view",
      "type": "function"
    },
    {
      "inputs": [],
      "name": "marketCreationListingFee",
      "outputs": [
        {
          "internalType": "uint256",
          "name": "",
          "type": "uint256"
        }
      ],
      "stateMutability": "view",
      "type": "function"
    },
    {
      "inputs": [
        {
          "internalType": "uint256",
          "name": "",
          "type": "uint256"
        }
      ],
      "name": "markets",
      "outputs": [
        {
          "internalType": "uint256",
          "name": "id",
          "type": "uint256"
        },
        {
          "internalType": "string",
          "name": "assetSymbol",
          "type": "string"
        },
        {
          "internalType": "contract AggregatorV3Interface",
          "name": "priceFeed",
          "type": "address"
        },
        {
          "internalType": "uint256",
          "name": "targetPrice",
          "type": "uint256"
        },
        {
          "internalType": "uint256",
          "name": "expiryTimestamp",
          "type": "uint256"
        },
        {
          "internalType": "uint256",
          "name": "resolutionTimestamp",
          "type": "uint256"
        },
        {
          "internalType": "uint256",
          "name": "creationTimestamp",
          "type": "uint256"
        },
        {
          "internalType": "bool",
          "name": "isEventMarket",
          "type": "bool"
        },
        {
          "internalType": "address payable",
          "name": "marketCreator",
          "type": "address"
        },
        {
          "internalType": "uint16",
          "name": "creatorFeeBasisPoints",
          "type": "uint16"
        },
        {
          "internalType": "bool",
          "name": "isUserCreated",
          "type": "bool"
        },
        {
          "internalType": "uint256",
          "name": "totalStakedYes",
          "type": "uint256"
        },
        {
          "internalType": "uint256",
          "name": "totalStakedNo",
          "type": "uint256"
        },
        {
          "internalType": "enum PredictionMarketP2P.MarketState",
          "name": "state",
          "type": "uint8"
        },
        {
          "internalType": "int256",
          "name": "actualOutcomeValue",
          "type": "int256"
        },
        {
          "internalType": "bool",
          "name": "exists",
          "type": "bool"
        }
      ],
      "stateMutability": "view",
      "type": "function"
    },
    {
      "inputs": [],
      "name": "nextMarketId",
      "outputs": [
        {
          "internalType": "uint256",
          "name": "",
          "type": "uint256"
        }
      ],
      "stateMutability": "view",
      "type": "function"
    },
    {
      "inputs": [],
      "name": "owner",
      "outputs": [
        {
          "internalType": "address",
          "name": "",
          "type": "address"
        }
      ],
      "stateMutability": "view",
      "type": "function"
    },
    {
      "inputs": [
        {
          "internalType": "uint256",
          "name": "_marketId",
          "type": "uint256"
        },
        {
          "internalType": "enum PredictionMarketP2P.MarketState",
          "name": "_outcomeState",
          "type": "uint8"
        }
      ],
      "name": "ownerResolveEventMarket",
      "outputs": [],
      "stateMutability": "nonpayable",
      "type": "function"
    },
    {
      "inputs": [
        {
          "internalType": "uint256",
          "name": "_marketId",
          "type": "uint256"
        },
        {
          "internalType": "bool",
          "name": "_predictYes",
          "type": "bool"
        }
      ],
      "name": "placeBet",
      "outputs": [],
      "stateMutability": "payable",
      "type": "function"
    },
    {
      "inputs": [],
      "name": "platformFeeBasisPoints",
      "outputs": [
        {
          "internalType": "uint16",
          "name": "",
          "type": "uint16"
        }
      ],
      "stateMutability": "view",
      "type": "function"
    },
    {
      "inputs": [],
      "name": "platformFeeWallet",
      "outputs": [
        {
          "internalType": "address payable",
          "name": "",
          "type": "address"
        }
      ],
      "stateMutability": "view",
      "type": "function"
    },
    {
      "inputs": [],
      "name": "renounceOwnership",
      "outputs": [],
      "stateMutability": "nonpayable",
      "type": "function"
    },
    {
      "inputs": [
        {
          "internalType": "uint256",
          "name": "_marketId",
          "type": "uint256"
        }
      ],
      "name": "resolvePriceFeedMarket",
      "outputs": [],
      "stateMutability": "nonpayable",
      "type": "function"
    },
    {
      "inputs": [
        {
          "internalType": "uint256",
          "name": "_newListingFee",
          "type": "uint256"
        }
      ],
      "name": "setMarketCreationListingFee",
      "outputs": [],
      "stateMutability": "nonpayable",
      "type": "function"
    },
    {
      "inputs": [
        {
          "internalType": "uint16",
          "name": "_newFeeBasisPoints",
          "type": "uint16"
        }
      ],
      "name": "setPlatformFee",
      "outputs": [],
      "stateMutability": "nonpayable",
      "type": "function"
    },
    {
      "inputs": [
        {
          "internalType": "address",
          "name": "newOwner",
          "type": "address"
        }
      ],
      "name": "transferOwnership",
      "outputs": [],
      "stateMutability": "nonpayable",
      "type": "function"
    },
    {
      "inputs": [
        {
          "internalType": "uint256",
          "name": "_marketId",
          "type": "uint256"
        }
      ],
      "name": "triggerEarlyPriceResolution",
      "outputs": [],
      "stateMutability": "nonpayable",
      "type": "function"
    },
    {
      "inputs": [
        {
          "internalType": "address payable",
          "name": "_to",
          "type": "address"
        }
      ],
      "name": "withdrawStuckEther",
      "outputs": [],
      "stateMutability": "nonpayable",
      "type": "function"
    }
  ],
  "bytecode": "0x60803461019257601f6118d938819003918201601f191683019291906001600160401b038411838510176101975781606092849260409687528339810103126101925780516001600160a01b039190828116908190036101925760208201519161ffff8316908184036101925785015193331561017a576000543360018060a01b03198216176000558651913391167f8be0079c531659141344cd1fd0a4f28419497f9722a3daafe3b4186f6b6457e0600080a360018055821561013857506103e8106100f4576004549161ffff60a01b9060a01b169160018060b01b03191617176004556005555161172b90816101ae8239f35b835162461bcd60e51b815260206004820152601f60248201527f506c6174666f726d2066656520746f6f206869676820286d61782031302529006044820152606490fd5b62461bcd60e51b815260206004820152601b60248201527f496e76616c696420706c6174666f726d206665652077616c6c657400000000006044820152606490fd5b8551631e4fbdf760e01b815260006004820152602490fd5b600080fd5b634e487b7160e01b600052604160045260246000fdfe608080604052600436101561001357600080fd5b60003560e01c9081630e665355146111a6575080631c1695ba1461117a5780631f08db6f14610ec357806326a15bb314610dcd57806326ccd77a14610da0578063406ef2ef14610d82578063460c69d114610d645780635cbc742c14610ca75780636312523714610c8a578063677bd9ff14610b4e578063715018a614610c315780637416927914610be157806378c5195e14610bb35780638664aa1814610b965780638da5cb5b14610b6d5780639a3a40d614610b4e5780639ce2e95714610b4e5780639ed9c74d14610864578063b1283e771461074b578063b5a9193a1461072d578063c58bfb6614610708578063e20fc118146106df578063f2fde38b1461064f578063f8ae28fd146101835763ffa361631461013257600080fd5b3461017e57602036600319011261017e577f7ebe81e189d20a78827cc700f87cf9fa63eda3f4b4c011efbbbd87213b235fc660206004356101716113b7565b80600555604051908152a1005b600080fd5b60c036600319011261017e5767ffffffffffffffff60043581811161017e576101b0903690600401611215565b906101b96111ff565b916101c2611243565b9161ffff60a4351660a4350361017e576101da6114ed565b60055480341061060a5761012c61ffff60a43516116105c55783156105ac575b6103844201804211610596576102139060643511611432565b80610526575b506005548034116104bb575b506003549261023384611470565b60035583600052600260205260406000209584875583116104a55761025b60018701546112b5565b601f811161045e575b50600095601f84116001146103cf57837faa4587dcebe9af10d599db0c2b5c4f6903c291413e68b36fe910e8540cc7b4069596976000916103c4575b508460011b906000198660031b1c19161760018201555b81156103a2575b610360604435918260038201556064356004820155600681019042825560078101906102f686839060ff801983541691151516179055565b600d8101805460ff19908116909155600f9190910180549091166001179055805460a43560a81b61ffff60a81b16610100600160c01b03199091163360081b610100600160a81b03161717600160b81b1790555460405160e080825290969195908701919061147f565b6001600160a01b039097166020850152604084015260643560608401521515608083015260a43561ffff1660a083015260c0820152339381900390a360018055005b6002810180546001600160a01b0319166001600160a01b0389161790556102be565b9050830135886102a0565b60018101600052602060002060005b601f198616811061044657507faa4587dcebe9af10d599db0c2b5c4f6903c291413e68b36fe910e8540cc7b40695969785601f1981161061042c575b5050600184811b0160018201556102b7565b840135600019600387901b60f8161c19169055878061041a565b848901358255602098890198600190920191016103de565b600187016000526020600020601f850160051c81016020861061049e575b601f830160051c82018110610492575050610264565b6000815560010161047c565b508061047c565b634e487b7160e01b600052604160045260246000fd5b600080806104ca8194346114e0565b335af16104d56114a0565b50156104e15785610225565b60405162461bcd60e51b815260206004820152601860248201527f4578636573732066656520726566756e64206661696c656400000000000000006044820152606490fd5b6004546000918291829182916001600160a01b03165af16105456114a0565b50156105515785610219565b60405162461bcd60e51b815260206004820152601b60248201527f4c697374696e6720666565207472616e73666572206661696c656400000000006044820152606490fd5b634e487b7160e01b600052601160045260246000fd5b6105c06001600160a01b03861615156113e3565b6101fa565b60405162461bcd60e51b815260206004820152601c60248201527f43726561746f72206665652065786365656473206d61782028332529000000006044820152606490fd5b60405162461bcd60e51b815260206004820152601860248201527f496e73756666696369656e74206c697374696e672066656500000000000000006044820152606490fd5b3461017e57602036600319011261017e576004356001600160a01b038181169182900361017e5761067e6113b7565b81156106c657600054826bffffffffffffffffffffffff60a01b821617600055167f8be0079c531659141344cd1fd0a4f28419497f9722a3daafe3b4186f6b6457e0600080a3005b604051631e4fbdf760e01b815260006004820152602490fd5b3461017e57600036600319011261017e576004546040516001600160a01b039091168152602090f35b3461017e57600036600319011261017e57602061ffff60045460a01c16604051908152f35b3461017e57600036600319011261017e576020600554604051908152f35b3461017e57602036600319011261017e576004356000526002602052604060002080546001820161077b90611311565b90600160a01b600190038060028501541693600381015491600482015490600583015490600684015490600785015490600886015492600987015494600d88015460ff1696600e89015498600f015460ff16996040519d8e9d8e9d8e528d61020090816020820152016107ed91611252565b9c6040015260608d015260808c015260a08b015260c08a015260ff8216151560e08a01528160081c166101008901528060a81c61ffff1661012089015260b81c60ff1615156101408801526101608701526101808601526101a0850161085291611292565b6101c084015215156101e08301520390f35b604036600319011261017e5760248035801515916004359183810361017e5761088b6114ed565b8260005260206002815260406000206108aa60ff600f83015416611510565b60ff600d820154166007811015610b3957610b03576004810154421015610ace573415610a965760078101549334939060008060b888901c60ff168080610a86575b15610a375750505061271061090861ffff8860a81c1687611549565b049560081c6001600160a01b0316905b86806109ca575b5050506000146109985760089033600052600a810183526040600020610946858254611425565b905501610954838254611425565b90555b6040519485523490850152604084015260608301527f1faf624c13819091a75aa5abee6c43a2226da9b9475e62bdfc87bef2889b509660803393a360018055005b60099033600052600b8101835260406000206109b5858254611425565b9055016109c3838254611425565b9055610957565b600080826109dd8295969a9483956114e0565b996001600160a01b03165af16109f16114a0565b50156109fe57808661091f565b8360136064926040519262461bcd60e51b8452600484015282015272119959481d1c985b9cd9995c8819985a5b1959606a1b6044820152fd5b90929197501580610a74575b156109185795505060045494612710610a6361ffff8860a01c1687611549565b04956001600160a01b031690610918565b5061ffff60045460a01c161515610a43565b5061ffff8960a81c1615156108ec565b60405162461bcd60e51b8152600481018390526011818601527005374616b65206d757374206265203e203607c1b6044820152606490fd5b60405162461bcd60e51b815260048101839052600e818601526d13585c9ad95d08195e1c1a5c995960921b6044820152606490fd5b60405162461bcd60e51b815260048101839052600f818601526e26b0b935b2ba103737ba1027b832b760891b6044820152606490fd5b84634e487b7160e01b60005260216004526000fd5b3461017e57602036600319011261017e57610b676114ed565b60018055005b3461017e57600036600319011261017e576000546040516001600160a01b039091168152602090f35b3461017e57600036600319011261017e57602060405161012c8152f35b3461017e57604036600319011261017e576020610bd9610bd16111ff565b60043561157c565b604051908152f35b3461017e57604036600319011261017e57610bfa6111ff565b6004356000526002602052600c6040600020019060018060a01b0316600052602052602060ff604060002054166040519015158152f35b3461017e57600036600319011261017e57610c4a6113b7565b600080546001600160a01b0319811682556001600160a01b03167f8be0079c531659141344cd1fd0a4f28419497f9722a3daafe3b4186f6b6457e08280a3005b3461017e57600036600319011261017e5760206040516138408152f35b3461017e57602036600319011261017e5760043561ffff81169081810361017e57610cd06113b7565b6103e88211610d26576004805461ffff60a01b191660a09290921b61ffff60a01b169190911790556040519081527f1426859b6b96e2e9ae302b23a42f763f4b0ae916a71a093e61c77120458b2e9590602090a1005b60405162461bcd60e51b815260206004820152601660248201527546656520746f6f206869676820286d6178203130252960501b6044820152606490fd5b3461017e57600036600319011261017e576020604051620151808152f35b3461017e57600036600319011261017e576020600354604051908152f35b3461017e57602036600319011261017e576004356001600160a01b0381160361017e57610dcb6113b7565b005b3461017e57602036600319011261017e5760043560005260026020526040600020600f81015460ff1690610e0082611510565b805490600160a01b6001900360028201541690600381015493600482015490600583015460088401546009850154600d86015460ff1691600e87015493600788015460ff1696600689015498600101610e5890611311565b9b6040519c8d9c8d528c6101a06020819201528d01610e7691611252565b9a60408d015260608c015260808b015260a08a015260c089015260e08801526101008701610ea391611292565b610120860152151561014085015215156101608401526101808301520390f35b3461017e5760a036600319011261017e5767ffffffffffffffff60043581811161017e57610ef5903690600401611215565b9190610eff6111ff565b92610f08611243565b93610f116113b7565b8415611161575b610384420180421161059657610f319060643511611432565b60035493610f3e85611470565b60035584600052600260205260406000209085825583116104a557610f6660018201546112b5565b601f8111611118575b50600095601f841160011461108a57837fec86006df3e8f32dd47d3fe0c82d1c601f54bf982c1503b5d6e31bc215137aa0969760009161107f575b508460011b906000198660031b1c19161760018301555b801561105d575b6044359182600382015560643560048201556006810190428255610ffb83600783019060ff801983541691151516179055565b6001600f600d83019260ff19938481541690550191825416179055549161102f60405196879660c0885260c088019161147f565b6001600160a01b039094166020860152604085015260643560608501521515608084015260a08301520390a2005b6002820180546001600160a01b0319166001600160a01b038516179055610fc8565b905085013588610faa565b60018201600052602060002060005b601f198616811061110057507fec86006df3e8f32dd47d3fe0c82d1c601f54bf982c1503b5d6e31bc215137aa0969785601f198116106110e6575b5050600184811b016001830155610fc1565b860135600019600387901b60f8161c1916905587806110d4565b86890135825560209889019860019092019101611099565b600182016000526020600020601f850160051c81016020861061115a575b601f90920160051c01905b81811061114e5750610f6f565b60008155600101611141565b5080611136565b6111756001600160a01b03821615156113e3565b610f18565b3461017e57604036600319011261017e576007602435101561017e5761119e6113b7565b610b676114ed565b3461017e57604036600319011261017e576040906111c26111ff565b6004356000526002602052826000209060018060a01b0316600052600a8101602052600b8360002054910160205282600020549082526020820152f35b602435906001600160a01b038216820361017e57565b9181601f8401121561017e5782359167ffffffffffffffff831161017e576020838186019501011161017e57565b60843590811515820361017e57565b919082519283825260005b84811061127e575050826000602080949584010152601f8019910116010190565b60208183018101518483018201520161125d565b90600782101561129f5752565b634e487b7160e01b600052602160045260246000fd5b90600182811c921680156112e5575b60208310146112cf57565b634e487b7160e01b600052602260045260246000fd5b91607f16916112c4565b90601f8019910116810190811067ffffffffffffffff8211176104a557604052565b9060405191826000825492611325846112b5565b9081845260019485811690816000146113945750600114611351575b505061134f925003836112ef565b565b9093915060005260209081600020936000915b81831061137c57505061134f93508201013880611341565b85548884018501529485019487945091830191611364565b91505061134f94506020925060ff191682840152151560051b8201013880611341565b6000546001600160a01b031633036113cb57565b60405163118cdaa760e01b8152336004820152602490fd5b156113ea57565b60405162461bcd60e51b8152602060048201526013602482015272141c9a58d94819995959081c995c5d5a5c9959606a1b6044820152606490fd5b9190820180921161059657565b1561143957565b60405162461bcd60e51b815260206004820152600f60248201526e22bc3834b93c903a37b79039b7b7b760891b6044820152606490fd5b60001981146105965760010190565b908060209392818452848401376000828201840152601f01601f1916010190565b3d156114db573d9067ffffffffffffffff82116104a557604051916114cf601f8201601f1916602001846112ef565b82523d6000602084013e565b606090565b9190820391821161059657565b6002600154146114fe576002600155565b604051633ee5aeb560e01b8152600490fd5b1561151757565b60405162461bcd60e51b815260206004820152600a6024820152694d61726b657420444e4560b01b6044820152606490fd5b8181029291811591840414171561059657565b8115611566570490565b634e487b7160e01b600052601260045260246000fd5b600090815260026020526040812060ff600f820154161580156116d4575b6116ce57819260018060a01b03168252600a8101602052604082205490600b810160205260408320549260ff600d830154169060078210156116ae57600482036115ee575050506115eb9250611425565b90565b80949293946002831480156116c2575b1561164e575050505081151580611641575b61161957505090565b6115eb9250806008611632600961163b94015485611549565b9101549061155c565b90611425565b5060088101541515611610565b90919294506116ae5750600381149081156116a3575b5061166f575b505090565b81151580611696575b1561166a576115eb9250806009611632600861163b94015485611549565b5060098101541515611678565b600691501438611664565b634e487b7160e01b81526021600452602490fd5b505080600583146115fe565b50905090565b506001600160a01b0383168252600c8101602052604082205460ff1661159a56fea2646970667358221220aa869af8fee58bee87036a9ff74d3267ffe3f21d665f9b375e2236ce774d48fd64736f6c63430008140033",
  "linkReferences": {},
  "deployedLinkReferences": {}
}