{
  "_format": "hh-sol-artifact-1",
  "contractName": "PredictionMarketP2P",
  "sourceName": "contracts/PredictionMarketP2P.sol",
  "abi": [
    {
      "inputs": [
        {
          "internalType": "address payable",
          "name": "_initialPlatformFeeWallet",
          "type": "address"
        },
        {
          "internalType": "uint16",
          "name": "_initialPlatformFeeBP",
          "type": "uint16"
        },
        {
          "internalType": "uint256",
          "name": "_initialMarketCreationListingFee",
          "type": "uint256"
        }
      ],
      "stateMutability": "nonpayable",
      "type": "constructor"
    },
    {
      "inputs": [
        {
          "internalType": "address",
          "name": "owner",
          "type": "address"
        }
      ],
      "name": "OwnableInvalidOwner",
      "type": "error"
    },
    {
      "inputs": [
        {
          "internalType": "address",
          "name": "account",
          "type": "address"
        }
      ],
      "name": "OwnableUnauthorizedAccount",
      "type": "error"
    },
    {
      "inputs": [],
      "name": "ReentrancyGuardReentrantCall",
      "type": "error"
    },
    {
      "anonymous": false,
      "inputs": [
        {
          "indexed": true,
          "internalType": "uint256",
          "name": "marketId",
          "type": "uint256"
        },
        {
          "indexed": true,
          "internalType": "address",
          "name": "bettor",
          "type": "address"
        },
        {
          "indexed": false,
          "internalType": "bool",
          "name": "predictedYes",
          "type": "bool"
        },
        {
          "indexed": false,
          "internalType": "uint256",
          "name": "grossAmount",
          "type": "uint256"
        },
        {
          "indexed": false,
          "internalType": "uint256",
          "name": "netAmountPooled",
          "type": "uint256"
        },
        {
          "indexed": false,
          "internalType": "uint256",
          "name": "feeAmount",
          "type": "uint256"
        }
      ],
      "name": "BetPlaced",
      "type": "event"
    },
    {
      "anonymous": false,
      "inputs": [
        {
          "indexed": true,
          "internalType": "uint256",
          "name": "marketId",
          "type": "uint256"
        },
        {
          "indexed": false,
          "internalType": "bool",
          "name": "conditionMetAndResolved",
          "type": "bool"
        },
        {
          "indexed": false,
          "internalType": "enum PredictionMarketP2P.MarketState",
          "name": "resultingState",
          "type": "uint8"
        },
        {
          "indexed": false,
          "internalType": "int256",
          "name": "oraclePriceObserved",
          "type": "int256"
        }
      ],
      "name": "EarlyResolutionAttempt",
      "type": "event"
    },
    {
      "anonymous": false,
      "inputs": [
        {
          "indexed": true,
          "internalType": "uint256",
          "name": "id",
          "type": "uint256"
        },
        {
          "indexed": false,
          "internalType": "string",
          "name": "assetSymbol",
          "type": "string"
        },
        {
          "indexed": false,
          "internalType": "address",
          "name": "priceFeedAddress",
          "type": "address"
        },
        {
          "indexed": false,
          "internalType": "uint256",
          "name": "targetPrice",
          "type": "uint256"
        },
        {
          "indexed": false,
          "internalType": "uint256",
          "name": "expiryTimestamp",
          "type": "uint256"
        },
        {
          "indexed": false,
          "internalType": "bool",
          "name": "isEventMarket",
          "type": "bool"
        },
        {
          "indexed": false,
          "internalType": "uint256",
          "name": "creationTimestamp",
          "type": "uint256"
        }
      ],
      "name": "MarketCreated",
      "type": "event"
    },
    {
      "anonymous": false,
      "inputs": [
        {
          "indexed": false,
          "internalType": "uint256",
          "name": "newFee",
          "type": "uint256"
        }
      ],
      "name": "MarketCreationListingFeeSet",
      "type": "event"
    },
    {
      "anonymous": false,
      "inputs": [
        {
          "indexed": true,
          "internalType": "uint256",
          "name": "marketId",
          "type": "uint256"
        },
        {
          "indexed": false,
          "internalType": "enum PredictionMarketP2P.MarketState",
          "name": "outcomeState",
          "type": "uint8"
        },
        {
          "indexed": false,
          "internalType": "int256",
          "name": "actualValue",
          "type": "int256"
        }
      ],
      "name": "MarketResolved",
      "type": "event"
    },
    {
      "anonymous": false,
      "inputs": [
        {
          "indexed": true,
          "internalType": "address",
          "name": "previousOwner",
          "type": "address"
        },
        {
          "indexed": true,
          "internalType": "address",
          "name": "newOwner",
          "type": "address"
        }
      ],
      "name": "OwnershipTransferred",
      "type": "event"
    },
    {
      "anonymous": false,
      "inputs": [
        {
          "indexed": false,
          "internalType": "uint16",
          "name": "newFeeBasisPoints",
          "type": "uint16"
        }
      ],
      "name": "PlatformFeeSet",
      "type": "event"
    },
    {
      "anonymous": false,
      "inputs": [
        {
          "indexed": true,
          "internalType": "address",
          "name": "newWallet",
          "type": "address"
        }
      ],
      "name": "PlatformFeeWalletSet",
      "type": "event"
    },
    {
      "anonymous": false,
      "inputs": [
        {
          "indexed": true,
          "internalType": "uint256",
          "name": "id",
          "type": "uint256"
        },
        {
          "indexed": true,
          "internalType": "address",
          "name": "marketCreator",
          "type": "address"
        },
        {
          "indexed": false,
          "internalType": "string",
          "name": "assetSymbol",
          "type": "string"
        },
        {
          "indexed": false,
          "internalType": "address",
          "name": "priceFeedAddress",
          "type": "address"
        },
        {
          "indexed": false,
          "internalType": "uint256",
          "name": "targetPrice",
          "type": "uint256"
        },
        {
          "indexed": false,
          "internalType": "uint256",
          "name": "expiryTimestamp",
          "type": "uint256"
        },
        {
          "indexed": false,
          "internalType": "bool",
          "name": "isEventMarket",
          "type": "bool"
        },
        {
          "indexed": false,
          "internalType": "uint16",
          "name": "creatorFeeBasisPoints",
          "type": "uint16"
        },
        {
          "indexed": false,
          "internalType": "uint256",
          "name": "creationTimestamp",
          "type": "uint256"
        }
      ],
      "name": "UserMarketCreated",
      "type": "event"
    },
    {
      "anonymous": false,
      "inputs": [
        {
          "indexed": true,
          "internalType": "uint256",
          "name": "marketId",
          "type": "uint256"
        },
        {
          "indexed": true,
          "internalType": "address",
          "name": "bettor",
          "type": "address"
        },
        {
          "indexed": false,
          "internalType": "uint256",
          "name": "payoutAmount",
          "type": "uint256"
        }
      ],
      "name": "WinningsClaimed",
      "type": "event"
    },
    {
      "inputs": [],
      "name": "MAX_CREATOR_FEE_BASIS_POINTS",
      "outputs": [
        {
          "internalType": "uint16",
          "name": "",
          "type": "uint16"
        }
      ],
      "stateMutability": "view",
      "type": "function"
    },
    {
      "inputs": [],
      "name": "MAX_ORACLE_STALENESS_FOR_EARLY_RESOLUTION",
      "outputs": [
        {
          "internalType": "uint256",
          "name": "",
          "type": "uint256"
        }
      ],
      "stateMutability": "view",
      "type": "function"
    },
    {
      "inputs": [],
      "name": "MAX_ORACLE_STALENESS_FOR_REGULAR_RESOLUTION",
      "outputs": [
        {
          "internalType": "uint256",
          "name": "",
          "type": "uint256"
        }
      ],
      "stateMutability": "view",
      "type": "function"
    },
    {
      "inputs": [
        {
          "internalType": "uint256",
          "name": "_marketId",
          "type": "uint256"
        }
      ],
      "name": "claimWinnings",
      "outputs": [],
      "stateMutability": "nonpayable",
      "type": "function"
    },
    {
      "inputs": [
        {
          "internalType": "string",
          "name": "_assetSymbol",
          "type": "string"
        },
        {
          "internalType": "address",
          "name": "_priceFeedAddress",
          "type": "address"
        },
        {
          "internalType": "uint256",
          "name": "_targetPrice",
          "type": "uint256"
        },
        {
          "internalType": "uint256",
          "name": "_expiryTimestamp",
          "type": "uint256"
        },
        {
          "internalType": "bool",
          "name": "_isEventMarket",
          "type": "bool"
        }
      ],
      "name": "createMarket",
      "outputs": [],
      "stateMutability": "nonpayable",
      "type": "function"
    },
    {
      "inputs": [
        {
          "internalType": "string",
          "name": "_assetSymbol",
          "type": "string"
        },
        {
          "internalType": "address",
          "name": "_priceFeedAddress",
          "type": "address"
        },
        {
          "internalType": "uint256",
          "name": "_targetPrice",
          "type": "uint256"
        },
        {
          "internalType": "uint256",
          "name": "_expiryTimestamp",
          "type": "uint256"
        },
        {
          "internalType": "bool",
          "name": "_isEventMarket",
          "type": "bool"
        },
        {
          "internalType": "uint16",
          "name": "_creatorFeeBP",
          "type": "uint16"
        }
      ],
      "name": "createUserMarket",
      "outputs": [],
      "stateMutability": "payable",
      "type": "function"
    },
    {
      "inputs": [
        {
          "internalType": "uint256",
          "name": "_marketId",
          "type": "uint256"
        },
        {
          "internalType": "address",
          "name": "_user",
          "type": "address"
        }
      ],
      "name": "didUserClaim",
      "outputs": [
        {
          "internalType": "bool",
          "name": "",
          "type": "bool"
        }
      ],
      "stateMutability": "view",
      "type": "function"
    },
    {
      "inputs": [
        {
          "internalType": "uint256",
          "name": "_marketId",
          "type": "uint256"
        },
        {
          "internalType": "address",
          "name": "_user",
          "type": "address"
        }
      ],
      "name": "getClaimableAmount",
      "outputs": [
        {
          "internalType": "uint256",
          "name": "",
          "type": "uint256"
        }
      ],
      "stateMutability": "view",
      "type": "function"
    },
    {
      "inputs": [
        {
          "internalType": "uint256",
          "name": "_marketId",
          "type": "uint256"
        }
      ],
      "name": "getMarketStaticDetails",
      "outputs": [
        {
          "internalType": "uint256",
          "name": "id",
          "type": "uint256"
        },
        {
          "internalType": "string",
          "name": "assetSymbol",
          "type": "string"
        },
        {
          "internalType": "address",
          "name": "priceFeedAddress",
          "type": "address"
        },
        {
          "internalType": "uint256",
          "name": "targetPrice",
          "type": "uint256"
        },
        {
          "internalType": "uint256",
          "name": "expiryTimestamp",
          "type": "uint256"
        },
        {
          "internalType": "uint256",
          "name": "resolutionTimestamp",
          "type": "uint256"
        },
        {
          "internalType": "uint256",
          "name": "totalStakedYes",
          "type": "uint256"
        },
        {
          "internalType": "uint256",
          "name": "totalStakedNo",
          "type": "uint256"
        },
        {
          "internalType": "enum PredictionMarketP2P.MarketState",
          "name": "state",
          "type": "uint8"
        },
        {
          "internalType": "int256",
          "name": "actualOutcomeValue",
          "type": "int256"
        },
        {
          "internalType": "bool",
          "name": "exists",
          "type": "bool"
        },
        {
          "internalType": "bool",
          "name": "isEventMarket",
          "type": "bool"
        },
        {
          "internalType": "uint256",
          "name": "creationTimestamp",
          "type": "uint256"
        }
      ],
      "stateMutability": "view",
      "type": "function"
    },
    {
      "inputs": [
        {
          "internalType": "uint256",
          "name": "_offset",
          "type": "uint256"
        },
        {
          "internalType": "uint256",
          "name": "_limit",
          "type": "uint256"
        }
      ],
      "name": "getPaginatedMarketDetails",
      "outputs": [
        {
          "internalType": "uint256[]",
          "name": "ids",
          "type": "uint256[]"
        },
        {
          "internalType": "string[]",
          "name": "assetSymbols",
          "type": "string[]"
        },
        {
          "internalType": "address[]",
          "name": "priceFeedAddresses",
          "type": "address[]"
        },
        {
          "internalType": "uint256[]",
          "name": "targetPrices",
          "type": "uint256[]"
        },
        {
          "internalType": "uint256[]",
          "name": "expiryTimestamps",
          "type": "uint256[]"
        },
        {
          "internalType": "uint256[]",
          "name": "resolutionTimestamps",
          "type": "uint256[]"
        },
        {
          "internalType": "uint256[]",
          "name": "totalStakedYesArray",
          "type": "uint256[]"
        },
        {
          "internalType": "uint256[]",
          "name": "totalStakedNoArray",
          "type": "uint256[]"
        },
        {
          "internalType": "enum PredictionMarketP2P.MarketState[]",
          "name": "states",
          "type": "uint8[]"
        },
        {
          "internalType": "int256[]",
          "name": "actualOutcomeValues",
          "type": "int256[]"
        },
        {
          "internalType": "bool[]",
          "name": "existsArray",
          "type": "bool[]"
        },
        {
          "internalType": "bool[]",
          "name": "isEventMarkets",
          "type": "bool[]"
        },
        {
          "internalType": "uint256[]",
          "name": "creationTimestamps",
          "type": "uint256[]"
        }
      ],
      "stateMutability": "view",
      "type": "function"
    },
    {
      "inputs": [
        {
          "internalType": "uint256",
          "name": "_marketId",
          "type": "uint256"
        },
        {
          "internalType": "address",
          "name": "_user",
          "type": "address"
        }
      ],
      "name": "getUserStakeInMarket",
      "outputs": [
        {
          "internalType": "uint256",
          "name": "stakeYes",
          "type": "uint256"
        },
        {
          "internalType": "uint256",
          "name": "stakeNo",
          "type": "uint256"
        }
      ],
      "stateMutability": "view",
      "type": "function"
    },
    {
      "inputs": [],
      "name": "marketCreationListingFee",
      "outputs": [
        {
          "internalType": "uint256",
          "name": "",
          "type": "uint256"
        }
      ],
      "stateMutability": "view",
      "type": "function"
    },
    {
      "inputs": [
        {
          "internalType": "uint256",
          "name": "",
          "type": "uint256"
        }
      ],
      "name": "markets",
      "outputs": [
        {
          "internalType": "uint256",
          "name": "id",
          "type": "uint256"
        },
        {
          "internalType": "string",
          "name": "assetSymbol",
          "type": "string"
        },
        {
          "internalType": "contract AggregatorV3Interface",
          "name": "priceFeed",
          "type": "address"
        },
        {
          "internalType": "uint256",
          "name": "targetPrice",
          "type": "uint256"
        },
        {
          "internalType": "uint256",
          "name": "expiryTimestamp",
          "type": "uint256"
        },
        {
          "internalType": "uint256",
          "name": "resolutionTimestamp",
          "type": "uint256"
        },
        {
          "internalType": "uint256",
          "name": "creationTimestamp",
          "type": "uint256"
        },
        {
          "internalType": "bool",
          "name": "isEventMarket",
          "type": "bool"
        },
        {
          "internalType": "address payable",
          "name": "marketCreator",
          "type": "address"
        },
        {
          "internalType": "uint16",
          "name": "creatorFeeBasisPoints",
          "type": "uint16"
        },
        {
          "internalType": "bool",
          "name": "isUserCreated",
          "type": "bool"
        },
        {
          "internalType": "uint256",
          "name": "totalStakedYes",
          "type": "uint256"
        },
        {
          "internalType": "uint256",
          "name": "totalStakedNo",
          "type": "uint256"
        },
        {
          "internalType": "enum PredictionMarketP2P.MarketState",
          "name": "state",
          "type": "uint8"
        },
        {
          "internalType": "int256",
          "name": "actualOutcomeValue",
          "type": "int256"
        },
        {
          "internalType": "bool",
          "name": "exists",
          "type": "bool"
        }
      ],
      "stateMutability": "view",
      "type": "function"
    },
    {
      "inputs": [],
      "name": "nextMarketId",
      "outputs": [
        {
          "internalType": "uint256",
          "name": "",
          "type": "uint256"
        }
      ],
      "stateMutability": "view",
      "type": "function"
    },
    {
      "inputs": [],
      "name": "owner",
      "outputs": [
        {
          "internalType": "address",
          "name": "",
          "type": "address"
        }
      ],
      "stateMutability": "view",
      "type": "function"
    },
    {
      "inputs": [
        {
          "internalType": "uint256",
          "name": "_marketId",
          "type": "uint256"
        },
        {
          "internalType": "enum PredictionMarketP2P.MarketState",
          "name": "_outcomeState",
          "type": "uint8"
        }
      ],
      "name": "ownerResolveEventMarket",
      "outputs": [],
      "stateMutability": "nonpayable",
      "type": "function"
    },
    {
      "inputs": [
        {
          "internalType": "uint256",
          "name": "_marketId",
          "type": "uint256"
        },
        {
          "internalType": "bool",
          "name": "_predictYes",
          "type": "bool"
        }
      ],
      "name": "placeBet",
      "outputs": [],
      "stateMutability": "payable",
      "type": "function"
    },
    {
      "inputs": [],
      "name": "platformFeeBasisPoints",
      "outputs": [
        {
          "internalType": "uint16",
          "name": "",
          "type": "uint16"
        }
      ],
      "stateMutability": "view",
      "type": "function"
    },
    {
      "inputs": [],
      "name": "platformFeeWallet",
      "outputs": [
        {
          "internalType": "address payable",
          "name": "",
          "type": "address"
        }
      ],
      "stateMutability": "view",
      "type": "function"
    },
    {
      "inputs": [],
      "name": "renounceOwnership",
      "outputs": [],
      "stateMutability": "nonpayable",
      "type": "function"
    },
    {
      "inputs": [
        {
          "internalType": "uint256",
          "name": "_marketId",
          "type": "uint256"
        }
      ],
      "name": "resolvePriceFeedMarket",
      "outputs": [],
      "stateMutability": "nonpayable",
      "type": "function"
    },
    {
      "inputs": [
        {
          "internalType": "uint256",
          "name": "_newListingFee",
          "type": "uint256"
        }
      ],
      "name": "setMarketCreationListingFee",
      "outputs": [],
      "stateMutability": "nonpayable",
      "type": "function"
    },
    {
      "inputs": [
        {
          "internalType": "uint16",
          "name": "_newFeeBasisPoints",
          "type": "uint16"
        }
      ],
      "name": "setPlatformFee",
      "outputs": [],
      "stateMutability": "nonpayable",
      "type": "function"
    },
    {
      "inputs": [
        {
          "internalType": "address",
          "name": "newOwner",
          "type": "address"
        }
      ],
      "name": "transferOwnership",
      "outputs": [],
      "stateMutability": "nonpayable",
      "type": "function"
    },
    {
      "inputs": [
        {
          "internalType": "uint256",
          "name": "_marketId",
          "type": "uint256"
        }
      ],
      "name": "triggerEarlyPriceResolution",
      "outputs": [],
      "stateMutability": "nonpayable",
      "type": "function"
    },
    {
      "inputs": [
        {
          "internalType": "address payable",
          "name": "_to",
          "type": "address"
        }
      ],
      "name": "withdrawStuckEther",
      "outputs": [],
      "stateMutability": "nonpayable",
      "type": "function"
    }
  ],
  "bytecode": "0x6080346200019c57601f62002a3f38819003918201601f191683019291906001600160401b03841183851017620001a15781606092849260409687528339810103126200019c5780516001600160a01b039190828116908190036200019c5760208201519161ffff8316908184036200019c5785015193331562000184576000543360018060a01b03198216176000558651913391167f8be0079c531659141344cd1fd0a4f28419497f9722a3daafe3b4186f6b6457e0600080a36001805582156200014257506103e810620000fe576004549161ffff60a01b9060a01b169160018060b01b0319161717600455600555516128879081620001b88239f35b835162461bcd60e51b815260206004820152601f60248201527f506c6174666f726d2066656520746f6f206869676820286d61782031302529006044820152606490fd5b62461bcd60e51b815260206004820152601b60248201527f496e76616c696420706c6174666f726d206665652077616c6c657400000000006044820152606490fd5b8551631e4fbdf760e01b815260006004820152602490fd5b600080fd5b634e487b7160e01b600052604160045260246000fdfe608080604052600436101561001357600080fd5b60003560e01c9081630e66535514611fd4575080631c1695ba14611d565780631f08db6f14611a9f57806326a15bb3146119a957806326ccd77a146118e5578063406ef2ef146118c7578063460c69d1146118a95780635cbc742c146117ec57806363125237146117cf578063677bd9ff146115205780636b6b175314611321578063715018a6146112c8578063741692791461127857806378c5195e1461124a5780638664aa181461122d5780638da5cb5b146112045780639a3a40d614610eef5780639ce2e95714610b8d5780639ed9c74d14610872578063b1283e7714610756578063b5a9193a14610738578063c58bfb6614610713578063e20fc118146106ea578063f2fde38b1461065a578063f8ae28fd1461018e5763ffa361631461013d57600080fd5b34610189576020366003190112610189577f7ebe81e189d20a78827cc700f87cf9fa63eda3f4b4c011efbbbd87213b235fc6602060043561017c61223b565b80600555604051908152a1005b600080fd5b60c03660031901126101895767ffffffffffffffff600435818111610189576101bb903690600401612043565b906101c461202d565b916101cd612071565b9161ffff60a4351660a43503610189576101e5612389565b6005548034106106155761012c61ffff60a43516116105d05783156105b7575b61038442018042116105a15761021e90606435116122b6565b80610531575b506005548034116104c6575b506003549283600052600260205260406000209584875583116104b05761025a6001870154612139565b601f8111610469575b50600095601f84116001146103da57837faa4587dcebe9af10d599db0c2b5c4f6903c291413e68b36fe910e8540cc7b4069596976000916103cf575b508460011b906000198660031b1c19161760018201555b81156103ad575b61036b604435918260038201556064356004820155600681019042825560078101906102f586839060ff801983541691151516179055565b600d8101805460ff19908116909155600f9190910180549091166001179055805460a43560a81b61ffff60a81b16610100600160c01b03199091163360081b610100600160a81b03161717600160b81b1790556003546103549061230c565b60035554936040519560e0875260e087019161231b565b6001600160a01b039097166020850152604084015260643560608401521515608083015260a43561ffff1660a083015260c0820152339381900390a360018055005b6002810180546001600160a01b0319166001600160a01b0389161790556102bd565b90508301358861029f565b60018101600052602060002060005b601f198616811061045157507faa4587dcebe9af10d599db0c2b5c4f6903c291413e68b36fe910e8540cc7b40695969785601f19811610610437575b5050600184811b0160018201556102b6565b840135600019600387901b60f8161c191690558780610425565b848901358255602098890198600190920191016103e9565b600187016000526020600020601f850160051c8101602086106104a9575b601f830160051c8201811061049d575050610263565b60008155600101610487565b5080610487565b634e487b7160e01b600052604160045260246000fd5b600080806104d581943461237c565b335af16104e061233c565b50156104ec5785610230565b60405162461bcd60e51b815260206004820152601860248201527f4578636573732066656520726566756e64206661696c656400000000000000006044820152606490fd5b6004546000918291829182916001600160a01b03165af161055061233c565b501561055c5785610224565b60405162461bcd60e51b815260206004820152601b60248201527f4c697374696e6720666565207472616e73666572206661696c656400000000006044820152606490fd5b634e487b7160e01b600052601160045260246000fd5b6105cb6001600160a01b0386161515612267565b610205565b60405162461bcd60e51b815260206004820152601c60248201527f43726561746f72206665652065786365656473206d61782028332529000000006044820152606490fd5b60405162461bcd60e51b815260206004820152601860248201527f496e73756666696369656e74206c697374696e672066656500000000000000006044820152606490fd5b34610189576020366003190112610189576004356001600160a01b03818116918290036101895761068961223b565b81156106d157600054826bffffffffffffffffffffffff60a01b821617600055167f8be0079c531659141344cd1fd0a4f28419497f9722a3daafe3b4186f6b6457e0600080a3005b604051631e4fbdf760e01b815260006004820152602490fd5b34610189576000366003190112610189576004546040516001600160a01b039091168152602090f35b3461018957600036600319011261018957602061ffff60045460a01c16604051908152f35b34610189576000366003190112610189576020600554604051908152f35b34610189576020366003190112610189576004356000526002602052604060002080546001820161078690612195565b91600160a01b60019003600282015416906003810154906004810154600582015460068301546007840154600885015491600986015493600d87015460ff1695600e88015497600f015460ff16986040519c8d9c8d528c6102006020819201528d016107f191612080565b9a60408d015260608c015260808b015260a08a015260c089015260ff8116151560e0890152600160a01b600190038160081c166101008901528060a81c61ffff1661012089015260b81c60ff1615156101408801526101608701526101808601526101a08501610860916120c0565b6101c084015215156101e08301520390f35b60403660031901126101895760248035801515916004359183810361018957610899612389565b826000526020600281526040600020926108b960ff600f860154166123ac565b60ff600d850154166007811015610b78576108d490156123e5565b6004840154421015610b44573415610b0d5760078401549360008060b887901c60ff168080610afd575b15610aae5750505061271061091a61ffff8760a81c1634612423565b049460081c6001600160a01b0316905b610934863461237c565b948515610a6a578692919015610a385760089033600052600a8101865260406000206109618882546122a9565b90550161096f8682546122a9565b90555b81151580610a26575b6109c4575b5050506040519485523490850152604084015260608301527f1faf624c13819091a75aa5abee6c43a2226da9b9475e62bdfc87bef2889b509660803393a360018055005b6000918291829182916001600160a01b03165af16109e061233c565b50156109ed578381610980565b9060136064926040519262461bcd60e51b8452600484015282015272119959481d1c985b9cd9995c8819985a5b1959606a1b6044820152fd5b506001600160a01b038116151561097b565b60099033600052600b810186526040600020610a558882546122a9565b905501610a638682546122a9565b9055610972565b60405162461bcd60e51b8152600481018690526018818601527f4e6574207374616b6520697320302061667465722066656500000000000000006044820152606490fd5b90929196501580610aeb575b1561092a5794505060045493612710610ada61ffff8760a01c1634612423565b04946001600160a01b03169061092a565b5061ffff60045460a01c161515610aba565b5061ffff8860a81c1615156108fe565b9060116064926040519262461bcd60e51b845260048401528201527005374616b65206d757374206265203e203607c1b6044820152fd5b90600e6064926040519262461bcd60e51b845260048401528201526d13585c9ad95d08195e1c1a5c995960921b6044820152fd5b50634e487b7160e01b60009081526021600452fd5b34610189576020806003193601126101895760043590610bab612389565b8160005260028152604060002060ff90610bca82600f830154166123ac565b81600782015416610eb157600d810190828254166007811015610e9b57610bf181156123e5565b6004820154421015610e58576000610c1c610c0e60018501612195565b610c16612456565b90612781565b8015610e13576002840154604051633fabe5a360e21b815292919060a090849060049082906001600160a01b03165afa80600094600092610ddb575b50610cad5750505050505091610c9e6060927f2929edc53d2ed82cd180164d5054425391e57c6a30f8697c43fc9ba573338edf94541660405192600084528301906120c0565b60006040820152a25b60018055005b60068601548110610d8757937f2929edc53d2ed82cd180164d5054425391e57c6a30f8697c43fc9ba573338edf9896938a93610d1d9793610cfd613840610cf760609d9a4261237c565b106124dc565b610d70575b610d2a575b50505050541660405192600084528301906120c0565b60006040820152a2610ca7565b80600e60008051602061283283398151915294610d49604095896122f4565b42600582015501558585541690610d62835180936120c0565b88820152a286888080610d07565b60038401548212610d025750600591506001610d02565b60405162461bcd60e51b8152600481018a9052602660248201527f4f7261636c65206461746120746f6f206f6c6420287072652d6461746573206d60448201526561726b65742960d01b6064820152608490fd5b909450610dff915060a03d8111610e0c575b610df78183612173565b8101906124a7565b509592505093908b610c58565b503d610ded565b60405162461bcd60e51b815260048101889052601c60248201527f4d61726b65742073796d626f6c206e6f7420636f6e66696775726564000000006044820152606490fd5b6064856040519062461bcd60e51b825280600483015260248201527f50617374206578706972792c2075736520726567756c6172207265736f6c76656044820152fd5b634e487b7160e01b600052602160045260246000fd5b60405162461bcd60e51b81526004810184905260166024820152754f6e6c7920666f72207072696365206d61726b65747360501b6044820152606490fd5b34610189576020806003193601126101895760043590610f0d612389565b8160005260028152604060002090610f2b60ff600f840154166123ac565b60ff6007830154166111cd57600d8201805460ff8116600781101580610e9b578115809281156111be575b501561118957610f6c6004870154421015612520565b610e9b5761117a575b506002830154604051633fabe5a360e21b81529060a090829060049082906001600160a01b03165afa80600092600092611152575b50611083575050906001600060033d11611071575b6308c379a014611024575b610fd9575b5050505060018055005b60008051602061283283398151915292604092610ff461233c565b50600460ff198254161790556000199081600e82015560054291015582519160048352820152a280808080610fcf565b61102c61255a565b15610fca57506000600460ff1984541617835584600080516020612832833981519152604060001980600e8901554260058901558151906004825286820152a2610fca565b5060046000803e60005160e01c610fbf565b62015180610cf7611094924261237c565b600e8401938185554260058201556110b1610c0e60018301612195565b1561110d5760030154600080516020612832833981519152946040949093909260ff92136110fe57600282198254161781555b54169154906110f5845180946120c0565b820152a2610ca7565b600382198254161781556110e4565b60405162461bcd60e51b815260048101859052601f60248201527f416d626967756f75732073796d626f6c20666f72207265736f6c7574696f6e006044820152606490fd5b90925061116d915060a03d8111610e0c57610df78183612173565b5093925050919087610faa565b60ff1916600117815584610f75565b60405162461bcd60e51b815260048101869052600d60248201526c496e76616c696420737461746560981b6044820152606490fd5b91505060016000911488610f56565b6064906040519062461bcd60e51b82526004820152601060248201526f139bdd081c1c9a58d9481b585c9ad95d60821b6044820152fd5b34610189576000366003190112610189576000546040516001600160a01b039091168152602090f35b3461018957600036600319011261018957602060405161012c8152f35b3461018957604036600319011261018957602061127061126861202d565b6004356125c9565b604051908152f35b346101895760403660031901126101895761129161202d565b6004356000526002602052600c6040600020019060018060a01b0316600052602052602060ff604060002054166040519015158152f35b34610189576000366003190112610189576112e161223b565b600080546001600160a01b0319811682556001600160a01b03167f8be0079c531659141344cd1fd0a4f28419497f9722a3daafe3b4186f6b6457e08280a3005b3461018957604036600319011261018957604051806101a080820190825260609081518091526101c083019060809060005b8181106115075750505060209083810382850152825180825282820190838160051b840101926080926000915b8383106114d5575050505050838103604085015281835191828152019060809060005b8181106114b5575050506113f06113e36113d66113c984886113fd9603888a01526120cd565b87810360808901526120cd565b86810360a08801526120cd565b85810360c08701526120cd565b84810360e08601526120cd565b9183830361010085015281815193848152019260809060005b81811061148f57505050838303610120850152518083529181019160809160005b82811061147857858061147461146661145889848103610140860152612102565b838103610160850152612102565b8281036101808401526120cd565b0390f35b835185528695509381019392810192600101611437565b919484809750816114a660019496979389516120c0565b01950191019186959392611416565b82516001600160a01b0316845287965092840192918401916001016113a3565b919395808099506114f46001939597601f198682030187528951612080565b9701930193019092889795949293611380565b8251845286955060209384019390920191600101611353565b34610189576020806003193601126101895760043561153d612389565b806000526002825260406000209161155b60ff600f850154166123ac565b600c8301923360005283825260ff6040600020541661179857600033600052600a8201835260406000205490600b830184526040600020549260ff600d820154166007811015610e9b576004810361169957505050906115ba916122a9565b925b8315611654573360005281526040600020600160ff19825416179055600080808086335af16115e961233c565b5015611620577f5380cf6fe903b40c6d5a9e0dfbca2f3a423f0a21520b4d5947ed5169bdba946d906040519384523393a360018055005b6064906040519062461bcd60e51b82526004820152600d60248201526c14185e5bdd5d0819985a5b1959609a1b6044820152fd5b60405162461bcd60e51b815260048101839052601c60248201527f4e6f2077696e6e696e6773206f7220696e76616c6964207374617465000000006044820152606490fd5b600097949193929760028214801561178b575b1561171a575050508015158061170d575b6116c9575b50506115bc565b80919550946009810154806116df575b506116c2565b6117049396509060086116f56116fe9385612423565b91015490612436565b906122a9565b928480806116d9565b50600882015415156116bd565b90919250610e9b5760038114908115611780575b5061173a5750506115bc565b80151580611773575b156116c257809195509460088101548061175d57506116c2565b6117049396509060096116f56116fe9385612423565b5060098201541515611743565b60069150148761172e565b50506000600582146116ac565b60405162461bcd60e51b815260048101839052600f60248201526e105b1c9958591e4818db185a5b5959608a1b6044820152606490fd5b346101895760003660031901126101895760206040516138408152f35b346101895760203660031901126101895760043561ffff8116908181036101895761181561223b565b6103e8821161186b576004805461ffff60a01b191660a09290921b61ffff60a01b169190911790556040519081527f1426859b6b96e2e9ae302b23a42f763f4b0ae916a71a093e61c77120458b2e9590602090a1005b60405162461bcd60e51b815260206004820152601660248201527546656520746f6f206869676820286d6178203130252960501b6044820152606490fd5b34610189576000366003190112610189576020604051620151808152f35b34610189576000366003190112610189576020600354604051908152f35b34610189576020366003190112610189576004356001600160a01b038116908190036101895761191361223b565b80156119725747908161192257005b600080809381935af161193361233c565b501561193b57005b60405162461bcd60e51b815260206004820152600f60248201526e151c985b9cd9995c8819985a5b1959608a1b6044820152606490fd5b60405162461bcd60e51b815260206004820152600f60248201526e496e76616c6964206164647265737360881b6044820152606490fd5b346101895760203660031901126101895760043560005260026020526040600020600f81015460ff16906119dc826123ac565b805490600160a01b6001900360028201541690600381015493600482015490600583015460088401546009850154600d86015460ff1691600e87015493600788015460ff1696600689015498600101611a3490612195565b9b6040519c8d9c8d528c6101a06020819201528d01611a5291612080565b9a60408d015260608c015260808b015260a08a015260c089015260e08801526101008701611a7f916120c0565b610120860152151561014085015215156101608401526101808301520390f35b346101895760a03660031901126101895767ffffffffffffffff60043581811161018957611ad1903690600401612043565b9190611adb61202d565b92611ae4612071565b93611aed61223b565b8415611d3d575b61038442018042116105a157611b0d90606435116122b6565b6003549384600052600260205260406000209085825583116104b057611b366001820154612139565b601f8111611cf6575b50600095601f8411600114611c6857837fec86006df3e8f32dd47d3fe0c82d1c601f54bf982c1503b5d6e31bc215137aa09697600091611c5d575b508460011b906000198660031b1c19161760018301555b8015611c3b575b6044359182600382015560643560048201556006810190428255611bcb83600783019060ff801983541691151516179055565b6001600f600d83019260ff19938481541690550191825416179055611bf160035461230c565b6003555491611c0d60405196879660c0885260c088019161231b565b6001600160a01b039094166020860152604085015260643560608501521515608084015260a08301520390a2005b6002820180546001600160a01b0319166001600160a01b038516179055611b98565b905085013588611b7a565b60018201600052602060002060005b601f1986168110611cde57507fec86006df3e8f32dd47d3fe0c82d1c601f54bf982c1503b5d6e31bc215137aa0969785601f19811610611cc4575b5050600184811b016001830155611b91565b860135600019600387901b60f8161c191690558780611cb2565b86890135825560209889019860019092019101611c77565b600182016000526020600020601f850160051c810160208610611d36575b601f830160051c82018110611d2a575050611b3f565b60008155600101611d14565b5080611d14565b611d516001600160a01b0382161515612267565b611af4565b34610189576040366003190112610189576004356024803590600782101561018957611d8061223b565b611d88612389565b8260005260209060028252604060002092611da960ff600f860154166123ac565b60ff60078501541615611f9d57600d84019160ff8354166007811015610b78578015908115611f92575b5015611f5e57611de96004860154421015612520565b60028214906000828015611f51575b818115611f41575b5015611f0557611ef15760048314611e85575b5060ff8383600e93611e38604098966000805160206128328339815191529a986122f4565b42600588015515611e6757506001838601555b541692015490611e5d845180946120c0565b820152a260018055005b600303611e7957600083860155611e4b565b60001985840155611e4b565b6008860154158015611ee5575b611e13578460236084926040519262461bcd60e51b845260048401528201527f43616e6e6f74205055534820776974682062657473206f6e20626f746820736960448201526264657360e81b6064820152fd5b50600986015415611e92565b634e487b7160e01b60009081526021600452fd5b60405162461bcd60e51b81526004810187905260158184015274496e76616c6964206f7574636f6d6520737461746560581b6044820152606490fd5b9050610b78576004841481611e00565b5050600060038414611df8565b83600e6064926040519262461bcd60e51b845260048401528201526d4e6f74207265736f6c7661626c6560901b6044820152fd5b600191501487611dd3565b60405162461bcd60e51b8152600481018490526010818401526f139bdd08195d995b9d081b585c9ad95d60821b6044820152606490fd5b3461018957604036600319011261018957604090611ff061202d565b6004356000526002602052826000209060018060a01b0316600052600a8101602052600b8360002054910160205282600020549082526020820152f35b602435906001600160a01b038216820361018957565b9181601f840112156101895782359167ffffffffffffffff8311610189576020838186019501011161018957565b60843590811515820361018957565b919082519283825260005b8481106120ac575050826000602080949584010152601f8019910116010190565b60208183018101518483018201520161208b565b906007821015610e9b5752565b6060519081815260208091019160809160005b8281106120ee575050505090565b8351855293810193928101926001016120e0565b6060519081815260208091019160809160005b828110612123575050505090565b8351151585529381019392810192600101612115565b90600182811c92168015612169575b602083101461215357565b634e487b7160e01b600052602260045260246000fd5b91607f1691612148565b90601f8019910116810190811067ffffffffffffffff8211176104b057604052565b90604051918260008254926121a984612139565b90818452600194858116908160001461221857506001146121d5575b50506121d392500383612173565b565b9093915060005260209081600020936000915b8183106122005750506121d3935082010138806121c5565b855488840185015294850194879450918301916121e8565b9150506121d394506020925060ff191682840152151560051b82010138806121c5565b6000546001600160a01b0316330361224f57565b60405163118cdaa760e01b8152336004820152602490fd5b1561226e57565b60405162461bcd60e51b8152602060048201526013602482015272141c9a58d94819995959081c995c5d5a5c9959606a1b6044820152606490fd5b919082018092116105a157565b156122bd57565b60405162461bcd60e51b815260206004820152600f60248201526e22bc3834b93c903a37b79039b7b7b760891b6044820152606490fd5b906007811015610e9b5760ff80198354169116179055565b60001981146105a15760010190565b908060209392818452848401376000828201840152601f01601f1916010190565b3d15612377573d9067ffffffffffffffff82116104b0576040519161236b601f8201601f191660200184612173565b82523d6000602084013e565b606090565b919082039182116105a157565b60026001541461239a576002600155565b604051633ee5aeb560e01b8152600490fd5b156123b357565b60405162461bcd60e51b815260206004820152600a6024820152694d61726b657420444e4560b01b6044820152606490fd5b156123ec57565b60405162461bcd60e51b815260206004820152600f60248201526e26b0b935b2ba103737ba1027b832b760891b6044820152606490fd5b818102929181159184041417156105a157565b8115612440570490565b634e487b7160e01b600052601260045260246000fd5b604051906040820182811067ffffffffffffffff8211176104b057604052600d82526c5f50524943455f41424f56455f60981b6020830152565b519069ffffffffffffffffffff8216820361018957565b908160a0910312610189576124bb81612490565b916020820151916040810151916124d9608060608401519301612490565b90565b156124e357565b60405162461bcd60e51b81526020600482015260156024820152744f7261636c65206461746120746f6f207374616c6560581b6044820152606490fd5b1561252757565b60405162461bcd60e51b815260206004820152600b60248201526a139bdd08195e1c1a5c995960aa1b6044820152606490fd5b600060443d106124d957604051600319913d83016004833e815167ffffffffffffffff918282113d6024840111176125b8578184019485519384116125c0573d850101602084870101116125b857506124d992910160200190612173565b949350505050565b50949350505050565b600090815260026020526040812060ff600f82015416158015612739575b61273357819260018060a01b03168252600a8101602052604082205490600b810160205260408320549260ff600d830154169060078210156127135760048203612638575050506124d992506122a9565b80949294600283148015612727575b156126a2575050505080151580612695575b61266257505090565b8091925091600981015480612678575b50505090565b61268d93509060086116f56116fe9385612423565b388080612672565b5060088201541515612659565b9091929350612713575060038114908115612708575b506126c3575b505090565b801515806126fb575b156126be5780919250916008810154806126e65750505090565b61268d93509060096116f56116fe9385612423565b50600982015415156126cc565b6006915014386126b8565b634e487b7160e01b81526021600452602490fd5b50508060058314612647565b50905090565b506001600160a01b0383168252600c8101602052604082205460ff166125e7565b90815181101561276b570160200190565b634e487b7160e01b600052603260045260246000fd5b90805180156128105782511061282a576000905b6127a2835182519061237c565b82116128225760019260005b8251811015612818576001600160f81b0319806127d46127ce84886122a9565b8561275a565b5116906127e1838661275a565b5116036127f6576127f19061230c565b6127ae565b5092509060005b6128105761280a9061230c565b90612795565b505050600190565b50929190916127fd565b505050600090565b505060009056fe075615139ef09288348a86c4ccfdd482a2a472b9eabc311f28548d520e51aaf5a2646970667358221220b9d462a04d6efc6b5897e8deb685bee0c0ea8105e56e2775854d79bc2934e3f864736f6c63430008140033",
  "linkReferences": {},
  "deployedLinkReferences": {}
}