{
  "_format": "hh-sol-artifact-1",
  "contractName": "PredictionMarketP2P",
  "sourceName": "contracts/PredictionMarketP2P.sol",
  "abi": [
    {
      "inputs": [
        {
          "internalType": "address payable",
          "name": "_initialPlatformFeeWallet",
          "type": "address"
        },
        {
          "internalType": "uint16",
          "name": "_initialPlatformFeeBP",
          "type": "uint16"
        },
        {
          "internalType": "uint256",
          "name": "_initialMarketCreationListingFee",
          "type": "uint256"
        }
      ],
      "stateMutability": "nonpayable",
      "type": "constructor"
    },
    {
      "inputs": [
        {
          "internalType": "address",
          "name": "owner",
          "type": "address"
        }
      ],
      "name": "OwnableInvalidOwner",
      "type": "error"
    },
    {
      "inputs": [
        {
          "internalType": "address",
          "name": "account",
          "type": "address"
        }
      ],
      "name": "OwnableUnauthorizedAccount",
      "type": "error"
    },
    {
      "inputs": [],
      "name": "ReentrancyGuardReentrantCall",
      "type": "error"
    },
    {
      "anonymous": false,
      "inputs": [
        {
          "indexed": true,
          "internalType": "uint256",
          "name": "marketId",
          "type": "uint256"
        },
        {
          "indexed": true,
          "internalType": "address",
          "name": "bettor",
          "type": "address"
        },
        {
          "indexed": false,
          "internalType": "bool",
          "name": "predictedYes",
          "type": "bool"
        },
        {
          "indexed": false,
          "internalType": "uint256",
          "name": "grossAmount",
          "type": "uint256"
        },
        {
          "indexed": false,
          "internalType": "uint256",
          "name": "netAmountPooled",
          "type": "uint256"
        },
        {
          "indexed": false,
          "internalType": "uint256",
          "name": "feeAmount",
          "type": "uint256"
        }
      ],
      "name": "BetPlaced",
      "type": "event"
    },
    {
      "anonymous": false,
      "inputs": [
        {
          "indexed": true,
          "internalType": "uint256",
          "name": "marketId",
          "type": "uint256"
        },
        {
          "indexed": false,
          "internalType": "bool",
          "name": "conditionMetAndResolved",
          "type": "bool"
        },
        {
          "indexed": false,
          "internalType": "enum PredictionMarketP2P.MarketState",
          "name": "resultingState",
          "type": "uint8"
        },
        {
          "indexed": false,
          "internalType": "int256",
          "name": "oraclePriceObserved",
          "type": "int256"
        }
      ],
      "name": "EarlyResolutionAttempt",
      "type": "event"
    },
    {
      "anonymous": false,
      "inputs": [
        {
          "indexed": true,
          "internalType": "uint256",
          "name": "id",
          "type": "uint256"
        },
        {
          "indexed": false,
          "internalType": "string",
          "name": "assetSymbol",
          "type": "string"
        },
        {
          "indexed": false,
          "internalType": "address",
          "name": "priceFeedAddress",
          "type": "address"
        },
        {
          "indexed": false,
          "internalType": "uint256",
          "name": "targetPrice",
          "type": "uint256"
        },
        {
          "indexed": false,
          "internalType": "uint256",
          "name": "expiryTimestamp",
          "type": "uint256"
        },
        {
          "indexed": false,
          "internalType": "bool",
          "name": "isEventMarket",
          "type": "bool"
        },
        {
          "indexed": false,
          "internalType": "uint256",
          "name": "creationTimestamp",
          "type": "uint256"
        }
      ],
      "name": "MarketCreated",
      "type": "event"
    },
    {
      "anonymous": false,
      "inputs": [
        {
          "indexed": false,
          "internalType": "uint256",
          "name": "newFee",
          "type": "uint256"
        }
      ],
      "name": "MarketCreationListingFeeSet",
      "type": "event"
    },
    {
      "anonymous": false,
      "inputs": [
        {
          "indexed": true,
          "internalType": "uint256",
          "name": "marketId",
          "type": "uint256"
        },
        {
          "indexed": false,
          "internalType": "enum PredictionMarketP2P.MarketState",
          "name": "outcomeState",
          "type": "uint8"
        },
        {
          "indexed": false,
          "internalType": "int256",
          "name": "actualValue",
          "type": "int256"
        }
      ],
      "name": "MarketResolved",
      "type": "event"
    },
    {
      "anonymous": false,
      "inputs": [
        {
          "indexed": true,
          "internalType": "address",
          "name": "previousOwner",
          "type": "address"
        },
        {
          "indexed": true,
          "internalType": "address",
          "name": "newOwner",
          "type": "address"
        }
      ],
      "name": "OwnershipTransferred",
      "type": "event"
    },
    {
      "anonymous": false,
      "inputs": [
        {
          "indexed": false,
          "internalType": "uint16",
          "name": "newFeeBasisPoints",
          "type": "uint16"
        }
      ],
      "name": "PlatformFeeSet",
      "type": "event"
    },
    {
      "anonymous": false,
      "inputs": [
        {
          "indexed": true,
          "internalType": "address",
          "name": "newWallet",
          "type": "address"
        }
      ],
      "name": "PlatformFeeWalletSet",
      "type": "event"
    },
    {
      "anonymous": false,
      "inputs": [
        {
          "indexed": true,
          "internalType": "uint256",
          "name": "id",
          "type": "uint256"
        },
        {
          "indexed": true,
          "internalType": "address",
          "name": "marketCreator",
          "type": "address"
        },
        {
          "indexed": false,
          "internalType": "string",
          "name": "assetSymbol",
          "type": "string"
        },
        {
          "indexed": false,
          "internalType": "address",
          "name": "priceFeedAddress",
          "type": "address"
        },
        {
          "indexed": false,
          "internalType": "uint256",
          "name": "targetPrice",
          "type": "uint256"
        },
        {
          "indexed": false,
          "internalType": "uint256",
          "name": "expiryTimestamp",
          "type": "uint256"
        },
        {
          "indexed": false,
          "internalType": "bool",
          "name": "isEventMarket",
          "type": "bool"
        },
        {
          "indexed": false,
          "internalType": "uint16",
          "name": "creatorFeeBasisPoints",
          "type": "uint16"
        },
        {
          "indexed": false,
          "internalType": "uint256",
          "name": "creationTimestamp",
          "type": "uint256"
        }
      ],
      "name": "UserMarketCreated",
      "type": "event"
    },
    {
      "anonymous": false,
      "inputs": [
        {
          "indexed": true,
          "internalType": "uint256",
          "name": "marketId",
          "type": "uint256"
        },
        {
          "indexed": true,
          "internalType": "address",
          "name": "bettor",
          "type": "address"
        },
        {
          "indexed": false,
          "internalType": "uint256",
          "name": "payoutAmount",
          "type": "uint256"
        }
      ],
      "name": "WinningsClaimed",
      "type": "event"
    },
    {
      "inputs": [],
      "name": "MAX_CREATOR_FEE_BASIS_POINTS",
      "outputs": [
        {
          "internalType": "uint16",
          "name": "",
          "type": "uint16"
        }
      ],
      "stateMutability": "view",
      "type": "function"
    },
    {
      "inputs": [],
      "name": "MAX_ORACLE_STALENESS_FOR_EARLY_RESOLUTION",
      "outputs": [
        {
          "internalType": "uint256",
          "name": "",
          "type": "uint256"
        }
      ],
      "stateMutability": "view",
      "type": "function"
    },
    {
      "inputs": [],
      "name": "MAX_ORACLE_STALENESS_FOR_REGULAR_RESOLUTION",
      "outputs": [
        {
          "internalType": "uint256",
          "name": "",
          "type": "uint256"
        }
      ],
      "stateMutability": "view",
      "type": "function"
    },
    {
      "inputs": [
        {
          "internalType": "uint256",
          "name": "_marketId",
          "type": "uint256"
        }
      ],
      "name": "claimWinnings",
      "outputs": [],
      "stateMutability": "nonpayable",
      "type": "function"
    },
    {
      "inputs": [
        {
          "internalType": "string",
          "name": "_assetSymbol",
          "type": "string"
        },
        {
          "internalType": "address",
          "name": "_priceFeedAddress",
          "type": "address"
        },
        {
          "internalType": "uint256",
          "name": "_targetPrice",
          "type": "uint256"
        },
        {
          "internalType": "uint256",
          "name": "_expiryTimestamp",
          "type": "uint256"
        },
        {
          "internalType": "bool",
          "name": "_isEventMarket",
          "type": "bool"
        }
      ],
      "name": "createMarket",
      "outputs": [],
      "stateMutability": "nonpayable",
      "type": "function"
    },
    {
      "inputs": [
        {
          "internalType": "string",
          "name": "_assetSymbol",
          "type": "string"
        },
        {
          "internalType": "address",
          "name": "_priceFeedAddress",
          "type": "address"
        },
        {
          "internalType": "uint256",
          "name": "_targetPrice",
          "type": "uint256"
        },
        {
          "internalType": "uint256",
          "name": "_expiryTimestamp",
          "type": "uint256"
        },
        {
          "internalType": "bool",
          "name": "_isEventMarket",
          "type": "bool"
        },
        {
          "internalType": "uint16",
          "name": "_creatorFeeBP",
          "type": "uint16"
        }
      ],
      "name": "createUserMarket",
      "outputs": [],
      "stateMutability": "payable",
      "type": "function"
    },
    {
      "inputs": [
        {
          "internalType": "uint256",
          "name": "_marketId",
          "type": "uint256"
        },
        {
          "internalType": "address",
          "name": "_user",
          "type": "address"
        }
      ],
      "name": "didUserClaim",
      "outputs": [
        {
          "internalType": "bool",
          "name": "",
          "type": "bool"
        }
      ],
      "stateMutability": "view",
      "type": "function"
    },
    {
      "inputs": [
        {
          "internalType": "uint256",
          "name": "_marketId",
          "type": "uint256"
        },
        {
          "internalType": "address",
          "name": "_user",
          "type": "address"
        }
      ],
      "name": "getClaimableAmount",
      "outputs": [
        {
          "internalType": "uint256",
          "name": "",
          "type": "uint256"
        }
      ],
      "stateMutability": "view",
      "type": "function"
    },
    {
      "inputs": [
        {
          "internalType": "uint256",
          "name": "_marketId",
          "type": "uint256"
        }
      ],
      "name": "getMarketStaticDetails",
      "outputs": [
        {
          "internalType": "uint256",
          "name": "id",
          "type": "uint256"
        },
        {
          "internalType": "string",
          "name": "assetSymbol",
          "type": "string"
        },
        {
          "internalType": "address",
          "name": "priceFeedAddress",
          "type": "address"
        },
        {
          "internalType": "uint256",
          "name": "targetPrice",
          "type": "uint256"
        },
        {
          "internalType": "uint256",
          "name": "expiryTimestamp",
          "type": "uint256"
        },
        {
          "internalType": "uint256",
          "name": "resolutionTimestamp",
          "type": "uint256"
        },
        {
          "internalType": "uint256",
          "name": "totalStakedYes",
          "type": "uint256"
        },
        {
          "internalType": "uint256",
          "name": "totalStakedNo",
          "type": "uint256"
        },
        {
          "internalType": "enum PredictionMarketP2P.MarketState",
          "name": "state",
          "type": "uint8"
        },
        {
          "internalType": "int256",
          "name": "actualOutcomeValue",
          "type": "int256"
        },
        {
          "internalType": "bool",
          "name": "exists",
          "type": "bool"
        },
        {
          "internalType": "bool",
          "name": "isEventMarket",
          "type": "bool"
        },
        {
          "internalType": "uint256",
          "name": "creationTimestamp",
          "type": "uint256"
        }
      ],
      "stateMutability": "view",
      "type": "function"
    },
    {
      "inputs": [
        {
          "internalType": "uint256",
          "name": "_offset",
          "type": "uint256"
        },
        {
          "internalType": "uint256",
          "name": "_limit",
          "type": "uint256"
        }
      ],
      "name": "getPaginatedMarketDetails",
      "outputs": [
        {
          "internalType": "uint256[]",
          "name": "ids",
          "type": "uint256[]"
        },
        {
          "internalType": "string[]",
          "name": "assetSymbols",
          "type": "string[]"
        },
        {
          "internalType": "address[]",
          "name": "priceFeedAddresses",
          "type": "address[]"
        },
        {
          "internalType": "uint256[]",
          "name": "targetPrices",
          "type": "uint256[]"
        },
        {
          "internalType": "uint256[]",
          "name": "expiryTimestamps",
          "type": "uint256[]"
        },
        {
          "internalType": "uint256[]",
          "name": "resolutionTimestamps",
          "type": "uint256[]"
        },
        {
          "internalType": "uint256[]",
          "name": "totalStakedYesArray",
          "type": "uint256[]"
        },
        {
          "internalType": "uint256[]",
          "name": "totalStakedNoArray",
          "type": "uint256[]"
        },
        {
          "internalType": "enum PredictionMarketP2P.MarketState[]",
          "name": "states",
          "type": "uint8[]"
        },
        {
          "internalType": "int256[]",
          "name": "actualOutcomeValues",
          "type": "int256[]"
        },
        {
          "internalType": "bool[]",
          "name": "existsArray",
          "type": "bool[]"
        },
        {
          "internalType": "bool[]",
          "name": "isEventMarkets",
          "type": "bool[]"
        },
        {
          "internalType": "uint256[]",
          "name": "creationTimestamps",
          "type": "uint256[]"
        }
      ],
      "stateMutability": "view",
      "type": "function"
    },
    {
      "inputs": [
        {
          "internalType": "uint256",
          "name": "_marketId",
          "type": "uint256"
        },
        {
          "internalType": "address",
          "name": "_user",
          "type": "address"
        }
      ],
      "name": "getUserStakeInMarket",
      "outputs": [
        {
          "internalType": "uint256",
          "name": "stakeYes",
          "type": "uint256"
        },
        {
          "internalType": "uint256",
          "name": "stakeNo",
          "type": "uint256"
        }
      ],
      "stateMutability": "view",
      "type": "function"
    },
    {
      "inputs": [],
      "name": "marketCreationListingFee",
      "outputs": [
        {
          "internalType": "uint256",
          "name": "",
          "type": "uint256"
        }
      ],
      "stateMutability": "view",
      "type": "function"
    },
    {
      "inputs": [
        {
          "internalType": "uint256",
          "name": "",
          "type": "uint256"
        }
      ],
      "name": "markets",
      "outputs": [
        {
          "internalType": "uint256",
          "name": "id",
          "type": "uint256"
        },
        {
          "internalType": "string",
          "name": "assetSymbol",
          "type": "string"
        },
        {
          "internalType": "contract AggregatorV3Interface",
          "name": "priceFeed",
          "type": "address"
        },
        {
          "internalType": "uint256",
          "name": "targetPrice",
          "type": "uint256"
        },
        {
          "internalType": "uint256",
          "name": "expiryTimestamp",
          "type": "uint256"
        },
        {
          "internalType": "uint256",
          "name": "resolutionTimestamp",
          "type": "uint256"
        },
        {
          "internalType": "uint256",
          "name": "creationTimestamp",
          "type": "uint256"
        },
        {
          "internalType": "bool",
          "name": "isEventMarket",
          "type": "bool"
        },
        {
          "internalType": "address payable",
          "name": "marketCreator",
          "type": "address"
        },
        {
          "internalType": "uint16",
          "name": "creatorFeeBasisPoints",
          "type": "uint16"
        },
        {
          "internalType": "bool",
          "name": "isUserCreated",
          "type": "bool"
        },
        {
          "internalType": "uint256",
          "name": "totalStakedYes",
          "type": "uint256"
        },
        {
          "internalType": "uint256",
          "name": "totalStakedNo",
          "type": "uint256"
        },
        {
          "internalType": "enum PredictionMarketP2P.MarketState",
          "name": "state",
          "type": "uint8"
        },
        {
          "internalType": "int256",
          "name": "actualOutcomeValue",
          "type": "int256"
        },
        {
          "internalType": "bool",
          "name": "exists",
          "type": "bool"
        }
      ],
      "stateMutability": "view",
      "type": "function"
    },
    {
      "inputs": [],
      "name": "nextMarketId",
      "outputs": [
        {
          "internalType": "uint256",
          "name": "",
          "type": "uint256"
        }
      ],
      "stateMutability": "view",
      "type": "function"
    },
    {
      "inputs": [],
      "name": "owner",
      "outputs": [
        {
          "internalType": "address",
          "name": "",
          "type": "address"
        }
      ],
      "stateMutability": "view",
      "type": "function"
    },
    {
      "inputs": [
        {
          "internalType": "uint256",
          "name": "_marketId",
          "type": "uint256"
        },
        {
          "internalType": "enum PredictionMarketP2P.MarketState",
          "name": "_outcomeState",
          "type": "uint8"
        }
      ],
      "name": "ownerResolveEventMarket",
      "outputs": [],
      "stateMutability": "nonpayable",
      "type": "function"
    },
    {
      "inputs": [
        {
          "internalType": "uint256",
          "name": "_marketId",
          "type": "uint256"
        },
        {
          "internalType": "bool",
          "name": "_predictYes",
          "type": "bool"
        }
      ],
      "name": "placeBet",
      "outputs": [],
      "stateMutability": "payable",
      "type": "function"
    },
    {
      "inputs": [],
      "name": "platformFeeBasisPoints",
      "outputs": [
        {
          "internalType": "uint16",
          "name": "",
          "type": "uint16"
        }
      ],
      "stateMutability": "view",
      "type": "function"
    },
    {
      "inputs": [],
      "name": "platformFeeWallet",
      "outputs": [
        {
          "internalType": "address payable",
          "name": "",
          "type": "address"
        }
      ],
      "stateMutability": "view",
      "type": "function"
    },
    {
      "inputs": [],
      "name": "renounceOwnership",
      "outputs": [],
      "stateMutability": "nonpayable",
      "type": "function"
    },
    {
      "inputs": [
        {
          "internalType": "uint256",
          "name": "_marketId",
          "type": "uint256"
        }
      ],
      "name": "resolvePriceFeedMarket",
      "outputs": [],
      "stateMutability": "nonpayable",
      "type": "function"
    },
    {
      "inputs": [
        {
          "internalType": "uint256",
          "name": "_newListingFee",
          "type": "uint256"
        }
      ],
      "name": "setMarketCreationListingFee",
      "outputs": [],
      "stateMutability": "nonpayable",
      "type": "function"
    },
    {
      "inputs": [
        {
          "internalType": "uint16",
          "name": "_newFeeBasisPoints",
          "type": "uint16"
        }
      ],
      "name": "setPlatformFee",
      "outputs": [],
      "stateMutability": "nonpayable",
      "type": "function"
    },
    {
      "inputs": [
        {
          "internalType": "address",
          "name": "newOwner",
          "type": "address"
        }
      ],
      "name": "transferOwnership",
      "outputs": [],
      "stateMutability": "nonpayable",
      "type": "function"
    },
    {
      "inputs": [
        {
          "internalType": "uint256",
          "name": "_marketId",
          "type": "uint256"
        }
      ],
      "name": "triggerEarlyPriceResolution",
      "outputs": [],
      "stateMutability": "nonpayable",
      "type": "function"
    },
    {
      "inputs": [
        {
          "internalType": "address payable",
          "name": "_to",
          "type": "address"
        }
      ],
      "name": "withdrawStuckEther",
      "outputs": [],
      "stateMutability": "nonpayable",
      "type": "function"
    }
  ],
  "bytecode": "0x6080346200019c57601f6200320738819003918201601f191683019291906001600160401b03841183851017620001a15781606092849260409687528339810103126200019c5780516001600160a01b039190828116908190036200019c5760208201519161ffff8316908184036200019c5785015193331562000184576000543360018060a01b03198216176000558651913391167f8be0079c531659141344cd1fd0a4f28419497f9722a3daafe3b4186f6b6457e0600080a36001805582156200014257506103e810620000fe576004549161ffff60a01b9060a01b169160018060b01b03191617176004556005555161304f9081620001b88239f35b835162461bcd60e51b815260206004820152601f60248201527f506c6174666f726d2066656520746f6f206869676820286d61782031302529006044820152606490fd5b62461bcd60e51b815260206004820152601b60248201527f496e76616c696420706c6174666f726d206665652077616c6c657400000000006044820152606490fd5b8551631e4fbdf760e01b815260006004820152602490fd5b600080fd5b634e487b7160e01b600052604160045260246000fdfe61048080604052600436101561001457600080fd5b60003560e01c9081630e66535514611ff4575080631c1695ba14611d765780631f08db6f14611abf57806326a15bb3146119c957806326ccd77a14611905578063406ef2ef146118e7578063460c69d1146118c95780635cbc742c1461180c57806363125237146117ef578063677bd9ff146115405780636b6b175314611322578063715018a6146112c9578063741692791461127957806378c5195e1461124b5780638664aa181461122e5780638da5cb5b146112055780639a3a40d614610ef05780639ce2e95714610b8e5780639ed9c74d14610873578063b1283e7714610757578063b5a9193a14610739578063c58bfb6614610714578063e20fc118146106eb578063f2fde38b1461065b578063f8ae28fd1461018f5763ffa361631461013e57600080fd5b3461018a57602036600319011261018a577f7ebe81e189d20a78827cc700f87cf9fa63eda3f4b4c011efbbbd87213b235fc6602060043561017d612275565b80600555604051908152a1005b600080fd5b60c036600319011261018a5767ffffffffffffffff60043581811161018a576101bc903690600401612063565b906101c561204d565b916101ce612091565b9161ffff60a4351660a4350361018a576101e66123c3565b6005548034106106165761012c61ffff60a43516116105d15783156105b8575b61038442018042116105a25761021f90606435116122f0565b80610532575b506005548034116104c7575b506003549283600052600260205260406000209584875583116104b15761025b6001870154612157565b601f811161046a575b50600095601f84116001146103db57837faa4587dcebe9af10d599db0c2b5c4f6903c291413e68b36fe910e8540cc7b4069596976000916103d0575b508460011b906000198660031b1c19161760018201555b81156103ae575b61036c604435918260038201556064356004820155600681019042825560078101906102f686839060ff801983541691151516179055565b600d8101805460ff19908116909155600f9190910180549091166001179055805460a43560a81b61ffff60a81b16610100600160c01b03199091163360081b610100600160a81b03161717600160b81b17905560035461035590612346565b60035554936040519560e0875260e0870191612355565b6001600160a01b039097166020850152604084015260643560608401521515608083015260a43561ffff1660a083015260c0820152339381900390a360018055005b6002810180546001600160a01b0319166001600160a01b0389161790556102be565b9050830135886102a0565b60018101600052602060002060005b601f198616811061045257507faa4587dcebe9af10d599db0c2b5c4f6903c291413e68b36fe910e8540cc7b40695969785601f19811610610438575b5050600184811b0160018201556102b7565b840135600019600387901b60f8161c191690558780610426565b848901358255602098890198600190920191016103ea565b600187016000526020600020601f850160051c8101602086106104aa575b601f830160051c8201811061049e575050610264565b60008155600101610488565b5080610488565b634e487b7160e01b600052604160045260246000fd5b600080806104d68194346123b6565b335af16104e1612376565b50156104ed5785610231565b60405162461bcd60e51b815260206004820152601860248201527f4578636573732066656520726566756e64206661696c656400000000000000006044820152606490fd5b6004546000918291829182916001600160a01b03165af1610551612376565b501561055d5785610225565b60405162461bcd60e51b815260206004820152601b60248201527f4c697374696e6720666565207472616e73666572206661696c656400000000006044820152606490fd5b634e487b7160e01b600052601160045260246000fd5b6105cc6001600160a01b03861615156122a1565b610206565b60405162461bcd60e51b815260206004820152601c60248201527f43726561746f72206665652065786365656473206d61782028332529000000006044820152606490fd5b60405162461bcd60e51b815260206004820152601860248201527f496e73756666696369656e74206c697374696e672066656500000000000000006044820152606490fd5b3461018a57602036600319011261018a576004356001600160a01b038181169182900361018a5761068a612275565b81156106d257600054826bffffffffffffffffffffffff60a01b821617600055167f8be0079c531659141344cd1fd0a4f28419497f9722a3daafe3b4186f6b6457e0600080a3005b604051631e4fbdf760e01b815260006004820152602490fd5b3461018a57600036600319011261018a576004546040516001600160a01b039091168152602090f35b3461018a57600036600319011261018a57602061ffff60045460a01c16604051908152f35b3461018a57600036600319011261018a576020600554604051908152f35b3461018a57602036600319011261018a5760043560005260026020526040600020805460018201610787906121cf565b91600160a01b60019003600282015416906003810154906004810154600582015460068301546007840154600885015491600986015493600d87015460ff1695600e88015497600f015460ff16986040519c8d9c8d528c6102006020819201528d016107f2916120a0565b9a60408d015260608c015260808b015260a08a015260c089015260ff8116151560e0890152600160a01b600190038160081c166101008901528060a81c61ffff1661012089015260b81c60ff1615156101408801526101608701526101808601526101a08501610861916120e0565b6101c084015215156101e08301520390f35b604036600319011261018a5760248035801515916004359183810361018a5761089a6123c3565b826000526020600281526040600020926108ba60ff600f860154166123e6565b60ff600d850154166007811015610b79576108d5901561241f565b6004840154421015610b45573415610b0e5760078401549360008060b887901c60ff168080610afe575b15610aaf5750505061271061091b61ffff8760a81c163461245d565b049460081c6001600160a01b0316905b61093586346123b6565b948515610a6b578692919015610a395760089033600052600a8101865260406000206109628882546122e3565b9055016109708682546122e3565b90555b81151580610a27575b6109c5575b5050506040519485523490850152604084015260608301527f1faf624c13819091a75aa5abee6c43a2226da9b9475e62bdfc87bef2889b509660803393a360018055005b6000918291829182916001600160a01b03165af16109e1612376565b50156109ee578381610981565b9060136064926040519262461bcd60e51b8452600484015282015272119959481d1c985b9cd9995c8819985a5b1959606a1b6044820152fd5b506001600160a01b038116151561097c565b60099033600052600b810186526040600020610a568882546122e3565b905501610a648682546122e3565b9055610973565b60405162461bcd60e51b8152600481018690526018818601527f4e6574207374616b6520697320302061667465722066656500000000000000006044820152606490fd5b90929196501580610aec575b1561092b5794505060045493612710610adb61ffff8760a01c163461245d565b04946001600160a01b03169061092b565b5061ffff60045460a01c161515610abb565b5061ffff8860a81c1615156108ff565b9060116064926040519262461bcd60e51b845260048401528201527005374616b65206d757374206265203e203607c1b6044820152fd5b90600e6064926040519262461bcd60e51b845260048401528201526d13585c9ad95d08195e1c1a5c995960921b6044820152fd5b50634e487b7160e01b60009081526021600452fd5b3461018a5760208060031936011261018a5760043590610bac6123c3565b8160005260028152604060002060ff90610bcb82600f830154166123e6565b81600782015416610eb257600d810190828254166007811015610e9c57610bf2811561241f565b6004820154421015610e59576000610c1d610c0f600185016121cf565b610c17612490565b906127bb565b8015610e14576002840154604051633fabe5a360e21b815292919060a090849060049082906001600160a01b03165afa80600094600092610ddc575b50610cae5750505050505091610c9f6060927f2929edc53d2ed82cd180164d5054425391e57c6a30f8697c43fc9ba573338edf94541660405192600084528301906120e0565b60006040820152a25b60018055005b60068601548110610d8857937f2929edc53d2ed82cd180164d5054425391e57c6a30f8697c43fc9ba573338edf9896938a93610d1e9793610cfe613840610cf860609d9a426123b6565b10612516565b610d71575b610d2b575b50505050541660405192600084528301906120e0565b60006040820152a2610ca8565b80600e600080516020612ffa83398151915294610d4a6040958961232e565b42600582015501558585541690610d63835180936120e0565b88820152a286888080610d08565b60038401548212610d035750600591506001610d03565b60405162461bcd60e51b8152600481018a9052602660248201527f4f7261636c65206461746120746f6f206f6c6420287072652d6461746573206d60448201526561726b65742960d01b6064820152608490fd5b909450610e00915060a03d8111610e0d575b610df881836121ad565b8101906124e1565b509592505093908b610c59565b503d610dee565b60405162461bcd60e51b815260048101889052601c60248201527f4d61726b65742073796d626f6c206e6f7420636f6e66696775726564000000006044820152606490fd5b6064856040519062461bcd60e51b825280600483015260248201527f50617374206578706972792c2075736520726567756c6172207265736f6c76656044820152fd5b634e487b7160e01b600052602160045260246000fd5b60405162461bcd60e51b81526004810184905260166024820152754f6e6c7920666f72207072696365206d61726b65747360501b6044820152606490fd5b3461018a5760208060031936011261018a5760043590610f0e6123c3565b8160005260028152604060002090610f2c60ff600f840154166123e6565b60ff6007830154166111ce57600d8201805460ff8116600781101580610e9c578115809281156111bf575b501561118a57610f6d600487015442101561255a565b610e9c5761117b575b506002830154604051633fabe5a360e21b81529060a090829060049082906001600160a01b03165afa80600092600092611153575b50611084575050906001600060033d11611072575b6308c379a014611025575b610fda575b5050505060018055005b600080516020612ffa83398151915292604092610ff5612376565b50600460ff198254161790556000199081600e82015560054291015582519160048352820152a280808080610fd0565b61102d612594565b15610fcb57506000600460ff1984541617835584600080516020612ffa833981519152604060001980600e8901554260058901558151906004825286820152a2610fcb565b5060046000803e60005160e01c610fc0565b62015180610cf861109592426123b6565b600e8401938185554260058201556110b2610c0f600183016121cf565b1561110e5760030154600080516020612ffa833981519152946040949093909260ff92136110ff57600282198254161781555b54169154906110f6845180946120e0565b820152a2610ca8565b600382198254161781556110e5565b60405162461bcd60e51b815260048101859052601f60248201527f416d626967756f75732073796d626f6c20666f72207265736f6c7574696f6e006044820152606490fd5b90925061116e915060a03d8111610e0d57610df881836121ad565b5093925050919087610fab565b60ff1916600117815584610f76565b60405162461bcd60e51b815260048101869052600d60248201526c496e76616c696420737461746560981b6044820152606490fd5b91505060016000911488610f57565b6064906040519062461bcd60e51b82526004820152601060248201526f139bdd081c1c9a58d9481b585c9ad95d60821b6044820152fd5b3461018a57600036600319011261018a576000546040516001600160a01b039091168152602090f35b3461018a57600036600319011261018a57602060405161012c8152f35b3461018a57604036600319011261018a57602061127161126961204d565b600435612603565b604051908152f35b3461018a57604036600319011261018a5761129261204d565b6004356000526002602052600c6040600020019060018060a01b0316600052602052602060ff604060002054166040519015158152f35b3461018a57600036600319011261018a576112e2612275565b600080546001600160a01b0319811682556001600160a01b03167f8be0079c531659141344cd1fd0a4f28419497f9722a3daafe3b4186f6b6457e08280a3005b3461018a57604036600319011261018a5761136b61134460243560043561291f565b9c909b60409b929a9499939b98959897969751806080526101a080915260805101906120ed565b6080516020818303910152815180825260208201916020808360051b8301019401926000915b83831061151357505050505060805160408183039101526020808451928381520193019060005b8181106114f457505050926113f861142b9695936113e76114099461141a9760805160608184039101526120ed565b9060805160808184039101526120ed565b9060805160a08184039101526120ed565b9060805160c08184039101526120ed565b9060805160e08184039101526120ed565b6080516101008183039101526020808351928381520192019060005b8181106114d5575050506080516101208183039101526020808451928381520193019060005b8181106114bf57866114b96114a4886114928989608051610140818403910152612121565b90608051610160818403910152612121565b608051610180818303910152608051926120ed565b03608051f35b825185526020948501949092019160010161146d565b909192602080826114e960019488516120e0565b019401929101611447565b82516001600160a01b03168552602094850194909201916001016113b8565b9091929394602080611531600193601f1986820301875289516120a0565b97019301930191939290611391565b3461018a5760208060031936011261018a5760043561155d6123c3565b806000526002825260406000209161157b60ff600f850154166123e6565b600c8301923360005283825260ff604060002054166117b857600033600052600a8201835260406000205490600b830184526040600020549260ff600d820154166007811015610e9c57600481036116b957505050906115da916122e3565b925b8315611674573360005281526040600020600160ff19825416179055600080808086335af1611609612376565b5015611640577f5380cf6fe903b40c6d5a9e0dfbca2f3a423f0a21520b4d5947ed5169bdba946d906040519384523393a360018055005b6064906040519062461bcd60e51b82526004820152600d60248201526c14185e5bdd5d0819985a5b1959609a1b6044820152fd5b60405162461bcd60e51b815260048101839052601c60248201527f4e6f2077696e6e696e6773206f7220696e76616c6964207374617465000000006044820152606490fd5b60009794919392976002821480156117ab575b1561173a575050508015158061172d575b6116e9575b50506115dc565b80919550946009810154806116ff575b506116e2565b61172493965090600861171561171e938561245d565b91015490612470565b906122e3565b928480806116f9565b50600882015415156116dd565b90919250610e9c57600381149081156117a0575b5061175a5750506115dc565b80151580611793575b156116e257809195509460088101548061177d57506116e2565b61172493965090600961171561171e938561245d565b5060098201541515611763565b60069150148761174e565b50506000600582146116cc565b60405162461bcd60e51b815260048101839052600f60248201526e105b1c9958591e4818db185a5b5959608a1b6044820152606490fd5b3461018a57600036600319011261018a5760206040516138408152f35b3461018a57602036600319011261018a5760043561ffff81169081810361018a57611835612275565b6103e8821161188b576004805461ffff60a01b191660a09290921b61ffff60a01b169190911790556040519081527f1426859b6b96e2e9ae302b23a42f763f4b0ae916a71a093e61c77120458b2e9590602090a1005b60405162461bcd60e51b815260206004820152601660248201527546656520746f6f206869676820286d6178203130252960501b6044820152606490fd5b3461018a57600036600319011261018a576020604051620151808152f35b3461018a57600036600319011261018a576020600354604051908152f35b3461018a57602036600319011261018a576004356001600160a01b0381169081900361018a57611933612275565b80156119925747908161194257005b600080809381935af1611953612376565b501561195b57005b60405162461bcd60e51b815260206004820152600f60248201526e151c985b9cd9995c8819985a5b1959608a1b6044820152606490fd5b60405162461bcd60e51b815260206004820152600f60248201526e496e76616c6964206164647265737360881b6044820152606490fd5b3461018a57602036600319011261018a5760043560005260026020526040600020600f81015460ff16906119fc826123e6565b805490600160a01b6001900360028201541690600381015493600482015490600583015460088401546009850154600d86015460ff1691600e87015493600788015460ff1696600689015498600101611a54906121cf565b9b6040519c8d9c8d528c6101a06020819201528d01611a72916120a0565b9a60408d015260608c015260808b015260a08a015260c089015260e08801526101008701611a9f916120e0565b610120860152151561014085015215156101608401526101808301520390f35b3461018a5760a036600319011261018a5767ffffffffffffffff60043581811161018a57611af1903690600401612063565b9190611afb61204d565b92611b04612091565b93611b0d612275565b8415611d5d575b61038442018042116105a257611b2d90606435116122f0565b6003549384600052600260205260406000209085825583116104b157611b566001820154612157565b601f8111611d16575b50600095601f8411600114611c8857837fec86006df3e8f32dd47d3fe0c82d1c601f54bf982c1503b5d6e31bc215137aa09697600091611c7d575b508460011b906000198660031b1c19161760018301555b8015611c5b575b6044359182600382015560643560048201556006810190428255611beb83600783019060ff801983541691151516179055565b6001600f600d83019260ff19938481541690550191825416179055611c11600354612346565b6003555491611c2d60405196879660c0885260c0880191612355565b6001600160a01b039094166020860152604085015260643560608501521515608084015260a08301520390a2005b6002820180546001600160a01b0319166001600160a01b038516179055611bb8565b905085013588611b9a565b60018201600052602060002060005b601f1986168110611cfe57507fec86006df3e8f32dd47d3fe0c82d1c601f54bf982c1503b5d6e31bc215137aa0969785601f19811610611ce4575b5050600184811b016001830155611bb1565b860135600019600387901b60f8161c191690558780611cd2565b86890135825560209889019860019092019101611c97565b600182016000526020600020601f850160051c810160208610611d56575b601f830160051c82018110611d4a575050611b5f565b60008155600101611d34565b5080611d34565b611d716001600160a01b03821615156122a1565b611b14565b3461018a57604036600319011261018a576004356024803590600782101561018a57611da0612275565b611da86123c3565b8260005260209060028252604060002092611dc960ff600f860154166123e6565b60ff60078501541615611fbd57600d84019160ff8354166007811015610b79578015908115611fb2575b5015611f7e57611e09600486015442101561255a565b60028214906000828015611f71575b818115611f61575b5015611f2557611f115760048314611ea5575b5060ff8383600e93611e5860409896600080516020612ffa8339815191529a9861232e565b42600588015515611e8757506001838601555b541692015490611e7d845180946120e0565b820152a260018055005b600303611e9957600083860155611e6b565b60001985840155611e6b565b6008860154158015611f05575b611e33578460236084926040519262461bcd60e51b845260048401528201527f43616e6e6f74205055534820776974682062657473206f6e20626f746820736960448201526264657360e81b6064820152fd5b50600986015415611eb2565b634e487b7160e01b60009081526021600452fd5b60405162461bcd60e51b81526004810187905260158184015274496e76616c6964206f7574636f6d6520737461746560581b6044820152606490fd5b9050610b79576004841481611e20565b5050600060038414611e18565b83600e6064926040519262461bcd60e51b845260048401528201526d4e6f74207265736f6c7661626c6560901b6044820152fd5b600191501487611df3565b60405162461bcd60e51b8152600481018490526010818401526f139bdd08195d995b9d081b585c9ad95d60821b6044820152606490fd5b3461018a57604036600319011261018a5760409061201061204d565b6004356000526002602052826000209060018060a01b0316600052600a8101602052600b8360002054910160205282600020549082526020820152f35b602435906001600160a01b038216820361018a57565b9181601f8401121561018a5782359167ffffffffffffffff831161018a576020838186019501011161018a57565b60843590811515820361018a57565b919082519283825260005b8481106120cc575050826000602080949584010152601f8019910116010190565b6020818301810151848301820152016120ab565b906007821015610e9c5752565b90815180825260208080930193019160005b82811061210d575050505090565b8351855293810193928101926001016120ff565b90815180825260208080930193019160005b828110612141575050505090565b8351151585529381019392810192600101612133565b90600182811c92168015612187575b602083101461217157565b634e487b7160e01b600052602260045260246000fd5b91607f1691612166565b6020810190811067ffffffffffffffff8211176104b157604052565b90601f8019910116810190811067ffffffffffffffff8211176104b157604052565b90604051918260008254926121e384612157565b908184526001948581169081600014612252575060011461220f575b505061220d925003836121ad565b565b9093915060005260209081600020936000915b81831061223a57505061220d935082010138806121ff565b85548884018501529485019487945091830191612222565b91505061220d94506020925060ff191682840152151560051b82010138806121ff565b6000546001600160a01b0316330361228957565b60405163118cdaa760e01b8152336004820152602490fd5b156122a857565b60405162461bcd60e51b8152602060048201526013602482015272141c9a58d94819995959081c995c5d5a5c9959606a1b6044820152606490fd5b919082018092116105a257565b156122f757565b60405162461bcd60e51b815260206004820152600f60248201526e22bc3834b93c903a37b79039b7b7b760891b6044820152606490fd5b906007811015610e9c5760ff80198354169116179055565b60001981146105a25760010190565b908060209392818452848401376000828201840152601f01601f1916010190565b3d156123b1573d9067ffffffffffffffff82116104b157604051916123a5601f8201601f1916602001846121ad565b82523d6000602084013e565b606090565b919082039182116105a257565b6002600154146123d4576002600155565b604051633ee5aeb560e01b8152600490fd5b156123ed57565b60405162461bcd60e51b815260206004820152600a6024820152694d61726b657420444e4560b01b6044820152606490fd5b1561242657565b60405162461bcd60e51b815260206004820152600f60248201526e26b0b935b2ba103737ba1027b832b760891b6044820152606490fd5b818102929181159184041417156105a257565b811561247a570490565b634e487b7160e01b600052601260045260246000fd5b604051906040820182811067ffffffffffffffff8211176104b157604052600d82526c5f50524943455f41424f56455f60981b6020830152565b519069ffffffffffffffffffff8216820361018a57565b908160a091031261018a576124f5816124ca565b916020820151916040810151916125136080606084015193016124ca565b90565b1561251d57565b60405162461bcd60e51b81526020600482015260156024820152744f7261636c65206461746120746f6f207374616c6560581b6044820152606490fd5b1561256157565b60405162461bcd60e51b815260206004820152600b60248201526a139bdd08195e1c1a5c995960aa1b6044820152606490fd5b600060443d1061251357604051600319913d83016004833e815167ffffffffffffffff918282113d6024840111176125f2578184019485519384116125fa573d850101602084870101116125f25750612513929101602001906121ad565b949350505050565b50949350505050565b600090815260026020526040812060ff600f82015416158015612773575b61276d57819260018060a01b03168252600a8101602052604082205490600b810160205260408320549260ff600d8301541690600782101561274d57600482036126725750505061251392506122e3565b80949294600283148015612761575b156126dc5750505050801515806126cf575b61269c57505090565b80919250916009810154806126b2575b50505090565b6126c7935090600861171561171e938561245d565b3880806126ac565b5060088201541515612693565b909192935061274d575060038114908115612742575b506126fd575b505090565b80151580612735575b156126f85780919250916008810154806127205750505090565b6126c7935090600961171561171e938561245d565b5060098201541515612706565b6006915014386126f2565b634e487b7160e01b81526021600452602490fd5b50508060058314612681565b50905090565b506001600160a01b0383168252600c8101602052604082205460ff16612621565b9081518110156127a5570160200190565b634e487b7160e01b600052603260045260246000fd5b908051801561284a57825110612864576000905b6127dc83518251906123b6565b821161285c5760019260005b8251811015612852576001600160f81b03198061280e61280884886122e3565b85612794565b51169061281b8386612794565b5116036128305761282b90612346565b6127e8565b5092509060005b61284a5761284490612346565b906127cf565b505050600190565b5092919091612837565b505050600090565b5050600090565b67ffffffffffffffff81116104b15760051b60200190565b9061288d8261286b565b61289a60405191826121ad565b82815280926128ab601f199161286b565b0190602036910137565b906128bf8261286b565b6128cc60405191826121ad565b82815280926128dd601f199161286b565b019060005b8281106128ee57505050565b8060606020809385010152016128e2565b80518210156127a55760209160051b010190565b6007821015610e9c5752565b806104005260035480610360528215918215612fee575b5050612f15576103605161294d82610400516122e3565b6000610140521115612f0c575061296a61040051610360516123b6565b610140525b61297b61014051612883565b6101c05261298b610140516128b5565b6101805261299b61014051612883565b6101a0526129ab61014051612883565b610340526129bb61014051612883565b610380526129cb61014051612883565b610460526129db61014051612883565b6103a0526129eb61014051612883565b610120526129fb61014051612883565b60a052612a0a61014051612883565b60e052612a1961014051612883565b61016052612a2961014051612883565b6103c052612a3961014051612883565b6102805260006101e05260005b61014051811015612c0857610360516000198101116105a25780612a80612a73612aa393610400516122e3565b61036051600019016123b6565b6000526002602052604060002060ff600f820154169081612aa8575b5050612346565b612a46565b6006918154612abd6101e0516101c0516128ff565b52612aca600183016121cf565b612ada6101e051610180516128ff565b52612aeb6101e051610180516128ff565b5060018060a01b03600283015416612b096101e0516101a0516128ff565b526003820154612b1f6101e051610340516128ff565b526004820154612b356101e051610380516128ff565b526005820154612b4b6101e051610460516128ff565b526008820154612b616101e0516103a0516128ff565b526009820154612b776101e051610120516128ff565b52612b9760ff600d84015416612b926101e05160a0516128ff565b612913565b600e820154612bab6101e05160e0516128ff565b52612bbc6101e051610160516128ff565b901515905260ff600782015416612bd96101e0516103c0516128ff565b90151590520154612bf06101e051610280516128ff565b52612bfd6101e051612346565b6101e0523880612a9c565b50612c156101e051612883565b61026052612c256101e0516128b5565b61010052612c356101e051612883565b6102c052612c456101e051612883565b61042052612c556101e051612883565b6103e052612c656101e051612883565b61024052612c756101e051612883565b61032052612c856101e051612883565b61030052612c956101e051612883565b61044052612ca56101e051612883565b61020052612cb56101e051612883565b6102a052612cc56101e051612883565b6102e052612cd56101e051612883565b61022052600060c0525b6101e05160c05190811015612ec857612cfb906101c0516128ff565b51612d0b60c051610260516128ff565b52612d1b60c051610180516128ff565b51612d2b60c051610100516128ff565b52612d3b60c051610100516128ff565b5060c0516101a0516001600160a01b0391612d55916128ff565b5116612d6660c0516102c0516128ff565b52612d7660c051610340516128ff565b51612d8660c051610420516128ff565b52612d9660c051610380516128ff565b51612da660c0516103e0516128ff565b52612db660c051610460516128ff565b51612dc660c051610240516128ff565b52612dd660c0516103a0516128ff565b51612de660c051610320516128ff565b52612df660c051610120516128ff565b51612e0660c051610300516128ff565b52612e1560c05160a0516128ff565b516007811015610e9c57612e3290612b9260c051610440516128ff565b612e4060c05160e0516128ff565b51612e5060c051610200516128ff565b52612e6060c051610160516128ff565b511515612e7260c0516102a0516128ff565b52612e8260c0516103c0516128ff565b511515612e9460c0516102e0516128ff565b52612ea460c051610280516128ff565b51612eb460c051610220516128ff565b52612ec060c051612346565b60c052612cdf565b50610260519061010051906102c0519061042051906103e05190610240519061032051906103005190610440519061020051906102a051906102e051906102205190565b6101405261296f565b506040805190612f2482612191565b6000808352815193612f3585612191565b818552825193612f4485612191565b828552835193612f5385612191565b838552805193612f6285612191565b808552815193612f7185612191565b818552825193612f8085612191565b828552835193612f8f85612191565b838552805193612f9e85612191565b808552815193612fad85612191565b818552825193612fbc85612191565b828552835193612fcb85612191565b8385525192612fd984612191565b8084523681379c9b9a99989796959493929190565b10159050388061293656fe075615139ef09288348a86c4ccfdd482a2a472b9eabc311f28548d520e51aaf5a2646970667358221220568e332e0ec939c08a74430a54f86a441f55c3be89369b7a517ba585b40df9ef64736f6c63430008140033",
  "linkReferences": {},
  "deployedLinkReferences": {}
}