{
  "_format": "hh-sol-artifact-1",
  "contractName": "PremiumContent",
  "sourceName": "contracts/PremiumContent.sol",
  "abi": [
    {
      "inputs": [
        {
          "internalType": "address",
          "name": "_initialOwner",
          "type": "address"
        },
        {
          "internalType": "address",
          "name": "_usdcTokenAddress",
          "type": "address"
        },
        {
          "internalType": "uint256",
          "name": "_initialContentPrice",
          "type": "uint256"
        }
      ],
      "stateMutability": "nonpayable",
      "type": "constructor"
    },
    {
      "inputs": [
        {
          "internalType": "address",
          "name": "owner",
          "type": "address"
        }
      ],
      "name": "OwnableInvalidOwner",
      "type": "error"
    },
    {
      "inputs": [
        {
          "internalType": "address",
          "name": "account",
          "type": "address"
        }
      ],
      "name": "OwnableUnauthorizedAccount",
      "type": "error"
    },
    {
      "inputs": [],
      "name": "ReentrancyGuardReentrantCall",
      "type": "error"
    },
    {
      "anonymous": false,
      "inputs": [
        {
          "indexed": true,
          "internalType": "address",
          "name": "user",
          "type": "address"
        },
        {
          "indexed": true,
          "internalType": "bytes32",
          "name": "contentId",
          "type": "bytes32"
        }
      ],
      "name": "ContentUnlocked",
      "type": "event"
    },
    {
      "anonymous": false,
      "inputs": [
        {
          "indexed": true,
          "internalType": "address",
          "name": "previousOwner",
          "type": "address"
        },
        {
          "indexed": true,
          "internalType": "address",
          "name": "newOwner",
          "type": "address"
        }
      ],
      "name": "OwnershipTransferred",
      "type": "event"
    },
    {
      "inputs": [],
      "name": "contentPrice",
      "outputs": [
        {
          "internalType": "uint256",
          "name": "",
          "type": "uint256"
        }
      ],
      "stateMutability": "view",
      "type": "function"
    },
    {
      "inputs": [
        {
          "internalType": "bytes32",
          "name": "",
          "type": "bytes32"
        },
        {
          "internalType": "address",
          "name": "",
          "type": "address"
        }
      ],
      "name": "hasAccess",
      "outputs": [
        {
          "internalType": "bool",
          "name": "",
          "type": "bool"
        }
      ],
      "stateMutability": "view",
      "type": "function"
    },
    {
      "inputs": [],
      "name": "owner",
      "outputs": [
        {
          "internalType": "address",
          "name": "",
          "type": "address"
        }
      ],
      "stateMutability": "view",
      "type": "function"
    },
    {
      "inputs": [],
      "name": "renounceOwnership",
      "outputs": [],
      "stateMutability": "nonpayable",
      "type": "function"
    },
    {
      "inputs": [
        {
          "internalType": "uint256",
          "name": "_newPrice",
          "type": "uint256"
        }
      ],
      "name": "setContentPrice",
      "outputs": [],
      "stateMutability": "nonpayable",
      "type": "function"
    },
    {
      "inputs": [
        {
          "internalType": "address",
          "name": "_newTokenAddress",
          "type": "address"
        }
      ],
      "name": "setTokenAddress",
      "outputs": [],
      "stateMutability": "nonpayable",
      "type": "function"
    },
    {
      "inputs": [
        {
          "internalType": "address",
          "name": "newOwner",
          "type": "address"
        }
      ],
      "name": "transferOwnership",
      "outputs": [],
      "stateMutability": "nonpayable",
      "type": "function"
    },
    {
      "inputs": [
        {
          "internalType": "bytes32",
          "name": "contentId",
          "type": "bytes32"
        }
      ],
      "name": "unlockContent",
      "outputs": [],
      "stateMutability": "nonpayable",
      "type": "function"
    },
    {
      "inputs": [],
      "name": "usdcToken",
      "outputs": [
        {
          "internalType": "contract IERC20",
          "name": "",
          "type": "address"
        }
      ],
      "stateMutability": "view",
      "type": "function"
    }
  ],
  "bytecode": "0x60803461012e57601f61066a38819003918201601f19168301916001600160401b038311848410176101335780849260609460405283398101031261012e5761004781610149565b90604061005660208301610149565b910151916001600160a01b03908116908115610115576000549260018060a01b03199280848616176000558260405195167f8be0079c531659141344cd1fd0a4f28419497f9722a3daafe3b4186f6b6457e0600080a360018055169182156100d35750600254161760025560035560405161050c908161015e8239f35b62461bcd60e51b815260206004820152601b60248201527f5553444320616464726573732063616e6e6f74206265207a65726f00000000006044820152606490fd5b604051631e4fbdf760e01b815260006004820152602490fd5b600080fd5b634e487b7160e01b600052604160045260246000fd5b51906001600160a01b038216820361012e5756fe6080604081815260048036101561001557600080fd5b600092833560e01c9081630ee415ad146102e15750806311eac855146102b857806326a4e8d214610226578063715018a6146101c957806376b02089146101aa5780637ea659231461018857806383177db31461013b5780638da5cb5b1461010f5763f2fde38b1461008657600080fd5b3461010b57602036600319011261010b5761009f61048f565b906100a86104aa565b6001600160a01b039182169283156100f557505082546001600160a01b0319811683178455167f8be0079c531659141344cd1fd0a4f28419497f9722a3daafe3b4186f6b6457e08380a380f35b51631e4fbdf760e01b8152908101849052602490fd5b8280fd5b505034610137578160031936011261013757905490516001600160a01b039091168152602090f35b5080fd5b503461010b578160031936011261010b576024356001600160a01b03811691908290036101845760209360ff928285933583528652828220908252855220541690519015158152f35b8380fd5b838234610137576020366003190112610137576101a36104aa565b3560035580f35b5050346101375781600319360112610137576020906003549051908152f35b83346102235780600319360112610223576101e26104aa565b80546001600160a01b03198116825581906001600160a01b03167f8be0079c531659141344cd1fd0a4f28419497f9722a3daafe3b4186f6b6457e08280a380f35b80fd5b503461010b57602036600319011261010b5761024061048f565b6102486104aa565b6001600160a01b03169182156102755750506bffffffffffffffffffffffff60a01b600254161760025580f35b906020606492519162461bcd60e51b8352820152601c60248201527f546f6b656e20616464726573732063616e6e6f74206265207a65726f000000006044820152fd5b50503461013757816003193601126101375760025490516001600160a01b039091168152602090f35b9291905034610184576020908160031936011261048b5780359360026001541461047f5750600260015560018060a01b038281600254169187541660646003549189885195869485936323b872dd60e01b8552338a860152602485015260448401525af1908115610475578691610411575b501561039f57838552815281842090338552528220600160ff19825416179055337fea1d31bffd976609b3977e035434ca58a1d42bd7ca87e24765c4538d654287538380a36001805580f35b915162461bcd60e51b815291820152604260248201527f5072656d69756d436f6e74656e743a2055534443207472616e7366657220666160448201527f696c65642e20436865636b2062616c616e636520616e6420616c6c6f77616e63606482015261329760f11b608482015260a490fd5b9050823d841161046e575b601f8101601f1916820167ffffffffffffffff81118382101761045b5784918391875281010312610457575180151581036104575738610353565b8580fd5b634e487b7160e01b885260418452602488fd5b503d61041c565b84513d88823e3d90fd5b633ee5aeb560e01b8152fd5b8480fd5b600435906001600160a01b03821682036104a557565b600080fd5b6000546001600160a01b031633036104be57565b60405163118cdaa760e01b8152336004820152602490fdfea26469706673582212201ebbb1872511503cf3fc1509ad88e1dd5e13eb503613fad625ab8c3ed804353364736f6c63430008140033",
  "linkReferences": {},
  "deployedLinkReferences": {}
}